{
  "address": "0xD5d0f5d872ed4eB74AA3E8fa6D833d6f7603D2EC",
  "abi": [
    {
      "inputs": [
        {
          "internalType": "address",
          "name": "_strategyToken",
          "type": "address"
        },
        {
          "internalType": "address",
          "name": "_bentoBox",
          "type": "address"
        },
        {
          "internalType": "address",
          "name": "_factory",
          "type": "address"
        },
        {
          "internalType": "address",
          "name": "_strategyExecutor",
          "type": "address"
        },
        {
          "internalType": "contract ISpiritSwapGauge",
          "name": "_gauge",
          "type": "address"
        },
        {
          "internalType": "address",
          "name": "_rewardToken",
          "type": "address"
        },
        {
          "internalType": "bool",
          "name": "_usePairToken0",
          "type": "bool"
        }
      ],
      "stateMutability": "nonpayable",
      "type": "constructor"
    },
    {
      "inputs": [],
      "name": "InsufficientAmountOut",
      "type": "error"
    },
    {
      "inputs": [],
      "name": "InvalidFeePercent",
      "type": "error"
    },
    {
      "anonymous": false,
      "inputs": [
        {
          "indexed": true,
          "internalType": "address",
          "name": "server",
          "type": "address"
        },
        {
          "indexed": true,
          "internalType": "address",
          "name": "token0",
          "type": "address"
        },
        {
          "indexed": true,
          "internalType": "address",
          "name": "token1",
          "type": "address"
        },
        {
          "indexed": false,
          "internalType": "uint256",
          "name": "amount0",
          "type": "uint256"
        },
        {
          "indexed": false,
          "internalType": "uint256",
          "name": "amount1",
          "type": "uint256"
        }
      ],
      "name": "LogConvert",
      "type": "event"
    },
    {
      "anonymous": false,
      "inputs": [
        {
          "indexed": true,
          "internalType": "address",
          "name": "executor",
          "type": "address"
        },
        {
          "indexed": false,
          "internalType": "bool",
          "name": "allowed",
          "type": "bool"
        }
      ],
      "name": "LogSetStrategyExecutor",
      "type": "event"
    },
    {
      "anonymous": false,
      "inputs": [
        {
          "indexed": false,
          "internalType": "uint256",
          "name": "total",
          "type": "uint256"
        },
        {
          "indexed": false,
          "internalType": "uint256",
          "name": "strategyAmount",
          "type": "uint256"
        },
        {
          "indexed": false,
          "internalType": "uint256",
          "name": "feeAmount",
          "type": "uint256"
        }
      ],
      "name": "LpMinted",
      "type": "event"
    },
    {
      "anonymous": false,
      "inputs": [
        {
          "indexed": true,
          "internalType": "address",
          "name": "previousOwner",
          "type": "address"
        },
        {
          "indexed": true,
          "internalType": "address",
          "name": "newOwner",
          "type": "address"
        }
      ],
      "name": "OwnershipTransferred",
      "type": "event"
    },
    {
      "inputs": [
        {
          "internalType": "address",
          "name": "to",
          "type": "address"
        },
        {
          "internalType": "uint256",
          "name": "value",
          "type": "uint256"
        },
        {
          "internalType": "bytes",
          "name": "data",
          "type": "bytes"
        }
      ],
      "name": "afterExit",
      "outputs": [
        {
          "internalType": "bool",
          "name": "success",
          "type": "bool"
        }
      ],
      "stateMutability": "nonpayable",
      "type": "function"
    },
    {
      "inputs": [],
      "name": "bentoBox",
      "outputs": [
        {
          "internalType": "address",
          "name": "",
          "type": "address"
        }
      ],
      "stateMutability": "view",
      "type": "function"
    },
    {
      "inputs": [],
      "name": "bridgeToken",
      "outputs": [
        {
          "internalType": "address",
          "name": "",
          "type": "address"
        }
      ],
      "stateMutability": "view",
      "type": "function"
    },
    {
      "inputs": [
        {
          "internalType": "uint256",
          "name": "balance",
          "type": "uint256"
        }
      ],
      "name": "exit",
      "outputs": [
        {
          "internalType": "int256",
          "name": "amountAdded",
          "type": "int256"
        }
      ],
      "stateMutability": "nonpayable",
      "type": "function"
    },
    {
      "inputs": [],
      "name": "exited",
      "outputs": [
        {
          "internalType": "bool",
          "name": "",
          "type": "bool"
        }
      ],
      "stateMutability": "view",
      "type": "function"
    },
    {
      "inputs": [],
      "name": "factory",
      "outputs": [
        {
          "internalType": "address",
          "name": "",
          "type": "address"
        }
      ],
      "stateMutability": "view",
      "type": "function"
    },
    {
      "inputs": [],
      "name": "feeCollector",
      "outputs": [
        {
          "internalType": "address",
          "name": "",
          "type": "address"
        }
      ],
      "stateMutability": "view",
      "type": "function"
    },
    {
      "inputs": [],
      "name": "feePercent",
      "outputs": [
        {
          "internalType": "uint8",
          "name": "",
          "type": "uint8"
        }
      ],
      "stateMutability": "view",
      "type": "function"
    },
    {
      "inputs": [
        {
          "internalType": "uint256",
          "name": "balance",
          "type": "uint256"
        },
        {
          "internalType": "address",
          "name": "sender",
          "type": "address"
        }
      ],
      "name": "harvest",
      "outputs": [
        {
          "internalType": "int256",
          "name": "",
          "type": "int256"
        }
      ],
      "stateMutability": "nonpayable",
      "type": "function"
    },
    {
      "inputs": [],
      "name": "maxBentoBoxBalance",
      "outputs": [
        {
          "internalType": "uint256",
          "name": "",
          "type": "uint256"
        }
      ],
      "stateMutability": "view",
      "type": "function"
    },
    {
      "inputs": [],
      "name": "owner",
      "outputs": [
        {
          "internalType": "address",
          "name": "",
          "type": "address"
        }
      ],
      "stateMutability": "view",
      "type": "function"
    },
    {
      "inputs": [],
      "name": "renounceOwnership",
      "outputs": [],
      "stateMutability": "nonpayable",
      "type": "function"
    },
    {
      "inputs": [
        {
          "internalType": "uint256",
          "name": "maxBalance",
          "type": "uint256"
        },
        {
          "internalType": "bool",
          "name": "rebalance",
          "type": "bool"
        },
        {
          "internalType": "uint256",
          "name": "maxChangeAmount",
          "type": "uint256"
        },
        {
          "internalType": "bool",
          "name": "harvestRewards",
          "type": "bool"
        }
      ],
      "name": "safeHarvest",
      "outputs": [],
      "stateMutability": "nonpayable",
      "type": "function"
    },
    {
      "inputs": [
        {
          "internalType": "address",
          "name": "_feeCollector",
          "type": "address"
        },
        {
          "internalType": "uint8",
          "name": "_feePercent",
          "type": "uint8"
        }
      ],
      "name": "setFeeParameters",
      "outputs": [],
      "stateMutability": "nonpayable",
      "type": "function"
    },
    {
      "inputs": [
        {
          "internalType": "address",
          "name": "executor",
          "type": "address"
        },
        {
          "internalType": "bool",
          "name": "value",
          "type": "bool"
        }
      ],
      "name": "setStrategyExecutor",
      "outputs": [],
      "stateMutability": "nonpayable",
      "type": "function"
    },
    {
      "inputs": [
        {
          "internalType": "uint256",
          "name": "amount",
          "type": "uint256"
        }
      ],
      "name": "skim",
      "outputs": [],
      "stateMutability": "nonpayable",
      "type": "function"
    },
    {
      "inputs": [
        {
          "internalType": "address",
          "name": "",
          "type": "address"
        }
      ],
      "name": "strategyExecutors",
      "outputs": [
        {
          "internalType": "bool",
          "name": "",
          "type": "bool"
        }
      ],
      "stateMutability": "view",
      "type": "function"
    },
    {
      "inputs": [],
      "name": "strategyToken",
      "outputs": [
        {
          "internalType": "address",
          "name": "",
          "type": "address"
        }
      ],
      "stateMutability": "view",
      "type": "function"
    },
    {
      "inputs": [
        {
          "internalType": "uint256",
          "name": "amountOutMin",
          "type": "uint256"
        },
        {
          "internalType": "address",
          "name": "inputToken",
          "type": "address"
        }
      ],
      "name": "swapExactTokensForUnderlying",
      "outputs": [
        {
          "internalType": "uint256",
          "name": "amountOut",
          "type": "uint256"
        }
      ],
      "stateMutability": "nonpayable",
      "type": "function"
    },
    {
      "inputs": [
        {
          "internalType": "uint256",
          "name": "amountOutMin",
          "type": "uint256"
        }
      ],
      "name": "swapToLP",
      "outputs": [
        {
          "internalType": "uint256",
          "name": "amountOut",
          "type": "uint256"
        }
      ],
      "stateMutability": "nonpayable",
      "type": "function"
    },
    {
      "inputs": [
        {
          "internalType": "address",
          "name": "newOwner",
          "type": "address"
        }
      ],
      "name": "transferOwnership",
      "outputs": [],
      "stateMutability": "nonpayable",
      "type": "function"
    },
    {
      "inputs": [
        {
          "internalType": "uint256",
          "name": "amount",
          "type": "uint256"
        }
      ],
      "name": "withdraw",
      "outputs": [
        {
          "internalType": "uint256",
          "name": "actualAmount",
          "type": "uint256"
        }
      ],
      "stateMutability": "nonpayable",
      "type": "function"
    }
  ],
  "transactionHash": "0xc76b767903fe2b246e9fa9cbdcd66afc47273dfa9e8a89a49b6cf01bb758351f",
  "args": [
    "0xB32b31DfAfbD53E310390F641C7119b5B9Ea0488",
    "0x74A0BcA2eeEdf8883cb91E37e9ff49430f20a616",
    "0xEF45d134b73241eDa7703fa787148D9C9F4950b0",
    "0xfB3485c2e209A5cfBDC1447674256578f1A80eE3",
    "0x0B905475bEa057060D066f3D1F85E6902Ae62557",
    "0x5Cc61A78F164885776AA610fb0FE1257df78E59B",
    true
  ],
  "solcInputHash": "ea26764232f4b69fc8288466bccd51e9",
  "bytecode": "0x6101a06040523480156200001257600080fd5b5060405162003adf38038062003adf83398101604081905262000035916200047b565b8686866000877fe242e798f6cee26a9cb0bbf24653bf066e5356ffeac160907fe2cc108e238617620000673362000236565b6001600160601b0319606087811b821660805286811b821660a05285811b821660c05284901b1660e0526101008190526001600160a01b0382161562000102576001600160a01b038216600081815260026020908152604091829020805460ff1916600190811790915591519182527fb08a78f53a7fe017d5ca8c8fcdbf06ffa2c31f2ab668378a17700d9fc558717e910160405180910390a25b5050506001600160601b0319606087811b82166101205286901b1661014052506200012d9150503390565b600380546001600160a01b0319166001600160a01b03929092169190911790556000806200015b8962000286565b915091506200019a7316327e3fbdaca3bcf7e38f5af2599d2ddc33ae52600019846001600160a01b03166200038260201b62001a58179092919060201c565b620001d57316327e3fbdaca3bcf7e38f5af2599d2ddc33ae52600019836001600160a01b03166200038260201b62001a58179092919060201c565b620001fc856000198b6001600160a01b03166200038260201b62001a58179092919060201c565b82151560f81b610180528262000213578062000215565b815b60601b6001600160601b031916610160525062000543975050505050505050565b600080546001600160a01b038381166001600160a01b0319831681178455604051919092169283917f8be0079c531659141344cd1fd0a4f28419497f9722a3daafe3b4186f6b6457e09190a35050565b6000806000839050806001600160a01b0316630dfe16816040518163ffffffff1660e01b815260040160206040518083038186803b158015620002c857600080fd5b505afa158015620002dd573d6000803e3d6000fd5b505050506040513d601f19601f8201168201806040525081019062000303919062000454565b9250806001600160a01b031663d21220a76040518163ffffffff1660e01b815260040160206040518083038186803b1580156200033f57600080fd5b505afa15801562000354573d6000803e3d6000fd5b505050506040513d601f19601f820116820180604052508101906200037a919062000454565b915050915091565b600060405163095ea7b360e01b81526001600160a01b03841660048201528260248201526000806044836000895af19150620003c090508162000408565b620004025760405162461bcd60e51b815260206004820152600e60248201526d1054141493d59157d1905253115160921b604482015260640160405180910390fd5b50505050565b60003d826200041b57806000803e806000fd5b8060208114620004365780156200044857600092506200044d565b816000803e600051151592506200044d565b600192505b5050919050565b6000602082840312156200046757600080fd5b815162000474816200052a565b9392505050565b600080600080600080600060e0888a0312156200049757600080fd5b8751620004a4816200052a565b6020890151909750620004b7816200052a565b6040890151909650620004ca816200052a565b6060890151909550620004dd816200052a565b6080890151909450620004f0816200052a565b60a089015190935062000503816200052a565b60c089015190925080151581146200051a57600080fd5b8091505092959891949750929550565b6001600160a01b03811681146200054057600080fd5b50565b60805160601c60a05160601c60c05160601c60e05160601c610100516101205160601c6101405160601c6101605160601c6101805160f81c6133ca62000715600039600081816113b90152611412015260006112b101526000611290015260008181611ada01528181611bc001528181611c3e0152611cc7015260008181610e8601528181610f9301528181611536015281816120de01526123c301526000818161036101528181610c5101528181610d0f015281816121af015261226c0152600081816102f801528181610b5901528181610e6301528181610f3c0152818161151301528181612078015281816120bb015281816123a0015261241a0152600081816101f4015281816103ea0152818161047c015281816105fa015281816106740152818161073601528181610844015281816109ce01528181610aea015261110e01526000818161023b0152818161045401528181610541015281816105d801528181610652015281816107910152818161082201528181610a2b01528181610ac801528181610bcf01528181610d6401528181611028015281816110d7015281816112dc0152818161138a01528181611561015281816115f101528181611852015261194601526133ca6000f3fe608060405234801561001057600080fd5b50600436106101425760003560e01c80637fd6f15c116100b8578063c45a01551161007c578063c45a0155146102f3578063d9253c2d1461031a578063daa656de1461032d578063e8bd73a514610340578063f2fde38b14610349578063f4734b0c1461035c57600080fd5b80637fd6f15c146102835780638da5cb5b146102a9578063a7edd48c146102ba578063ba6275ab146102cd578063c415b95c146102e057600080fd5b80636939aaf51161010a5780636939aaf5146101dc5780636b2ace87146101ef578063715018a61461022e578063747efea11461023657806374ceb2671461025d5780637f8661a11461027057600080fd5b806318fccc76146101475780632e1a7d4d1461016d5780635066ebdd146101805780635ce6c327146101b357806363b98ac8146101c7575b600080fd5b61015a610155366004612fd0565b610383565b6040519081526020015b60405180910390f35b61015a61017b366004612f9e565b6106d4565b6101a361018e366004612d7e565b60026020526000908152604090205460ff1681565b6040519015158152602001610164565b6000546101a390600160a01b900460ff1681565b6101da6101d5366004612ea2565b61086e565b005b6101da6101ea366004612f9e565b6108f6565b6102167f000000000000000000000000000000000000000000000000000000000000000081565b6040516001600160a01b039091168152602001610164565b6101da610902565b6102167f000000000000000000000000000000000000000000000000000000000000000081565b6101da61026b366004612db8565b610938565b61015a61027e366004612f9e565b6109c1565b60035461029790600160a01b900460ff1681565b60405160ff9091168152602001610164565b6000546001600160a01b0316610216565b61015a6102c8366004612fd0565b610b28565b6101da6102db366004612ff5565b611085565b600354610216906001600160a01b031681565b6102167f000000000000000000000000000000000000000000000000000000000000000081565b6101a3610328366004612df1565b611170565b61015a61033b366004612f9e565b61125a565b61015a60015481565b6101da610357366004612d7e565b6119c0565b6102167f000000000000000000000000000000000000000000000000000000000000000081565b60008054600160a01b900460ff16156103df5760405162461bcd60e51b815260206004820152601960248201527810995b9d1bd09bde0814dd1c985d1959de4e88195e1a5d1959603a1b60448201526064015b60405180910390fd5b336001600160a01b037f000000000000000000000000000000000000000000000000000000000000000016146104275760405162461bcd60e51b81526004016103d6906130c8565b6001600160a01b038216301480156105025750600154604051634ffe34db60e01b81526001600160a01b037f0000000000000000000000000000000000000000000000000000000000000000811660048301527f00000000000000000000000000000000000000000000000000000000000000001690634ffe34db90602401604080518083038186803b1580156104bd57600080fd5b505afa1580156104d1573d6000803e3d6000fd5b505050506040513d601f19601f820116820180604052508101906104f59190612ef3565b516001600160801b031611155b801561050e5750600083115b156106ca57600061051e84611ad6565b6040516370a0823160e01b81523060048201529091506000906001600160a01b037f000000000000000000000000000000000000000000000000000000000000000016906370a082319060240160206040518083038186803b15801561058357600080fd5b505afa158015610597573d6000803e3d6000fd5b505050506040513d601f19601f820116820180604052508101906105bb9190612fb7565b90506000821261062857801561061f5761061f6001600160a01b037f0000000000000000000000000000000000000000000000000000000000000000167f000000000000000000000000000000000000000000000000000000000000000083611b53565b91506106ce9050565b80156106c257600061063a82846131db565b905060008113156106af576106996001600160a01b037f0000000000000000000000000000000000000000000000000000000000000000167f000000000000000000000000000000000000000000000000000000000000000083611b53565b6106aa6106a584613312565b611baa565b6106b8565b6106b882611baa565b92506106ce915050565b5090506106ce565b5060005b92915050565b60008054600160a01b900460ff161561072b5760405162461bcd60e51b815260206004820152601960248201527810995b9d1bd09bde0814dd1c985d1959de4e88195e1a5d1959603a1b60448201526064016103d6565b336001600160a01b037f000000000000000000000000000000000000000000000000000000000000000016146107735760405162461bcd60e51b81526004016103d6906130c8565b61077c82611c28565b6040516370a0823160e01b81523060048201527f00000000000000000000000000000000000000000000000000000000000000006001600160a01b0316906370a082319060240160206040518083038186803b1580156107db57600080fd5b505afa1580156107ef573d6000803e3d6000fd5b505050506040513d601f19601f820116820180604052508101906108139190612fb7565b90506108696001600160a01b037f0000000000000000000000000000000000000000000000000000000000000000167f000000000000000000000000000000000000000000000000000000000000000083611b53565b919050565b6000546001600160a01b031633146108985760405162461bcd60e51b81526004016103d6906130fd565b6003546064600160a01b90910460ff1611156108c757604051638a81d3b360e01b815260040160405180910390fd5b6003805460ff909216600160a01b026001600160a81b03199092166001600160a01b0390931692909217179055565b6108ff81611baa565b50565b6000546001600160a01b0316331461092c5760405162461bcd60e51b81526004016103d6906130fd565b6109366000611c75565b565b6000546001600160a01b031633146109625760405162461bcd60e51b81526004016103d6906130fd565b6001600160a01b038216600081815260026020908152604091829020805460ff191685151590811790915591519182527fb08a78f53a7fe017d5ca8c8fcdbf06ffa2c31f2ab668378a17700d9fc558717e910160405180910390a25050565b6000336001600160a01b037f00000000000000000000000000000000000000000000000000000000000000001614610a0b5760405162461bcd60e51b81526004016103d6906130c8565b610a13611cc5565b6040516370a0823160e01b81523060048201526000907f00000000000000000000000000000000000000000000000000000000000000006001600160a01b0316906370a082319060240160206040518083038186803b158015610a7557600080fd5b505afa158015610a89573d6000803e3d6000fd5b505050506040513d601f19601f82011682018060405250810190610aad9190612fb7565b9050610ab98382613275565b9150610b0f6001600160a01b037f0000000000000000000000000000000000000000000000000000000000000000167f000000000000000000000000000000000000000000000000000000000000000083611b53565b506000805460ff60a01b1916600160a01b179055919050565b3360009081526002602052604081205460ff16610b575760405162461bcd60e51b81526004016103d690613132565b7f00000000000000000000000000000000000000000000000000000000000000006001600160a01b0316610bcd5760405162461bcd60e51b815260206004820152601e60248201527f42656e746f426f782053747261746567793a2063616e6e6f742073776170000060448201526064016103d6565b7f00000000000000000000000000000000000000000000000000000000000000006001600160a01b0316826001600160a01b03161415610c4f5760405162461bcd60e51b815260206004820152601f60248201527f42656e746f426f782053747261746567793a20696e76616c696420737761700060448201526064016103d6565b7f00000000000000000000000000000000000000000000000000000000000000006001600160a01b03161515600081610c89576002610c8c565b60035b60ff1667ffffffffffffffff811115610ca757610ca761335b565b604051908082528060200260200182016040528015610cd0578160200160208202803683370190505b5090508381600081518110610ce757610ce7613345565b60200260200101906001600160a01b031690816001600160a01b0316815250508115610d62577f000000000000000000000000000000000000000000000000000000000000000081600181518110610d4157610d41613345565b60200260200101906001600160a01b031690816001600160a01b0316815250505b7f00000000000000000000000000000000000000000000000000000000000000008160018351610d9291906132b4565b81518110610da257610da2613345565b60200260200101906001600160a01b031690816001600160a01b031681525050600081600081518110610dd757610dd7613345565b60209081029190910101516040516370a0823160e01b81523060048201526001600160a01b03909116906370a082319060240160206040518083038186803b158015610e2257600080fd5b505afa158015610e36573d6000803e3d6000fd5b505050506040513d601f19601f82011682018060405250810190610e5a9190612fb7565b90506000610eaa7f000000000000000000000000000000000000000000000000000000000000000083857f0000000000000000000000000000000000000000000000000000000000000000611d34565b90508060018251610ebb91906132b4565b81518110610ecb57610ecb613345565b6020026020010151945086851015610f345760405162461bcd60e51b815260206004820152602660248201527f42656e746f426f782053747261746567793a20696e73756666696369656e74206044820152651bdd5d1c1d5d60d21b60648201526084016103d6565b611005610fb77f000000000000000000000000000000000000000000000000000000000000000085600081518110610f6e57610f6e613345565b602002602001015186600181518110610f8957610f89613345565b60200260200101517f0000000000000000000000000000000000000000000000000000000000000000611ec1565b82600081518110610fca57610fca613345565b602002602001015185600081518110610fe557610fe5613345565b60200260200101516001600160a01b0316611b539092919063ffffffff16565b611010818430611f7f565b60408051838152602081018790526001600160a01b037f00000000000000000000000000000000000000000000000000000000000000008116929089169133917f3b644720db133e4e05b302a56bdb46867109debe30c44b4f25566b3c41ed627b910160405180910390a45050505092915050565b3360009081526002602052604090205460ff166110b45760405162461bcd60e51b81526004016103d690613132565b83156110c05760018490555b6040516366c6bb0b60e01b81526001600160a01b037f0000000000000000000000000000000000000000000000000000000000000000811660048301528415156024830152604482018490527f000000000000000000000000000000000000000000000000000000000000000016906366c6bb0b90606401600060405180830381600087803b15801561115257600080fd5b505af1158015611166573d6000803e3d6000fd5b5050505050505050565b600080546001600160a01b0316331461119b5760405162461bcd60e51b81526004016103d6906130fd565b600054600160a01b900460ff166111f45760405162461bcd60e51b815260206004820152601d60248201527f42656e746f426f782053747261746567793a206e6f742065786974656400000060448201526064016103d6565b836001600160a01b0316838360405161120d9190613099565b60006040518083038185875af1925050503d806000811461124a576040519150601f19603f3d011682016040523d82523d6000602084013e61124f565b606091505b509095945050505050565b3360009081526002602052604081205460ff166112895760405162461bcd60e51b81526004016103d690613132565b60006112d57f00000000000000000000000000000000000000000000000000000000000000007f00000000000000000000000000000000000000000000000000000000000000006121ab565b90506000807f00000000000000000000000000000000000000000000000000000000000000006001600160a01b0316630902f1ac6040518163ffffffff1660e01b815260040160606040518083038186803b15801561133357600080fd5b505afa158015611347573d6000803e3d6000fd5b505050506040513d601f19601f8201168201806040525081019061136b9190612f4e565b506001600160701b031691506001600160701b031691506000806113ae7f000000000000000000000000000000000000000000000000000000000000000061248f565b9150915060006113ea7f00000000000000000000000000000000000000000000000000000000000000006113e257846113e4565b855b87612583565b60408051600280825260608201835292935060009290916020830190803683370190505090507f0000000000000000000000000000000000000000000000000000000000000000156114a357838160008151811061144a5761144a613345565b60200260200101906001600160a01b031690816001600160a01b031681525050828160018151811061147e5761147e613345565b60200260200101906001600160a01b031690816001600160a01b03168152505061150c565b82816000815181106114b7576114b7613345565b60200260200101906001600160a01b031690816001600160a01b03168152505083816001815181106114eb576114eb613345565b60200260200101906001600160a01b031690816001600160a01b0316815250505b600061155a7f000000000000000000000000000000000000000000000000000000000000000084847f0000000000000000000000000000000000000000000000000000000000000000611d34565b90506115ce7f00000000000000000000000000000000000000000000000000000000000000008260008151811061159357611593613345565b6020026020010151846000815181106115ae576115ae613345565b60200260200101516001600160a01b03166125e59092919063ffffffff16565b6115d9818330611f7f565b6040516370a0823160e01b81523060048201526000907f00000000000000000000000000000000000000000000000000000000000000006001600160a01b0316906370a082319060240160206040518083038186803b15801561163b57600080fd5b505afa15801561164f573d6000803e3d6000fd5b505050506040513d601f19601f820116820180604052508101906116739190612fb7565b6040516370a0823160e01b81523060048201529091507316327e3fbdaca3bcf7e38f5af2599d2ddc33ae529063e8e3370090889088906001600160a01b038316906370a082319060240160206040518083038186803b1580156116d557600080fd5b505afa1580156116e9573d6000803e3d6000fd5b505050506040513d601f19601f8201168201806040525081019061170d9190612fb7565b6040516370a0823160e01b81523060048201526001600160a01b038b16906370a082319060240160206040518083038186803b15801561174c57600080fd5b505afa158015611760573d6000803e3d6000fd5b505050506040513d601f19601f820116820180604052508101906117849190612fb7565b6040516001600160e01b031960e087901b1681526001600160a01b0394851660048201529390921660248401526044830152606482015260016084820181905260a48201523060c482015260001960e482015261010401606060405180830381600087803b1580156117f557600080fd5b505af1158015611809573d6000803e3d6000fd5b505050506040513d601f19601f8201168201806040525081019061182d919061303f565b50506040516370a0823160e01b81523060048201526000915082906001600160a01b037f000000000000000000000000000000000000000000000000000000000000000016906370a082319060240160206040518083038186803b15801561189457600080fd5b505afa1580156118a8573d6000803e3d6000fd5b505050506040513d601f19601f820116820180604052508101906118cc9190612fb7565b6118d691906132b4565b90508b8110156118f957604051637294b85560e11b815260040160405180910390fd5b60035460009060649061191690600160a01b900460ff1684613256565b6119209190613234565b9050801561196f5761193281836132b4565b600354909c5061196f906001600160a01b037f000000000000000000000000000000000000000000000000000000000000000081169116836125e5565b60408051838152602081018e90529081018290527ffac4ceeb73d90e5d855cf54c2fc52267e49df26636cde8d7ab271952cd081b779060600160405180910390a15050505050505050505050919050565b6000546001600160a01b031633146119ea5760405162461bcd60e51b81526004016103d6906130fd565b6001600160a01b038116611a4f5760405162461bcd60e51b815260206004820152602660248201527f4f776e61626c653a206e6577206f776e657220697320746865207a65726f206160448201526564647265737360d01b60648201526084016103d6565b6108ff81611c75565b600060405163095ea7b360e01b81526001600160a01b03841660048201528260248201526000806044836000895af1915050611a938161265e565b611ad05760405162461bcd60e51b815260206004820152600e60248201526d1054141493d59157d1905253115160921b60448201526064016103d6565b50505050565b60007f00000000000000000000000000000000000000000000000000000000000000006001600160a01b0316633d18b9126040518163ffffffff1660e01b8152600401600060405180830381600087803b158015611b3357600080fd5b505af1158015611b47573d6000803e3d6000fd5b50600095945050505050565b604080516001600160a01b038416602482015260448082018490528251808303909101815260649091019091526020810180516001600160e01b031663a9059cbb60e01b179052611ba59084906126a5565b505050565b60405163b6b55f2560e01b8152600481018290527f00000000000000000000000000000000000000000000000000000000000000006001600160a01b03169063b6b55f25906024015b600060405180830381600087803b158015611c0d57600080fd5b505af1158015611c21573d6000803e3d6000fd5b5050505050565b604051632e1a7d4d60e01b8152600481018290527f00000000000000000000000000000000000000000000000000000000000000006001600160a01b031690632e1a7d4d90602401611bf3565b600080546001600160a01b038381166001600160a01b0319831681178455604051919092169283917f8be0079c531659141344cd1fd0a4f28419497f9722a3daafe3b4186f6b6457e09190a35050565b7f00000000000000000000000000000000000000000000000000000000000000006001600160a01b031663853828b66040518163ffffffff1660e01b8152600401600060405180830381600087803b158015611d2057600080fd5b505af1158015611ad0573d6000803e3d6000fd5b6060600283511015611d885760405162461bcd60e51b815260206004820152601e60248201527f556e697377617056324c6962726172793a20494e56414c49445f50415448000060448201526064016103d6565b825167ffffffffffffffff811115611da257611da261335b565b604051908082528060200260200182016040528015611dcb578160200160208202803683370190505b5090508381600081518110611de257611de2613345565b60200260200101818152505060005b60018451611dff91906132b4565b811015611eb857600080611e5388878581518110611e1f57611e1f613345565b602002602001015188866001611e35919061321c565b81518110611e4557611e45613345565b602002602001015188612777565b91509150611e7b848481518110611e6c57611e6c613345565b60200260200101518383612852565b84611e8785600161321c565b81518110611e9757611e97613345565b60200260200101818152505050508080611eb0906132f7565b915050611df1565b50949350505050565b6000806000611ed08686612972565b6040516bffffffffffffffffffffffff19606084811b8216602084015283901b166034820152919350915087906048016040516020818303038152906040528051906020012085604051602001611f5c939291906001600160f81b0319815260609390931b6bffffffffffffffffffffffff191660018401526015830191909152603582015260550190565b60408051601f198184030181529190528051602090910120979650505050505050565b60005b60018351611f9091906132b4565b811015611ad057600080848381518110611fac57611fac613345565b602002602001015185846001611fc2919061321c565b81518110611fd257611fd2613345565b6020026020010151915091506000816001600160a01b0316836001600160a01b031610611fff5781612001565b825b905060008761201186600161321c565b8151811061202157612021613345565b60200260200101519050600080836001600160a01b0316866001600160a01b03161461204f57826000612053565b6000835b91509150600060028a5161206791906132b4565b881061207357886120b4565b6120b47f0000000000000000000000000000000000000000000000000000000000000000878c6120a48c600261321c565b81518110610f8957610f89613345565b90506121027f000000000000000000000000000000000000000000000000000000000000000088887f0000000000000000000000000000000000000000000000000000000000000000611ec1565b6001600160a01b031663022c0d9f84848460006040519080825280601f01601f19166020018201604052801561213f576020820181803683370190505b506040518563ffffffff1660e01b815260040161215f9493929190613173565b600060405180830381600087803b15801561217957600080fd5b505af115801561218d573d6000803e3d6000fd5b505050505050505050505080806121a3906132f7565b915050611f82565b60007f00000000000000000000000000000000000000000000000000000000000000006001600160a01b0316151581816121e65760026121e9565b60035b60ff1667ffffffffffffffff8111156122045761220461335b565b60405190808252806020026020018201604052801561222d578160200160208202803683370190505b509050848160008151811061224457612244613345565b60200260200101906001600160a01b031690816001600160a01b03168152505081156122bf577f00000000000000000000000000000000000000000000000000000000000000008160018151811061229e5761229e613345565b60200260200101906001600160a01b031690816001600160a01b0316815250505b8381600183516122cf91906132b4565b815181106122df576122df613345565b60200260200101906001600160a01b031690816001600160a01b03168152505060008160008151811061231457612314613345565b60209081029190910101516040516370a0823160e01b81523060048201526001600160a01b03909116906370a082319060240160206040518083038186803b15801561235f57600080fd5b505afa158015612373573d6000803e3d6000fd5b505050506040513d601f19601f820116820180604052508101906123979190612fb7565b905060006123e77f000000000000000000000000000000000000000000000000000000000000000083857f0000000000000000000000000000000000000000000000000000000000000000611d34565b905080600182516123f891906132b4565b8151811061240857612408613345565b6020026020010151945061247a61244c7f000000000000000000000000000000000000000000000000000000000000000085600081518110610f6e57610f6e613345565b8260008151811061245f5761245f613345565b6020026020010151856000815181106115ae576115ae613345565b612485818430611f7f565b5050505092915050565b6000806000839050806001600160a01b0316630dfe16816040518163ffffffff1660e01b815260040160206040518083038186803b1580156124d057600080fd5b505afa1580156124e4573d6000803e3d6000fd5b505050506040513d601f19601f820116820180604052508101906125089190612d9b565b9250806001600160a01b031663d21220a76040518163ffffffff1660e01b815260040160206040518083038186803b15801561254357600080fd5b505afa158015612557573d6000803e3d6000fd5b505050506040513d601f19601f8201168201806040525081019061257b9190612d9b565b915050915091565b60006107ca612594846107cd613256565b6125ca6125a486623cda29613256565b6125b186623cda20613256565b6125bb919061321c565b6125c59087613256565b612a6a565b6125d491906132b4565b6125de9190613234565b9392505050565b600060405163a9059cbb60e01b81526001600160a01b03841660048201528260248201526000806044836000895af19150506126208161265e565b611ad05760405162461bcd60e51b815260206004820152600f60248201526e1514905394d1915497d19052531151608a1b60448201526064016103d6565b60003d8261267057806000803e806000fd5b8060208114612688578015612699576000925061269e565b816000803e6000511515925061269e565b600192505b5050919050565b60006126fa826040518060400160405280602081526020017f5361666545524332303a206c6f772d6c6576656c2063616c6c206661696c6564815250856001600160a01b0316612be89092919063ffffffff16565b805190915015611ba557808060200190518101906127189190612ed6565b611ba55760405162461bcd60e51b815260206004820152602a60248201527f5361666545524332303a204552433230206f7065726174696f6e20646964206e6044820152691bdd081cdd58d8d9595960b21b60648201526084016103d6565b60008060006127868686612972565b50905060008061279889898989611ec1565b6001600160a01b0316630902f1ac6040518163ffffffff1660e01b815260040160606040518083038186803b1580156127d057600080fd5b505afa1580156127e4573d6000803e3d6000fd5b505050506040513d601f19601f820116820180604052508101906128089190612f4e565b506001600160701b031691506001600160701b03169150826001600160a01b0316886001600160a01b03161461283f578082612842565b81815b909a909950975050505050505050565b60008084116128b75760405162461bcd60e51b815260206004820152602b60248201527f556e697377617056324c6962726172793a20494e53554646494349454e545f4960448201526a1394155517d05353d5539560aa1b60648201526084016103d6565b6000831180156128c75750600082115b6129245760405162461bcd60e51b815260206004820152602860248201527f556e697377617056324c6962726172793a20494e53554646494349454e545f4c604482015267495155494449545960c01b60648201526084016103d6565b6000612932856103e5613256565b905060006129408483613256565b9050600082612951876103e8613256565b61295b919061321c565b90506129678183613234565b979650505050505050565b600080826001600160a01b0316846001600160a01b031614156129e55760405162461bcd60e51b815260206004820152602560248201527f556e697377617056324c6962726172793a204944454e544943414c5f41444452604482015264455353455360d81b60648201526084016103d6565b826001600160a01b0316846001600160a01b031610612a05578284612a08565b83835b90925090506001600160a01b038216612a635760405162461bcd60e51b815260206004820152601e60248201527f556e697377617056324c6962726172793a205a45524f5f41444452455353000060448201526064016103d6565b9250929050565b600081612a7957506000919050565b816001600160801b8210612a925760809190911c9060401b5b680100000000000000008210612aad5760409190911c9060201b5b6401000000008210612ac45760209190911c9060101b5b620100008210612ad95760109190911c9060081b5b6101008210612aed5760089190911c9060041b5b60108210612b005760049190911c9060021b5b60088210612b0c5760011b5b6001612b188286613234565b612b22908361321c565b901c90506001612b328286613234565b612b3c908361321c565b901c90506001612b4c8286613234565b612b56908361321c565b901c90506001612b668286613234565b612b70908361321c565b901c90506001612b808286613234565b612b8a908361321c565b901c90506001612b9a8286613234565b612ba4908361321c565b901c90506001612bb48286613234565b612bbe908361321c565b901c90506000612bce8286613234565b9050808210612bdd5780612bdf565b815b95945050505050565b6060612bf78484600085612bff565b949350505050565b606082471015612c605760405162461bcd60e51b815260206004820152602660248201527f416464726573733a20696e73756666696369656e742062616c616e636520666f6044820152651c8818d85b1b60d21b60648201526084016103d6565b843b612cae5760405162461bcd60e51b815260206004820152601d60248201527f416464726573733a2063616c6c20746f206e6f6e2d636f6e747261637400000060448201526064016103d6565b600080866001600160a01b03168587604051612cca9190613099565b60006040518083038185875af1925050503d8060008114612d07576040519150601f19603f3d011682016040523d82523d6000602084013e612d0c565b606091505b509150915061296782828660608315612d265750816125de565b825115612d365782518084602001fd5b8160405162461bcd60e51b81526004016103d691906130b5565b80516001600160701b038116811461086957600080fd5b80516001600160801b038116811461086957600080fd5b600060208284031215612d9057600080fd5b81356125de81613371565b600060208284031215612dad57600080fd5b81516125de81613371565b60008060408385031215612dcb57600080fd5b8235612dd681613371565b91506020830135612de681613386565b809150509250929050565b600080600060608486031215612e0657600080fd5b8335612e1181613371565b92506020848101359250604085013567ffffffffffffffff80821115612e3657600080fd5b818701915087601f830112612e4a57600080fd5b813581811115612e5c57612e5c61335b565b612e6e601f8201601f191685016131aa565b91508082528884828501011115612e8457600080fd5b80848401858401376000848284010152508093505050509250925092565b60008060408385031215612eb557600080fd5b8235612ec081613371565b9150602083013560ff81168114612de657600080fd5b600060208284031215612ee857600080fd5b81516125de81613386565b600060408284031215612f0557600080fd5b6040516040810181811067ffffffffffffffff82111715612f2857612f2861335b565b604052612f3483612d67565b8152612f4260208401612d67565b60208201529392505050565b600080600060608486031215612f6357600080fd5b612f6c84612d50565b9250612f7a60208501612d50565b9150604084015163ffffffff81168114612f9357600080fd5b809150509250925092565b600060208284031215612fb057600080fd5b5035919050565b600060208284031215612fc957600080fd5b5051919050565b60008060408385031215612fe357600080fd5b823591506020830135612de681613371565b6000806000806080858703121561300b57600080fd5b84359350602085013561301d81613386565b925060408501359150606085013561303481613386565b939692955090935050565b60008060006060848603121561305457600080fd5b8351925060208401519150604084015190509250925092565b600081518084526130858160208601602086016132cb565b601f01601f19169290920160200192915050565b600082516130ab8184602087016132cb565b9190910192915050565b6020815260006125de602083018461306d565b6020808252818101527f42656e746f426f782053747261746567793a206f6e6c792042656e746f426f78604082015260600190565b6020808252818101527f4f776e61626c653a2063616c6c6572206973206e6f7420746865206f776e6572604082015260600190565b60208082526021908201527f42656e746f426f782053747261746567793a206f6e6c79204578656375746f726040820152607360f81b606082015260800190565b84815283602082015260018060a01b03831660408201526080606082015260006131a0608083018461306d565b9695505050505050565b604051601f8201601f1916810167ffffffffffffffff811182821017156131d3576131d361335b565b604052919050565b600080821280156001600160ff1b03849003851316156131fd576131fd61332f565b600160ff1b83900384128116156132165761321661332f565b50500190565b6000821982111561322f5761322f61332f565b500190565b60008261325157634e487b7160e01b600052601260045260246000fd5b500490565b60008160001904831182151516156132705761327061332f565b500290565b60008083128015600160ff1b8501841216156132935761329361332f565b6001600160ff1b03840183138116156132ae576132ae61332f565b50500390565b6000828210156132c6576132c661332f565b500390565b60005b838110156132e65781810151838201526020016132ce565b83811115611ad05750506000910152565b600060001982141561330b5761330b61332f565b5060010190565b6000600160ff1b8214156133285761332861332f565b5060000390565b634e487b7160e01b600052601160045260246000fd5b634e487b7160e01b600052603260045260246000fd5b634e487b7160e01b600052604160045260246000fd5b6001600160a01b03811681146108ff57600080fd5b80151581146108ff57600080fdfea26469706673582212201f5ea00bf7c8788539d4865417e9f4d6ffb912f813fcea78a67355a6a3fcacef64736f6c63430008070033",
  "devdoc": {
    "kind": "dev",
    "methods": {
      "afterExit(address,uint256,bytes)": {
        "details": "After exited, the owner can perform ANY call. This is to rescue any funds that didn't get released during exit or got earned afterwards due to vesting or airdrops, etc. "
      },
      "constructor": {
        "params": {
          "_bentoBox": "BentoBox address.",
          "_factory": "SushiSwap factory.",
          "_gauge": "The spiritswap gauge farm",
          "_rewardToken": "The gauge reward token",
          "_strategyExecutor": "an EOA that will execute the safeHarvest function.",
          "_strategyToken": "Address of the underlying LP token the strategy invests.",
          "_usePairToken0": "When true, the _rewardToken will be swapped to the pair's token0 for one-sided liquidity providing, otherwise, the pair's token1."
        }
      },
      "exit(uint256)": {
        "details": "do not use isActive modifier here; allow bentobox to call strategy.exit() multiple times",
        "params": {
          "balance": "The amount of tokens the caller thinks it has invested."
        },
        "returns": {
          "amountAdded": "The delta (+profit or -loss) that occured in contrast to `balance`."
        }
      },
      "harvest(uint256,address)": {
        "details": "Only BentoBox can call harvest on this strategy.Ensures that (1) the caller was this contract (called through the safeHarvest function) and (2) that we are not being frontrun by a large BentoBox deposit when harvesting profits. ",
        "params": {
          "balance": "The amount of tokens the caller thinks it has invested.",
          "sender": "The address of the initiator of this transaction. Can be used for reimbursements, etc."
        },
        "returns": {
          "_0": "The delta (+profit or -loss) that occured in contrast to `balance`."
        }
      },
      "owner()": {
        "details": "Returns the address of the current owner."
      },
      "renounceOwnership()": {
        "details": "Leaves the contract without owner. It will not be possible to call `onlyOwner` functions anymore. Can only be called by the current owner. NOTE: Renouncing ownership will leave the contract without an owner, thereby removing any functionality that is only available to the owner."
      },
      "safeHarvest(uint256,bool,uint256,bool)": {
        "details": "maxBalance can be set to 0 to keep the previous value.maxChangeAmount can be set to 0 to allow for full rebalancing.",
        "params": {
          "harvestRewards": "If we want to claim any accrued reward tokens",
          "maxBalance": "The maximum balance of the underlying token that is allowed to be in BentoBox.",
          "maxChangeAmount": "When rebalancing - the maximum amount that will be deposited to or withdrawn from a strategy to BentoBox.",
          "rebalance": "Whether BentoBox should rebalance the strategy assets to acheive it's target allocation."
        }
      },
      "skim(uint256)": {
        "params": {
          "amount": "The amount of tokens to invest."
        }
      },
      "transferOwnership(address)": {
        "details": "Transfers ownership of the contract to a new account (`newOwner`). Can only be called by the current owner."
      },
      "withdraw(uint256)": {
        "details": "The `actualAmount` should be very close to the amount. The difference should NOT be used to report a loss. That's what harvest is for.",
        "params": {
          "amount": "The requested amount the caller wants to withdraw."
        },
        "returns": {
          "actualAmount": "The real amount that is withdrawn."
        }
      }
    },
    "version": 1
  },
  "userdoc": {
    "kind": "user",
    "methods": {
      "exit(uint256)": {
        "notice": "Withdraw all assets in the safest way possible. This shouldn't fail."
      },
      "harvest(uint256,address)": {
        "notice": "Harvest any profits made converted to the asset and pass them to the caller."
      },
      "safeHarvest(uint256,bool,uint256,bool)": {
        "notice": "Harvest profits while preventing a sandwich attack exploit."
      },
      "skim(uint256)": {
        "notice": "Send the assets to the Strategy and call skim to invest them."
      },
      "swapExactTokensForUnderlying(uint256,address)": {
        "notice": "Swap some tokens in the contract for the underlying and deposits them to address(this)"
      },
      "swapToLP(uint256)": {
        "notice": "Swap some tokens in the contract for the underlying and deposits them to address(this)"
      },
      "withdraw(uint256)": {
        "notice": "Withdraw assets. The returned amount can differ from the requested amount due to rounding."
      }
    },
    "version": 1
  },
  "storageLayout": {
    "storage": [
      {
        "astId": 7,
        "contract": "contracts/strategies/SpiritSwapLPStrategy.sol:SpiritSwapLPStrategy",
        "label": "_owner",
        "offset": 0,
        "slot": "0",
        "type": "t_address"
      },
      {
        "astId": 1815,
        "contract": "contracts/strategies/SpiritSwapLPStrategy.sol:SpiritSwapLPStrategy",
        "label": "exited",
        "offset": 20,
        "slot": "0",
        "type": "t_bool"
      },
      {
        "astId": 1818,
        "contract": "contracts/strategies/SpiritSwapLPStrategy.sol:SpiritSwapLPStrategy",
        "label": "maxBentoBoxBalance",
        "offset": 0,
        "slot": "1",
        "type": "t_uint256"
      },
      {
        "astId": 1823,
        "contract": "contracts/strategies/SpiritSwapLPStrategy.sol:SpiritSwapLPStrategy",
        "label": "strategyExecutors",
        "offset": 0,
        "slot": "2",
        "type": "t_mapping(t_address,t_bool)"
      },
      {
        "astId": 5848,
        "contract": "contracts/strategies/SpiritSwapLPStrategy.sol:SpiritSwapLPStrategy",
        "label": "feeCollector",
        "offset": 0,
        "slot": "3",
        "type": "t_address"
      },
      {
        "astId": 5850,
        "contract": "contracts/strategies/SpiritSwapLPStrategy.sol:SpiritSwapLPStrategy",
        "label": "feePercent",
        "offset": 20,
        "slot": "3",
        "type": "t_uint8"
      }
    ],
    "types": {
      "t_address": {
        "encoding": "inplace",
        "label": "address",
        "numberOfBytes": "20"
      },
      "t_bool": {
        "encoding": "inplace",
        "label": "bool",
        "numberOfBytes": "1"
      },
      "t_mapping(t_address,t_bool)": {
        "encoding": "mapping",
        "key": "t_address",
        "label": "mapping(address => bool)",
        "numberOfBytes": "32",
        "value": "t_bool"
      },
      "t_uint256": {
        "encoding": "inplace",
        "label": "uint256",
        "numberOfBytes": "32"
      },
      "t_uint8": {
        "encoding": "inplace",
        "label": "uint8",
        "numberOfBytes": "1"
      }
    }
  }
}