{
  "address": "0x184a07c9CFD6165D6ACCDc373Eb00Bc5Cd8733cF",
  "abi": [
    {
      "inputs": [
        {
          "internalType": "address",
          "name": "_strategyToken",
          "type": "address"
        },
        {
          "internalType": "address",
          "name": "_bentoBox",
          "type": "address"
        },
        {
          "internalType": "address",
          "name": "_factory",
          "type": "address"
        },
        {
          "internalType": "address",
          "name": "_bridgeToken",
          "type": "address"
        },
        {
          "internalType": "address",
          "name": "_strategyExecutor",
          "type": "address"
        },
        {
          "internalType": "contract IMasterChef",
          "name": "_masterchef",
          "type": "address"
        },
        {
          "internalType": "uint256",
          "name": "_pid",
          "type": "uint256"
        },
        {
          "internalType": "contract ISushiSwap",
          "name": "_router",
          "type": "address"
        },
        {
          "internalType": "address",
          "name": "_rewardToken",
          "type": "address"
        },
        {
          "internalType": "bool",
          "name": "_usePairToken0",
          "type": "bool"
        },
        {
          "internalType": "bytes32",
          "name": "_pairCodeHash",
          "type": "bytes32"
        }
      ],
      "stateMutability": "nonpayable",
      "type": "constructor"
    },
    {
      "anonymous": false,
      "inputs": [
        {
          "indexed": true,
          "internalType": "address",
          "name": "server",
          "type": "address"
        },
        {
          "indexed": true,
          "internalType": "address",
          "name": "token0",
          "type": "address"
        },
        {
          "indexed": true,
          "internalType": "address",
          "name": "token1",
          "type": "address"
        },
        {
          "indexed": false,
          "internalType": "uint256",
          "name": "amount0",
          "type": "uint256"
        },
        {
          "indexed": false,
          "internalType": "uint256",
          "name": "amount1",
          "type": "uint256"
        }
      ],
      "name": "LogConvert",
      "type": "event"
    },
    {
      "anonymous": false,
      "inputs": [
        {
          "indexed": true,
          "internalType": "address",
          "name": "executor",
          "type": "address"
        },
        {
          "indexed": false,
          "internalType": "bool",
          "name": "allowed",
          "type": "bool"
        }
      ],
      "name": "LogSetStrategyExecutor",
      "type": "event"
    },
    {
      "anonymous": false,
      "inputs": [
        {
          "indexed": false,
          "internalType": "uint256",
          "name": "total",
          "type": "uint256"
        },
        {
          "indexed": false,
          "internalType": "uint256",
          "name": "strategyAmount",
          "type": "uint256"
        },
        {
          "indexed": false,
          "internalType": "uint256",
          "name": "feeAmount",
          "type": "uint256"
        }
      ],
      "name": "LpMinted",
      "type": "event"
    },
    {
      "anonymous": false,
      "inputs": [
        {
          "indexed": true,
          "internalType": "address",
          "name": "previousOwner",
          "type": "address"
        },
        {
          "indexed": true,
          "internalType": "address",
          "name": "newOwner",
          "type": "address"
        }
      ],
      "name": "OwnershipTransferred",
      "type": "event"
    },
    {
      "inputs": [
        {
          "internalType": "address",
          "name": "to",
          "type": "address"
        },
        {
          "internalType": "uint256",
          "name": "value",
          "type": "uint256"
        },
        {
          "internalType": "bytes",
          "name": "data",
          "type": "bytes"
        }
      ],
      "name": "afterExit",
      "outputs": [
        {
          "internalType": "bool",
          "name": "success",
          "type": "bool"
        }
      ],
      "stateMutability": "nonpayable",
      "type": "function"
    },
    {
      "inputs": [],
      "name": "bentoBox",
      "outputs": [
        {
          "internalType": "address",
          "name": "",
          "type": "address"
        }
      ],
      "stateMutability": "view",
      "type": "function"
    },
    {
      "inputs": [],
      "name": "bridgeToken",
      "outputs": [
        {
          "internalType": "address",
          "name": "",
          "type": "address"
        }
      ],
      "stateMutability": "view",
      "type": "function"
    },
    {
      "inputs": [
        {
          "internalType": "uint256",
          "name": "balance",
          "type": "uint256"
        }
      ],
      "name": "exit",
      "outputs": [
        {
          "internalType": "int256",
          "name": "amountAdded",
          "type": "int256"
        }
      ],
      "stateMutability": "nonpayable",
      "type": "function"
    },
    {
      "inputs": [],
      "name": "exited",
      "outputs": [
        {
          "internalType": "bool",
          "name": "",
          "type": "bool"
        }
      ],
      "stateMutability": "view",
      "type": "function"
    },
    {
      "inputs": [],
      "name": "factory",
      "outputs": [
        {
          "internalType": "address",
          "name": "",
          "type": "address"
        }
      ],
      "stateMutability": "view",
      "type": "function"
    },
    {
      "inputs": [],
      "name": "feeCollector",
      "outputs": [
        {
          "internalType": "address",
          "name": "",
          "type": "address"
        }
      ],
      "stateMutability": "view",
      "type": "function"
    },
    {
      "inputs": [
        {
          "internalType": "uint256",
          "name": "balance",
          "type": "uint256"
        },
        {
          "internalType": "address",
          "name": "sender",
          "type": "address"
        }
      ],
      "name": "harvest",
      "outputs": [
        {
          "internalType": "int256",
          "name": "",
          "type": "int256"
        }
      ],
      "stateMutability": "nonpayable",
      "type": "function"
    },
    {
      "inputs": [],
      "name": "maxBentoBoxBalance",
      "outputs": [
        {
          "internalType": "uint256",
          "name": "",
          "type": "uint256"
        }
      ],
      "stateMutability": "view",
      "type": "function"
    },
    {
      "inputs": [],
      "name": "owner",
      "outputs": [
        {
          "internalType": "address",
          "name": "",
          "type": "address"
        }
      ],
      "stateMutability": "view",
      "type": "function"
    },
    {
      "inputs": [],
      "name": "renounceOwnership",
      "outputs": [],
      "stateMutability": "nonpayable",
      "type": "function"
    },
    {
      "inputs": [
        {
          "internalType": "uint256",
          "name": "maxBalance",
          "type": "uint256"
        },
        {
          "internalType": "bool",
          "name": "rebalance",
          "type": "bool"
        },
        {
          "internalType": "uint256",
          "name": "maxChangeAmount",
          "type": "uint256"
        },
        {
          "internalType": "bool",
          "name": "harvestRewards",
          "type": "bool"
        }
      ],
      "name": "safeHarvest",
      "outputs": [],
      "stateMutability": "nonpayable",
      "type": "function"
    },
    {
      "inputs": [
        {
          "internalType": "address",
          "name": "_feeCollector",
          "type": "address"
        }
      ],
      "name": "setFeeCollector",
      "outputs": [],
      "stateMutability": "nonpayable",
      "type": "function"
    },
    {
      "inputs": [
        {
          "internalType": "address",
          "name": "executor",
          "type": "address"
        },
        {
          "internalType": "bool",
          "name": "value",
          "type": "bool"
        }
      ],
      "name": "setStrategyExecutor",
      "outputs": [],
      "stateMutability": "nonpayable",
      "type": "function"
    },
    {
      "inputs": [
        {
          "internalType": "uint256",
          "name": "amount",
          "type": "uint256"
        }
      ],
      "name": "skim",
      "outputs": [],
      "stateMutability": "nonpayable",
      "type": "function"
    },
    {
      "inputs": [
        {
          "internalType": "address",
          "name": "",
          "type": "address"
        }
      ],
      "name": "strategyExecutors",
      "outputs": [
        {
          "internalType": "bool",
          "name": "",
          "type": "bool"
        }
      ],
      "stateMutability": "view",
      "type": "function"
    },
    {
      "inputs": [],
      "name": "strategyToken",
      "outputs": [
        {
          "internalType": "address",
          "name": "",
          "type": "address"
        }
      ],
      "stateMutability": "view",
      "type": "function"
    },
    {
      "inputs": [
        {
          "internalType": "uint256",
          "name": "amountOutMin",
          "type": "uint256"
        },
        {
          "internalType": "address",
          "name": "inputToken",
          "type": "address"
        }
      ],
      "name": "swapExactTokensForUnderlying",
      "outputs": [
        {
          "internalType": "uint256",
          "name": "amountOut",
          "type": "uint256"
        }
      ],
      "stateMutability": "nonpayable",
      "type": "function"
    },
    {
      "inputs": [
        {
          "internalType": "uint256",
          "name": "amountOutMin",
          "type": "uint256"
        }
      ],
      "name": "swapToLP",
      "outputs": [
        {
          "internalType": "uint256",
          "name": "amountOut",
          "type": "uint256"
        }
      ],
      "stateMutability": "nonpayable",
      "type": "function"
    },
    {
      "inputs": [
        {
          "internalType": "address",
          "name": "newOwner",
          "type": "address"
        }
      ],
      "name": "transferOwnership",
      "outputs": [],
      "stateMutability": "nonpayable",
      "type": "function"
    },
    {
      "inputs": [
        {
          "internalType": "uint256",
          "name": "amount",
          "type": "uint256"
        }
      ],
      "name": "withdraw",
      "outputs": [
        {
          "internalType": "uint256",
          "name": "actualAmount",
          "type": "uint256"
        }
      ],
      "stateMutability": "nonpayable",
      "type": "function"
    }
  ],
  "transactionHash": "0x379da60aa8826b16374e73868600f1baf372dd8c8e67767480739c5d6403110b",
  "args": [
    "0x6f86e65b255c9111109d2D2325ca2dFc82456efc",
    "0x74A0BcA2eeEdf8883cb91E37e9ff49430f20a616",
    "0x152eE697f2E276fA89E96742e9bB9aB1F2E61bE3",
    "0x0000000000000000000000000000000000000000",
    "0xb4EfdA6DAf5ef75D08869A0f9C0213278fb43b6C",
    "0x2b2929E785374c651a81A63878Ab22742656DcDd",
    24,
    "0xF491e7B69E4244ad4002BC14e878a34207E38c29",
    "0x841FAD6EAe12c286d1Fd18d1d525DFfA75C7EFFE",
    true,
    "0xcdf2deca40a0bd56de8e3ce5c7df6727e5b1bf2ac96f283fa9c4b3e6b42ea9d2"
  ],
  "solcInputHash": "50f390efe4ffc624c41526fd1b393af0",
  "bytecode": "0x6101e06040523480156200001257600080fd5b5060405162003eaf38038062003eaf83398101604081905262000035916200074f565b8a8a8a8a8a85620000463362000200565b6001600160601b0319606087811b821660805286811b821660a05285811b821660c05284901b1660e0526101008190526001600160a01b03821615620000e1576001600160a01b038216600081815260026020908152604091829020805460ff1916600190811790915591519182527fb08a78f53a7fe017d5ca8c8fcdbf06ffa2c31f2ab668378a17700d9fc558717e910160405180910390a25b5050506001600160601b031960608a811b8216610140526101608a905288811b82166101205287901b1661018052506200011b9150503390565b600380546001600160a01b0319166001600160a01b0392909216919091179055600080620001498d62000250565b915091506200017486600019846001600160a01b03166200034c60201b620019f4179092919060201c565b6200019b86600019836001600160a01b03166200034c60201b620019f4179092919060201c565b620001c2886000198f6001600160a01b03166200034c60201b620019f4179092919060201c565b83151560f81b6101c05283620001d95780620001db565b815b60601b6001600160601b0319166101a052506200090e9b505050505050505050505050565b600080546001600160a01b038381166001600160a01b0319831681178455604051919092169283917f8be0079c531659141344cd1fd0a4f28419497f9722a3daafe3b4186f6b6457e09190a35050565b6000806000839050806001600160a01b0316630dfe16816040518163ffffffff1660e01b815260040160206040518083038186803b1580156200029257600080fd5b505afa158015620002a7573d6000803e3d6000fd5b505050506040513d601f19601f82011682018060405250810190620002cd91906200072f565b9250806001600160a01b031663d21220a76040518163ffffffff1660e01b815260040160206040518083038186803b1580156200030957600080fd5b505afa1580156200031e573d6000803e3d6000fd5b505050506040513d601f19601f820116820180604052508101906200034491906200072f565b915050915091565b801580620003da5750604051636eb1769f60e11b81523060048201526001600160a01b03838116602483015284169063dd62ed3e9060440160206040518083038186803b1580156200039d57600080fd5b505afa158015620003b2573d6000803e3d6000fd5b505050506040513d601f19601f82011682018060405250810190620003d8919062000855565b155b620004525760405162461bcd60e51b815260206004820152603660248201527f5361666545524332303a20617070726f76652066726f6d206e6f6e2d7a65726f60448201527f20746f206e6f6e2d7a65726f20616c6c6f77616e63650000000000000000000060648201526084015b60405180910390fd5b604080516001600160a01b038416602482015260448082018490528251808303909101815260649091019091526020810180516001600160e01b0390811663095ea7b360e01b17909152620004aa918591620004af16565b505050565b60006200050b826040518060400160405280602081526020017f5361666545524332303a206c6f772d6c6576656c2063616c6c206661696c6564815250856001600160a01b03166200058d60201b62001b50179092919060201c565b805190915015620004aa57808060200190518101906200052c919062000837565b620004aa5760405162461bcd60e51b815260206004820152602a60248201527f5361666545524332303a204552433230206f7065726174696f6e20646964206e6044820152691bdd081cdd58d8d9595960b21b606482015260840162000449565b60606200059e8484600085620005a8565b90505b9392505050565b6060824710156200060b5760405162461bcd60e51b815260206004820152602660248201527f416464726573733a20696e73756666696369656e742062616c616e636520666f6044820152651c8818d85b1b60d21b606482015260840162000449565b843b6200065b5760405162461bcd60e51b815260206004820152601d60248201527f416464726573733a2063616c6c20746f206e6f6e2d636f6e7472616374000000604482015260640162000449565b600080866001600160a01b031685876040516200067991906200086f565b60006040518083038185875af1925050503d8060008114620006b8576040519150601f19603f3d011682016040523d82523d6000602084013e620006bd565b606091505b509092509050620006d0828286620006db565b979650505050505050565b60608315620006ec575081620005a1565b825115620006fd5782518084602001fd5b8160405162461bcd60e51b81526004016200044991906200088d565b805180151581146200072a57600080fd5b919050565b6000602082840312156200074257600080fd5b8151620005a181620008f5565b60008060008060008060008060008060006101608c8e0312156200077257600080fd5b8b516200077f81620008f5565b60208d0151909b506200079281620008f5565b60408d0151909a50620007a581620008f5565b60608d0151909950620007b881620008f5565b60808d0151909850620007cb81620008f5565b60a08d0151909750620007de81620008f5565b60c08d015160e08e01519197509550620007f881620008f5565b6101008d01519094506200080c81620008f5565b92506200081d6101208d0162000719565b91506101408c015190509295989b509295989b9093969950565b6000602082840312156200084a57600080fd5b620005a18262000719565b6000602082840312156200086857600080fd5b5051919050565b6000825162000883818460208701620008c2565b9190910192915050565b6020815260008251806020840152620008ae816040850160208701620008c2565b601f01601f19169190910160400192915050565b60005b83811015620008df578181015183820152602001620008c5565b83811115620008ef576000848401525b50505050565b6001600160a01b03811681146200090b57600080fd5b50565b60805160601c60a05160601c60c05160601c60e05160601c610100516101205160601c6101405160601c610160516101805160601c6101a05160601c6101c05160f81c6133a162000b0e6000396000818161134c01526113a50152600061124401526000611223015260008181611b7801528181611c5301528181611cf70152611dba015260008181611ba801528181611c8001528181611d240152611de001526000611606015260008181610e1901528181610f26015281816114c9015281816121f001526124d501526000818161033001528181610be401528181610ca2015281816122c1015261237e0152600081816102c701528181610aec01528181610df601528181610ecf015281816114a60152818161218a015281816121cd015281816124b2015261252c0152600081816101d6015281816103b90152818161044b015281816105c90152818161064301528181610705015281816108130152818161091501528181610a3101526110a101526000818161021d0152818161042301528181610510015281816105a70152818161062101528181610760015281816107f10152818161097201528181610a0f01528181610b6201528181610cf701528181610fbb0152818161106a0152818161126f0152818161131d015281816114f401528181611564015281816117d301526118e201526133a16000f3fe608060405234801561001057600080fd5b50600436106101375760003560e01c80638da5cb5b116100b8578063c45a01551161007c578063c45a0155146102c2578063d9253c2d146102e9578063daa656de146102fc578063e8bd73a51461030f578063f2fde38b14610318578063f4734b0c1461032b57600080fd5b80638da5cb5b14610265578063a42dce8014610276578063a7edd48c14610289578063ba6275ab1461029c578063c415b95c146102af57600080fd5b80636b2ace87116100ff5780636b2ace87146101d1578063715018a614610210578063747efea11461021857806374ceb2671461023f5780637f8661a11461025257600080fd5b806318fccc761461013c5780632e1a7d4d146101625780635066ebdd146101755780635ce6c327146101a85780636939aaf5146101bc575b600080fd5b61014f61014a366004612fa7565b610352565b6040519081526020015b60405180910390f35b61014f610170366004612f75565b6106a3565b610198610183366004612d89565b60026020526000908152604090205460ff1681565b6040519015158152602001610159565b60005461019890600160a01b900460ff1681565b6101cf6101ca366004612f75565b61083d565b005b6101f87f000000000000000000000000000000000000000000000000000000000000000081565b6040516001600160a01b039091168152602001610159565b6101cf610849565b6101f87f000000000000000000000000000000000000000000000000000000000000000081565b6101cf61024d366004612dc3565b61087f565b61014f610260366004612f75565b610908565b6000546001600160a01b03166101f8565b6101cf610284366004612d89565b610a6f565b61014f610297366004612fa7565b610abb565b6101cf6102aa366004612fcc565b611018565b6003546101f8906001600160a01b031681565b6101f87f000000000000000000000000000000000000000000000000000000000000000081565b6101986102f7366004612dfc565b611103565b61014f61030a366004612f75565b6111ed565b61014f60015481565b6101cf610326366004612d89565b61195c565b6101f87f000000000000000000000000000000000000000000000000000000000000000081565b60008054600160a01b900460ff16156103ae5760405162461bcd60e51b815260206004820152601960248201527810995b9d1bd09bde0814dd1c985d1959de4e88195e1a5d1959603a1b60448201526064015b60405180910390fd5b336001600160a01b037f000000000000000000000000000000000000000000000000000000000000000016146103f65760405162461bcd60e51b81526004016103a59061309f565b6001600160a01b038216301480156104d15750600154604051634ffe34db60e01b81526001600160a01b037f0000000000000000000000000000000000000000000000000000000000000000811660048301527f00000000000000000000000000000000000000000000000000000000000000001690634ffe34db90602401604080518083038186803b15801561048c57600080fd5b505afa1580156104a0573d6000803e3d6000fd5b505050506040513d601f19601f820116820180604052508101906104c49190612eca565b516001600160801b031611155b80156104dd5750600083115b156106995760006104ed84611b69565b6040516370a0823160e01b81523060048201529091506000906001600160a01b037f000000000000000000000000000000000000000000000000000000000000000016906370a082319060240160206040518083038186803b15801561055257600080fd5b505afa158015610566573d6000803e3d6000fd5b505050506040513d601f19601f8201168201806040525081019061058a9190612f8e565b9050600082126105f75780156105ee576105ee6001600160a01b037f0000000000000000000000000000000000000000000000000000000000000000167f000000000000000000000000000000000000000000000000000000000000000083611c14565b915061069d9050565b801561069157600061060982846131b2565b9050600081131561067e576106686001600160a01b037f0000000000000000000000000000000000000000000000000000000000000000167f000000000000000000000000000000000000000000000000000000000000000083611c14565b610679610674846132e9565b611c44565b610687565b61068782611c44565b925061069d915050565b50905061069d565b5060005b92915050565b60008054600160a01b900460ff16156106fa5760405162461bcd60e51b815260206004820152601960248201527810995b9d1bd09bde0814dd1c985d1959de4e88195e1a5d1959603a1b60448201526064016103a5565b336001600160a01b037f000000000000000000000000000000000000000000000000000000000000000016146107425760405162461bcd60e51b81526004016103a59061309f565b61074b82611ce8565b6040516370a0823160e01b81523060048201527f00000000000000000000000000000000000000000000000000000000000000006001600160a01b0316906370a082319060240160206040518083038186803b1580156107aa57600080fd5b505afa1580156107be573d6000803e3d6000fd5b505050506040513d601f19601f820116820180604052508101906107e29190612f8e565b90506108386001600160a01b037f0000000000000000000000000000000000000000000000000000000000000000167f000000000000000000000000000000000000000000000000000000000000000083611c14565b919050565b61084681611c44565b50565b6000546001600160a01b031633146108735760405162461bcd60e51b81526004016103a5906130d4565b61087d6000611d5b565b565b6000546001600160a01b031633146108a95760405162461bcd60e51b81526004016103a5906130d4565b6001600160a01b038216600081815260026020908152604091829020805460ff191685151590811790915591519182527fb08a78f53a7fe017d5ca8c8fcdbf06ffa2c31f2ab668378a17700d9fc558717e910160405180910390a25050565b6000336001600160a01b037f000000000000000000000000000000000000000000000000000000000000000016146109525760405162461bcd60e51b81526004016103a59061309f565b61095a611dab565b6040516370a0823160e01b81523060048201526000907f00000000000000000000000000000000000000000000000000000000000000006001600160a01b0316906370a082319060240160206040518083038186803b1580156109bc57600080fd5b505afa1580156109d0573d6000803e3d6000fd5b505050506040513d601f19601f820116820180604052508101906109f49190612f8e565b9050610a00838261324c565b9150610a566001600160a01b037f0000000000000000000000000000000000000000000000000000000000000000167f000000000000000000000000000000000000000000000000000000000000000083611c14565b506000805460ff60a01b1916600160a01b179055919050565b6000546001600160a01b03163314610a995760405162461bcd60e51b81526004016103a5906130d4565b600380546001600160a01b0319166001600160a01b0392909216919091179055565b3360009081526002602052604081205460ff16610aea5760405162461bcd60e51b81526004016103a590613109565b7f00000000000000000000000000000000000000000000000000000000000000006001600160a01b0316610b605760405162461bcd60e51b815260206004820152601e60248201527f42656e746f426f782053747261746567793a2063616e6e6f742073776170000060448201526064016103a5565b7f00000000000000000000000000000000000000000000000000000000000000006001600160a01b0316826001600160a01b03161415610be25760405162461bcd60e51b815260206004820152601f60248201527f42656e746f426f782053747261746567793a20696e76616c696420737761700060448201526064016103a5565b7f00000000000000000000000000000000000000000000000000000000000000006001600160a01b03161515600081610c1c576002610c1f565b60035b60ff1667ffffffffffffffff811115610c3a57610c3a613332565b604051908082528060200260200182016040528015610c63578160200160208202803683370190505b5090508381600081518110610c7a57610c7a61331c565b60200260200101906001600160a01b031690816001600160a01b0316815250508115610cf5577f000000000000000000000000000000000000000000000000000000000000000081600181518110610cd457610cd461331c565b60200260200101906001600160a01b031690816001600160a01b0316815250505b7f00000000000000000000000000000000000000000000000000000000000000008160018351610d25919061328b565b81518110610d3557610d3561331c565b60200260200101906001600160a01b031690816001600160a01b031681525050600081600081518110610d6a57610d6a61331c565b60209081029190910101516040516370a0823160e01b81523060048201526001600160a01b03909116906370a082319060240160206040518083038186803b158015610db557600080fd5b505afa158015610dc9573d6000803e3d6000fd5b505050506040513d601f19601f82011682018060405250810190610ded9190612f8e565b90506000610e3d7f000000000000000000000000000000000000000000000000000000000000000083857f0000000000000000000000000000000000000000000000000000000000000000611e46565b90508060018251610e4e919061328b565b81518110610e5e57610e5e61331c565b6020026020010151945086851015610ec75760405162461bcd60e51b815260206004820152602660248201527f42656e746f426f782053747261746567793a20696e73756666696369656e74206044820152651bdd5d1c1d5d60d21b60648201526084016103a5565b610f98610f4a7f000000000000000000000000000000000000000000000000000000000000000085600081518110610f0157610f0161331c565b602002602001015186600181518110610f1c57610f1c61331c565b60200260200101517f0000000000000000000000000000000000000000000000000000000000000000611fd3565b82600081518110610f5d57610f5d61331c565b602002602001015185600081518110610f7857610f7861331c565b60200260200101516001600160a01b0316611c149092919063ffffffff16565b610fa3818430612091565b60408051838152602081018790526001600160a01b037f00000000000000000000000000000000000000000000000000000000000000008116929089169133917f3b644720db133e4e05b302a56bdb46867109debe30c44b4f25566b3c41ed627b910160405180910390a45050505092915050565b3360009081526002602052604090205460ff166110475760405162461bcd60e51b81526004016103a590613109565b83156110535760018490555b6040516366c6bb0b60e01b81526001600160a01b037f0000000000000000000000000000000000000000000000000000000000000000811660048301528415156024830152604482018490527f000000000000000000000000000000000000000000000000000000000000000016906366c6bb0b90606401600060405180830381600087803b1580156110e557600080fd5b505af11580156110f9573d6000803e3d6000fd5b5050505050505050565b600080546001600160a01b0316331461112e5760405162461bcd60e51b81526004016103a5906130d4565b600054600160a01b900460ff166111875760405162461bcd60e51b815260206004820152601d60248201527f42656e746f426f782053747261746567793a206e6f742065786974656400000060448201526064016103a5565b836001600160a01b031683836040516111a09190613070565b60006040518083038185875af1925050503d80600081146111dd576040519150601f19603f3d011682016040523d82523d6000602084013e6111e2565b606091505b509095945050505050565b3360009081526002602052604081205460ff1661121c5760405162461bcd60e51b81526004016103a590613109565b60006112687f00000000000000000000000000000000000000000000000000000000000000007f00000000000000000000000000000000000000000000000000000000000000006122bd565b90506000807f00000000000000000000000000000000000000000000000000000000000000006001600160a01b0316630902f1ac6040518163ffffffff1660e01b815260040160606040518083038186803b1580156112c657600080fd5b505afa1580156112da573d6000803e3d6000fd5b505050506040513d601f19601f820116820180604052508101906112fe9190612f25565b506001600160701b031691506001600160701b031691506000806113417f0000000000000000000000000000000000000000000000000000000000000000612573565b91509150600061137d7f00000000000000000000000000000000000000000000000000000000000000006113755784611377565b855b87612667565b60408051600280825260608201835292935060009290916020830190803683370190505090507f0000000000000000000000000000000000000000000000000000000000000000156114365783816000815181106113dd576113dd61331c565b60200260200101906001600160a01b031690816001600160a01b03168152505082816001815181106114115761141161331c565b60200260200101906001600160a01b031690816001600160a01b03168152505061149f565b828160008151811061144a5761144a61331c565b60200260200101906001600160a01b031690816001600160a01b031681525050838160018151811061147e5761147e61331c565b60200260200101906001600160a01b031690816001600160a01b0316815250505b60006114ed7f000000000000000000000000000000000000000000000000000000000000000084847f0000000000000000000000000000000000000000000000000000000000000000611e46565b90506115417f0000000000000000000000000000000000000000000000000000000000000000826000815181106115265761152661331c565b602002602001015184600081518110610f7857610f7861331c565b61154c818330612091565b6040516370a0823160e01b81523060048201526000907f00000000000000000000000000000000000000000000000000000000000000006001600160a01b0316906370a082319060240160206040518083038186803b1580156115ae57600080fd5b505afa1580156115c2573d6000803e3d6000fd5b505050506040513d601f19601f820116820180604052508101906115e69190612f8e565b6040516370a0823160e01b81523060048201529091506001600160a01b037f000000000000000000000000000000000000000000000000000000000000000081169163e8e3370091899189918316906370a082319060240160206040518083038186803b15801561165657600080fd5b505afa15801561166a573d6000803e3d6000fd5b505050506040513d601f19601f8201168201806040525081019061168e9190612f8e565b6040516370a0823160e01b81523060048201526001600160a01b038b16906370a082319060240160206040518083038186803b1580156116cd57600080fd5b505afa1580156116e1573d6000803e3d6000fd5b505050506040513d601f19601f820116820180604052508101906117059190612f8e565b6040516001600160e01b031960e087901b1681526001600160a01b0394851660048201529390921660248401526044830152606482015260016084820181905260a48201523060c482015260001960e482015261010401606060405180830381600087803b15801561177657600080fd5b505af115801561178a573d6000803e3d6000fd5b505050506040513d601f19601f820116820180604052508101906117ae9190613016565b50506040516370a0823160e01b81523060048201526000915082906001600160a01b037f000000000000000000000000000000000000000000000000000000000000000016906370a082319060240160206040518083038186803b15801561181557600080fd5b505afa158015611829573d6000803e3d6000fd5b505050506040513d601f19601f8201168201806040525081019061184d9190612f8e565b611857919061328b565b90508b8110156118a95760405162461bcd60e51b815260206004820152601760248201527f494e53554646494349454e545f414d4f554e545f4f555400000000000000000060448201526064016103a5565b600060646118b8600a8461322d565b6118c2919061320b565b90506118ce818361328b565b600354909c5061190b906001600160a01b037f00000000000000000000000000000000000000000000000000000000000000008116911683611c14565b60408051838152602081018e90529081018290527ffac4ceeb73d90e5d855cf54c2fc52267e49df26636cde8d7ab271952cd081b779060600160405180910390a15050505050505050505050919050565b6000546001600160a01b031633146119865760405162461bcd60e51b81526004016103a5906130d4565b6001600160a01b0381166119eb5760405162461bcd60e51b815260206004820152602660248201527f4f776e61626c653a206e6577206f776e657220697320746865207a65726f206160448201526564647265737360d01b60648201526084016103a5565b61084681611d5b565b801580611a7d5750604051636eb1769f60e11b81523060048201526001600160a01b03838116602483015284169063dd62ed3e9060440160206040518083038186803b158015611a4357600080fd5b505afa158015611a57573d6000803e3d6000fd5b505050506040513d601f19601f82011682018060405250810190611a7b9190612f8e565b155b611ae85760405162461bcd60e51b815260206004820152603660248201527f5361666545524332303a20617070726f76652066726f6d206e6f6e2d7a65726f60448201527520746f206e6f6e2d7a65726f20616c6c6f77616e636560501b60648201526084016103a5565b6040516001600160a01b038316602482015260448101829052611b4b90849063095ea7b360e01b906064015b60408051601f198184030181529190526020810180516001600160e01b03166001600160e01b0319909316929092179091526126c2565b505050565b6060611b5f8484600085612794565b90505b9392505050565b604051630441a3e760e41b81527f00000000000000000000000000000000000000000000000000000000000000006004820152600060248201819052907f00000000000000000000000000000000000000000000000000000000000000006001600160a01b03169063441a3e7090604401600060405180830381600087803b158015611bf457600080fd5b505af1158015611c08573d6000803e3d6000fd5b50600095945050505050565b6040516001600160a01b038316602482015260448101829052611b4b90849063a9059cbb60e01b90606401611b14565b604051631c57762b60e31b81527f00000000000000000000000000000000000000000000000000000000000000006004820152602481018290527f00000000000000000000000000000000000000000000000000000000000000006001600160a01b03169063e2bbb158906044015b600060405180830381600087803b158015611ccd57600080fd5b505af1158015611ce1573d6000803e3d6000fd5b5050505050565b604051630441a3e760e41b81527f00000000000000000000000000000000000000000000000000000000000000006004820152602481018290527f00000000000000000000000000000000000000000000000000000000000000006001600160a01b03169063441a3e7090604401611cb3565b600080546001600160a01b038381166001600160a01b0319831681178455604051919092169283917f8be0079c531659141344cd1fd0a4f28419497f9722a3daafe3b4186f6b6457e09190a35050565b604051632989754760e11b81527f000000000000000000000000000000000000000000000000000000000000000060048201527f00000000000000000000000000000000000000000000000000000000000000006001600160a01b031690635312ea8e90602401600060405180830381600087803b158015611e2c57600080fd5b505af1158015611e40573d6000803e3d6000fd5b50505050565b6060600283511015611e9a5760405162461bcd60e51b815260206004820152601e60248201527f556e697377617056324c6962726172793a20494e56414c49445f50415448000060448201526064016103a5565b825167ffffffffffffffff811115611eb457611eb4613332565b604051908082528060200260200182016040528015611edd578160200160208202803683370190505b5090508381600081518110611ef457611ef461331c565b60200260200101818152505060005b60018451611f11919061328b565b811015611fca57600080611f6588878581518110611f3157611f3161331c565b602002602001015188866001611f4791906131f3565b81518110611f5757611f5761331c565b6020026020010151886128bc565b91509150611f8d848481518110611f7e57611f7e61331c565b60200260200101518383612997565b84611f998560016131f3565b81518110611fa957611fa961331c565b60200260200101818152505050508080611fc2906132ce565b915050611f03565b50949350505050565b6000806000611fe28686612aac565b6040516bffffffffffffffffffffffff19606084811b8216602084015283901b16603482015291935091508790604801604051602081830303815290604052805190602001208560405160200161206e939291906001600160f81b0319815260609390931b6bffffffffffffffffffffffff191660018401526015830191909152603582015260550190565b60408051601f198184030181529190528051602090910120979650505050505050565b60005b600183516120a2919061328b565b811015611e40576000808483815181106120be576120be61331c565b6020026020010151858460016120d491906131f3565b815181106120e4576120e461331c565b6020026020010151915091506000816001600160a01b0316836001600160a01b0316106121115781612113565b825b90506000876121238660016131f3565b815181106121335761213361331c565b60200260200101519050600080836001600160a01b0316866001600160a01b03161461216157826000612165565b6000835b91509150600060028a51612179919061328b565b881061218557886121c6565b6121c67f0000000000000000000000000000000000000000000000000000000000000000878c6121b68c60026131f3565b81518110610f1c57610f1c61331c565b90506122147f000000000000000000000000000000000000000000000000000000000000000088887f0000000000000000000000000000000000000000000000000000000000000000611fd3565b6001600160a01b031663022c0d9f84848460006040519080825280601f01601f191660200182016040528015612251576020820181803683370190505b506040518563ffffffff1660e01b8152600401612271949392919061314a565b600060405180830381600087803b15801561228b57600080fd5b505af115801561229f573d6000803e3d6000fd5b505050505050505050505080806122b5906132ce565b915050612094565b60007f00000000000000000000000000000000000000000000000000000000000000006001600160a01b0316151581816122f85760026122fb565b60035b60ff1667ffffffffffffffff81111561231657612316613332565b60405190808252806020026020018201604052801561233f578160200160208202803683370190505b50905084816000815181106123565761235661331c565b60200260200101906001600160a01b031690816001600160a01b03168152505081156123d1577f0000000000000000000000000000000000000000000000000000000000000000816001815181106123b0576123b061331c565b60200260200101906001600160a01b031690816001600160a01b0316815250505b8381600183516123e1919061328b565b815181106123f1576123f161331c565b60200260200101906001600160a01b031690816001600160a01b0316815250506000816000815181106124265761242661331c565b60209081029190910101516040516370a0823160e01b81523060048201526001600160a01b03909116906370a082319060240160206040518083038186803b15801561247157600080fd5b505afa158015612485573d6000803e3d6000fd5b505050506040513d601f19601f820116820180604052508101906124a99190612f8e565b905060006124f97f000000000000000000000000000000000000000000000000000000000000000083857f0000000000000000000000000000000000000000000000000000000000000000611e46565b9050806001825161250a919061328b565b8151811061251a5761251a61331c565b6020026020010151945061255e610f4a7f000000000000000000000000000000000000000000000000000000000000000085600081518110610f0157610f0161331c565b612569818430612091565b5050505092915050565b6000806000839050806001600160a01b0316630dfe16816040518163ffffffff1660e01b815260040160206040518083038186803b1580156125b457600080fd5b505afa1580156125c8573d6000803e3d6000fd5b505050506040513d601f19601f820116820180604052508101906125ec9190612da6565b9250806001600160a01b031663d21220a76040518163ffffffff1660e01b815260040160206040518083038186803b15801561262757600080fd5b505afa15801561263b573d6000803e3d6000fd5b505050506040513d601f19601f8201168201806040525081019061265f9190612da6565b915050915091565b60006107ca612678846107cd61322d565b6126ae61268886623cda2961322d565b61269586623cda2061322d565b61269f91906131f3565b6126a9908761322d565b612ba4565b6126b8919061328b565b611b62919061320b565b6000612717826040518060400160405280602081526020017f5361666545524332303a206c6f772d6c6576656c2063616c6c206661696c6564815250856001600160a01b0316611b509092919063ffffffff16565b805190915015611b4b57808060200190518101906127359190612ead565b611b4b5760405162461bcd60e51b815260206004820152602a60248201527f5361666545524332303a204552433230206f7065726174696f6e20646964206e6044820152691bdd081cdd58d8d9595960b21b60648201526084016103a5565b6060824710156127f55760405162461bcd60e51b815260206004820152602660248201527f416464726573733a20696e73756666696369656e742062616c616e636520666f6044820152651c8818d85b1b60d21b60648201526084016103a5565b843b6128435760405162461bcd60e51b815260206004820152601d60248201527f416464726573733a2063616c6c20746f206e6f6e2d636f6e747261637400000060448201526064016103a5565b600080866001600160a01b0316858760405161285f9190613070565b60006040518083038185875af1925050503d806000811461289c576040519150601f19603f3d011682016040523d82523d6000602084013e6128a1565b606091505b50915091506128b1828286612d22565b979650505050505050565b60008060006128cb8686612aac565b5090506000806128dd89898989611fd3565b6001600160a01b0316630902f1ac6040518163ffffffff1660e01b815260040160606040518083038186803b15801561291557600080fd5b505afa158015612929573d6000803e3d6000fd5b505050506040513d601f19601f8201168201806040525081019061294d9190612f25565b506001600160701b031691506001600160701b03169150826001600160a01b0316886001600160a01b031614612984578082612987565b81815b909a909950975050505050505050565b60008084116129fc5760405162461bcd60e51b815260206004820152602b60248201527f556e697377617056324c6962726172793a20494e53554646494349454e545f4960448201526a1394155517d05353d5539560aa1b60648201526084016103a5565b600083118015612a0c5750600082115b612a695760405162461bcd60e51b815260206004820152602860248201527f556e697377617056324c6962726172793a20494e53554646494349454e545f4c604482015267495155494449545960c01b60648201526084016103a5565b6000612a77856103e561322d565b90506000612a85848361322d565b9050600082612a96876103e861322d565b612aa091906131f3565b90506128b1818361320b565b600080826001600160a01b0316846001600160a01b03161415612b1f5760405162461bcd60e51b815260206004820152602560248201527f556e697377617056324c6962726172793a204944454e544943414c5f41444452604482015264455353455360d81b60648201526084016103a5565b826001600160a01b0316846001600160a01b031610612b3f578284612b42565b83835b90925090506001600160a01b038216612b9d5760405162461bcd60e51b815260206004820152601e60248201527f556e697377617056324c6962726172793a205a45524f5f41444452455353000060448201526064016103a5565b9250929050565b600081612bb357506000919050565b816001600160801b8210612bcc5760809190911c9060401b5b680100000000000000008210612be75760409190911c9060201b5b6401000000008210612bfe5760209190911c9060101b5b620100008210612c135760109190911c9060081b5b6101008210612c275760089190911c9060041b5b60108210612c3a5760049190911c9060021b5b60088210612c465760011b5b6001612c52828661320b565b612c5c90836131f3565b901c90506001612c6c828661320b565b612c7690836131f3565b901c90506001612c86828661320b565b612c9090836131f3565b901c90506001612ca0828661320b565b612caa90836131f3565b901c90506001612cba828661320b565b612cc490836131f3565b901c90506001612cd4828661320b565b612cde90836131f3565b901c90506001612cee828661320b565b612cf890836131f3565b901c90506000612d08828661320b565b9050808210612d175780612d19565b815b95945050505050565b60608315612d31575081611b62565b825115612d415782518084602001fd5b8160405162461bcd60e51b81526004016103a5919061308c565b80516001600160701b038116811461083857600080fd5b80516001600160801b038116811461083857600080fd5b600060208284031215612d9b57600080fd5b8135611b6281613348565b600060208284031215612db857600080fd5b8151611b6281613348565b60008060408385031215612dd657600080fd5b8235612de181613348565b91506020830135612df18161335d565b809150509250929050565b600080600060608486031215612e1157600080fd5b8335612e1c81613348565b92506020848101359250604085013567ffffffffffffffff80821115612e4157600080fd5b818701915087601f830112612e5557600080fd5b813581811115612e6757612e67613332565b612e79601f8201601f19168501613181565b91508082528884828501011115612e8f57600080fd5b80848401858401376000848284010152508093505050509250925092565b600060208284031215612ebf57600080fd5b8151611b628161335d565b600060408284031215612edc57600080fd5b6040516040810181811067ffffffffffffffff82111715612eff57612eff613332565b604052612f0b83612d72565b8152612f1960208401612d72565b60208201529392505050565b600080600060608486031215612f3a57600080fd5b612f4384612d5b565b9250612f5160208501612d5b565b9150604084015163ffffffff81168114612f6a57600080fd5b809150509250925092565b600060208284031215612f8757600080fd5b5035919050565b600060208284031215612fa057600080fd5b5051919050565b60008060408385031215612fba57600080fd5b823591506020830135612df181613348565b60008060008060808587031215612fe257600080fd5b843593506020850135612ff48161335d565b925060408501359150606085013561300b8161335d565b939692955090935050565b60008060006060848603121561302b57600080fd5b8351925060208401519150604084015190509250925092565b6000815180845261305c8160208601602086016132a2565b601f01601f19169290920160200192915050565b600082516130828184602087016132a2565b9190910192915050565b602081526000611b626020830184613044565b6020808252818101527f42656e746f426f782053747261746567793a206f6e6c792042656e746f426f78604082015260600190565b6020808252818101527f4f776e61626c653a2063616c6c6572206973206e6f7420746865206f776e6572604082015260600190565b60208082526021908201527f42656e746f426f782053747261746567793a206f6e6c79204578656375746f726040820152607360f81b606082015260800190565b84815283602082015260018060a01b03831660408201526080606082015260006131776080830184613044565b9695505050505050565b604051601f8201601f1916810167ffffffffffffffff811182821017156131aa576131aa613332565b604052919050565b600080821280156001600160ff1b03849003851316156131d4576131d4613306565b600160ff1b83900384128116156131ed576131ed613306565b50500190565b6000821982111561320657613206613306565b500190565b60008261322857634e487b7160e01b600052601260045260246000fd5b500490565b600081600019048311821515161561324757613247613306565b500290565b60008083128015600160ff1b85018412161561326a5761326a613306565b6001600160ff1b038401831381161561328557613285613306565b50500390565b60008282101561329d5761329d613306565b500390565b60005b838110156132bd5781810151838201526020016132a5565b83811115611e405750506000910152565b60006000198214156132e2576132e2613306565b5060010190565b6000600160ff1b8214156132ff576132ff613306565b5060000390565b634e487b7160e01b600052601160045260246000fd5b634e487b7160e01b600052603260045260246000fd5b634e487b7160e01b600052604160045260246000fd5b6001600160a01b038116811461084657600080fd5b801515811461084657600080fdfea2646970667358221220f2c823ceec7b5b50d582040f38fe0ffe3184c9036f555e1679ecc1242aa1f36c64736f6c63430008070033",
  "devdoc": {
    "kind": "dev",
    "methods": {
      "afterExit(address,uint256,bytes)": {
        "details": "After exited, the owner can perform ANY call. This is to rescue any funds that didn't get released during exit or got earned afterwards due to vesting or airdrops, etc. "
      },
      "constructor": {
        "params": {
          "_bentoBox": "BentoBox address.",
          "_bridgeToken": "An intermediary token for swapping any rewards into it before swapping it to _inputPairToken",
          "_factory": "SushiSwap factory.",
          "_pairCodeHash": "This hash is used to calculate the address of a uniswap-like pool by providing only the addresses of the two ERC20 tokens.",
          "_strategyExecutor": "an EOA that will execute the safeHarvest function.",
          "_strategyToken": "Address of the underlying LP token the strategy invests.",
          "_usePairToken0": "When true, the _rewardToken will be swapped to the pair's token0 for one-sided liquidity providing, otherwise, the pair's token1."
        }
      },
      "exit(uint256)": {
        "details": "do not use isActive modifier here; allow bentobox to call strategy.exit() multiple times",
        "params": {
          "balance": "The amount of tokens the caller thinks it has invested."
        },
        "returns": {
          "amountAdded": "The delta (+profit or -loss) that occured in contrast to `balance`."
        }
      },
      "harvest(uint256,address)": {
        "details": "Only BentoBox can call harvest on this strategy.Ensures that (1) the caller was this contract (called through the safeHarvest function) and (2) that we are not being frontrun by a large BentoBox deposit when harvesting profits. ",
        "params": {
          "balance": "The amount of tokens the caller thinks it has invested.",
          "sender": "The address of the initiator of this transaction. Can be used for reimbursements, etc."
        },
        "returns": {
          "_0": "The delta (+profit or -loss) that occured in contrast to `balance`."
        }
      },
      "owner()": {
        "details": "Returns the address of the current owner."
      },
      "renounceOwnership()": {
        "details": "Leaves the contract without owner. It will not be possible to call `onlyOwner` functions anymore. Can only be called by the current owner. NOTE: Renouncing ownership will leave the contract without an owner, thereby removing any functionality that is only available to the owner."
      },
      "safeHarvest(uint256,bool,uint256,bool)": {
        "details": "maxBalance can be set to 0 to keep the previous value.maxChangeAmount can be set to 0 to allow for full rebalancing.",
        "params": {
          "harvestRewards": "If we want to claim any accrued reward tokens",
          "maxBalance": "The maximum balance of the underlying token that is allowed to be in BentoBox.",
          "maxChangeAmount": "When rebalancing - the maximum amount that will be deposited to or withdrawn from a strategy to BentoBox.",
          "rebalance": "Whether BentoBox should rebalance the strategy assets to acheive it's target allocation."
        }
      },
      "skim(uint256)": {
        "params": {
          "amount": "The amount of tokens to invest."
        }
      },
      "transferOwnership(address)": {
        "details": "Transfers ownership of the contract to a new account (`newOwner`). Can only be called by the current owner."
      },
      "withdraw(uint256)": {
        "details": "The `actualAmount` should be very close to the amount. The difference should NOT be used to report a loss. That's what harvest is for.",
        "params": {
          "amount": "The requested amount the caller wants to withdraw."
        },
        "returns": {
          "actualAmount": "The real amount that is withdrawn."
        }
      }
    },
    "version": 1
  },
  "userdoc": {
    "kind": "user",
    "methods": {
      "exit(uint256)": {
        "notice": "Withdraw all assets in the safest way possible. This shouldn't fail."
      },
      "harvest(uint256,address)": {
        "notice": "Harvest any profits made converted to the asset and pass them to the caller."
      },
      "safeHarvest(uint256,bool,uint256,bool)": {
        "notice": "Harvest profits while preventing a sandwich attack exploit."
      },
      "skim(uint256)": {
        "notice": "Send the assets to the Strategy and call skim to invest them."
      },
      "swapExactTokensForUnderlying(uint256,address)": {
        "notice": "Swap some tokens in the contract for the underlying and deposits them to address(this)"
      },
      "swapToLP(uint256)": {
        "notice": "Swap some tokens in the contract for the underlying and deposits them to address(this)"
      },
      "withdraw(uint256)": {
        "notice": "Withdraw assets. The returned amount can differ from the requested amount due to rounding."
      }
    },
    "version": 1
  },
  "storageLayout": {
    "storage": [
      {
        "astId": 7,
        "contract": "contracts/strategies/LPStrategy.sol:LPStrategy",
        "label": "_owner",
        "offset": 0,
        "slot": "0",
        "type": "t_address"
      },
      {
        "astId": 1322,
        "contract": "contracts/strategies/LPStrategy.sol:LPStrategy",
        "label": "exited",
        "offset": 20,
        "slot": "0",
        "type": "t_bool"
      },
      {
        "astId": 1325,
        "contract": "contracts/strategies/LPStrategy.sol:LPStrategy",
        "label": "maxBentoBoxBalance",
        "offset": 0,
        "slot": "1",
        "type": "t_uint256"
      },
      {
        "astId": 1330,
        "contract": "contracts/strategies/LPStrategy.sol:LPStrategy",
        "label": "strategyExecutors",
        "offset": 0,
        "slot": "2",
        "type": "t_mapping(t_address,t_bool)"
      },
      {
        "astId": 4160,
        "contract": "contracts/strategies/LPStrategy.sol:LPStrategy",
        "label": "feeCollector",
        "offset": 0,
        "slot": "3",
        "type": "t_address"
      }
    ],
    "types": {
      "t_address": {
        "encoding": "inplace",
        "label": "address",
        "numberOfBytes": "20"
      },
      "t_bool": {
        "encoding": "inplace",
        "label": "bool",
        "numberOfBytes": "1"
      },
      "t_mapping(t_address,t_bool)": {
        "encoding": "mapping",
        "key": "t_address",
        "label": "mapping(address => bool)",
        "numberOfBytes": "32",
        "value": "t_bool"
      },
      "t_uint256": {
        "encoding": "inplace",
        "label": "uint256",
        "numberOfBytes": "32"
      }
    }
  }
}