{
  "address": "0x08B918dD18E087893bb9d711d9E0BBaA7a63Ef63",
  "abi": [
    {
      "inputs": [
        {
          "internalType": "address",
          "name": "_strategyToken",
          "type": "address"
        },
        {
          "internalType": "address",
          "name": "_bentoBox",
          "type": "address"
        },
        {
          "internalType": "address",
          "name": "_factory",
          "type": "address"
        },
        {
          "internalType": "address",
          "name": "_bridgeToken",
          "type": "address"
        },
        {
          "internalType": "address",
          "name": "_strategyExecutor",
          "type": "address"
        },
        {
          "internalType": "contract ICakeChef",
          "name": "_masterchef",
          "type": "address"
        },
        {
          "internalType": "bytes32",
          "name": "_pairCodeHash",
          "type": "bytes32"
        }
      ],
      "stateMutability": "nonpayable",
      "type": "constructor"
    },
    {
      "anonymous": false,
      "inputs": [
        {
          "indexed": true,
          "internalType": "address",
          "name": "server",
          "type": "address"
        },
        {
          "indexed": true,
          "internalType": "address",
          "name": "token0",
          "type": "address"
        },
        {
          "indexed": true,
          "internalType": "address",
          "name": "token1",
          "type": "address"
        },
        {
          "indexed": false,
          "internalType": "uint256",
          "name": "amount0",
          "type": "uint256"
        },
        {
          "indexed": false,
          "internalType": "uint256",
          "name": "amount1",
          "type": "uint256"
        }
      ],
      "name": "LogConvert",
      "type": "event"
    },
    {
      "anonymous": false,
      "inputs": [
        {
          "indexed": true,
          "internalType": "address",
          "name": "executor",
          "type": "address"
        },
        {
          "indexed": false,
          "internalType": "bool",
          "name": "allowed",
          "type": "bool"
        }
      ],
      "name": "LogSetStrategyExecutor",
      "type": "event"
    },
    {
      "anonymous": false,
      "inputs": [
        {
          "indexed": false,
          "internalType": "uint256",
          "name": "total",
          "type": "uint256"
        },
        {
          "indexed": false,
          "internalType": "uint256",
          "name": "strategyAmount",
          "type": "uint256"
        },
        {
          "indexed": false,
          "internalType": "uint256",
          "name": "feeAmount",
          "type": "uint256"
        }
      ],
      "name": "LpMinted",
      "type": "event"
    },
    {
      "anonymous": false,
      "inputs": [
        {
          "indexed": true,
          "internalType": "address",
          "name": "previousOwner",
          "type": "address"
        },
        {
          "indexed": true,
          "internalType": "address",
          "name": "newOwner",
          "type": "address"
        }
      ],
      "name": "OwnershipTransferred",
      "type": "event"
    },
    {
      "inputs": [
        {
          "internalType": "address",
          "name": "to",
          "type": "address"
        },
        {
          "internalType": "uint256",
          "name": "value",
          "type": "uint256"
        },
        {
          "internalType": "bytes",
          "name": "data",
          "type": "bytes"
        }
      ],
      "name": "afterExit",
      "outputs": [
        {
          "internalType": "bool",
          "name": "success",
          "type": "bool"
        }
      ],
      "stateMutability": "nonpayable",
      "type": "function"
    },
    {
      "inputs": [],
      "name": "bentoBox",
      "outputs": [
        {
          "internalType": "address",
          "name": "",
          "type": "address"
        }
      ],
      "stateMutability": "view",
      "type": "function"
    },
    {
      "inputs": [],
      "name": "bridgeToken",
      "outputs": [
        {
          "internalType": "address",
          "name": "",
          "type": "address"
        }
      ],
      "stateMutability": "view",
      "type": "function"
    },
    {
      "inputs": [
        {
          "internalType": "uint256",
          "name": "balance",
          "type": "uint256"
        }
      ],
      "name": "exit",
      "outputs": [
        {
          "internalType": "int256",
          "name": "amountAdded",
          "type": "int256"
        }
      ],
      "stateMutability": "nonpayable",
      "type": "function"
    },
    {
      "inputs": [],
      "name": "exited",
      "outputs": [
        {
          "internalType": "bool",
          "name": "",
          "type": "bool"
        }
      ],
      "stateMutability": "view",
      "type": "function"
    },
    {
      "inputs": [],
      "name": "factory",
      "outputs": [
        {
          "internalType": "address",
          "name": "",
          "type": "address"
        }
      ],
      "stateMutability": "view",
      "type": "function"
    },
    {
      "inputs": [],
      "name": "feeCollector",
      "outputs": [
        {
          "internalType": "address",
          "name": "",
          "type": "address"
        }
      ],
      "stateMutability": "view",
      "type": "function"
    },
    {
      "inputs": [
        {
          "internalType": "uint256",
          "name": "balance",
          "type": "uint256"
        },
        {
          "internalType": "address",
          "name": "sender",
          "type": "address"
        }
      ],
      "name": "harvest",
      "outputs": [
        {
          "internalType": "int256",
          "name": "",
          "type": "int256"
        }
      ],
      "stateMutability": "nonpayable",
      "type": "function"
    },
    {
      "inputs": [],
      "name": "maxBentoBoxBalance",
      "outputs": [
        {
          "internalType": "uint256",
          "name": "",
          "type": "uint256"
        }
      ],
      "stateMutability": "view",
      "type": "function"
    },
    {
      "inputs": [],
      "name": "owner",
      "outputs": [
        {
          "internalType": "address",
          "name": "",
          "type": "address"
        }
      ],
      "stateMutability": "view",
      "type": "function"
    },
    {
      "inputs": [],
      "name": "renounceOwnership",
      "outputs": [],
      "stateMutability": "nonpayable",
      "type": "function"
    },
    {
      "inputs": [
        {
          "internalType": "uint256",
          "name": "maxBalance",
          "type": "uint256"
        },
        {
          "internalType": "bool",
          "name": "rebalance",
          "type": "bool"
        },
        {
          "internalType": "uint256",
          "name": "maxChangeAmount",
          "type": "uint256"
        },
        {
          "internalType": "bool",
          "name": "harvestRewards",
          "type": "bool"
        }
      ],
      "name": "safeHarvest",
      "outputs": [],
      "stateMutability": "nonpayable",
      "type": "function"
    },
    {
      "inputs": [
        {
          "internalType": "address",
          "name": "_feeCollector",
          "type": "address"
        }
      ],
      "name": "setFeeCollector",
      "outputs": [],
      "stateMutability": "nonpayable",
      "type": "function"
    },
    {
      "inputs": [
        {
          "internalType": "address",
          "name": "executor",
          "type": "address"
        },
        {
          "internalType": "bool",
          "name": "value",
          "type": "bool"
        }
      ],
      "name": "setStrategyExecutor",
      "outputs": [],
      "stateMutability": "nonpayable",
      "type": "function"
    },
    {
      "inputs": [
        {
          "internalType": "uint256",
          "name": "amount",
          "type": "uint256"
        }
      ],
      "name": "skim",
      "outputs": [],
      "stateMutability": "nonpayable",
      "type": "function"
    },
    {
      "inputs": [
        {
          "internalType": "address",
          "name": "",
          "type": "address"
        }
      ],
      "name": "strategyExecutors",
      "outputs": [
        {
          "internalType": "bool",
          "name": "",
          "type": "bool"
        }
      ],
      "stateMutability": "view",
      "type": "function"
    },
    {
      "inputs": [],
      "name": "strategyToken",
      "outputs": [
        {
          "internalType": "address",
          "name": "",
          "type": "address"
        }
      ],
      "stateMutability": "view",
      "type": "function"
    },
    {
      "inputs": [
        {
          "internalType": "uint256",
          "name": "amountOutMin",
          "type": "uint256"
        },
        {
          "internalType": "address",
          "name": "inputToken",
          "type": "address"
        }
      ],
      "name": "swapExactTokensForUnderlying",
      "outputs": [
        {
          "internalType": "uint256",
          "name": "amountOut",
          "type": "uint256"
        }
      ],
      "stateMutability": "nonpayable",
      "type": "function"
    },
    {
      "inputs": [
        {
          "internalType": "address",
          "name": "newOwner",
          "type": "address"
        }
      ],
      "name": "transferOwnership",
      "outputs": [],
      "stateMutability": "nonpayable",
      "type": "function"
    },
    {
      "inputs": [
        {
          "internalType": "uint256",
          "name": "amount",
          "type": "uint256"
        }
      ],
      "name": "withdraw",
      "outputs": [
        {
          "internalType": "uint256",
          "name": "actualAmount",
          "type": "uint256"
        }
      ],
      "stateMutability": "nonpayable",
      "type": "function"
    }
  ],
  "transactionHash": "0x46df4a4a6bd750dd47b35b2a7e22b341690ea562bf72bcf75d469adcda41d6bd",
  "args": [
    "0x0E09FaBB73Bd3Ade0a17ECC321fD13a19e81cE82",
    "0x090185f2135308bad17527004364ebcc2d37e5f6",
    "0xcA143Ce32Fe78f1f7019d7d551a6402fC5350c73",
    "0x0000000000000000000000000000000000000000",
    "0xfddfE525054efaAD204600d00CA86ADb1Cc2ea8a",
    "0x73feaa1eE314F8c655E354234017bE2193C9E24E",
    "0x00fb7f630766e6a796048ea87d01acd3068e8ff67d078148a3fa3f4a84f69bd5"
  ],
  "solcInputHash": "72c8f0218a43a3d5bee4eb33083dfc64",
  "bytecode": "0x6101406040523480156200001257600080fd5b5060405162002ee138038062002ee1833981016040819052620000359162000565565b868686868685620000463362000148565b6001600160601b0319606087811b821660805286811b821660a05285811b821660c05284901b1660e0526101008190526001600160a01b03821615620000e1576001600160a01b038216600081815260026020908152604091829020805460ff1916600190811790915591519182527fb08a78f53a7fe017d5ca8c8fcdbf06ffa2c31f2ab668378a17700d9fc558717e910160405180910390a25b5050505050606083901b6001600160601b0319166101205250620001023390565b600380546001600160a01b0319166001600160a01b039283161790556200013b9088168360001962000198602090811b6200126717901c565b50505050505050620006e1565b600080546001600160a01b038381166001600160a01b0319831681178455604051919092169283917f8be0079c531659141344cd1fd0a4f28419497f9722a3daafe3b4186f6b6457e09190a35050565b801580620002265750604051636eb1769f60e11b81523060048201526001600160a01b03838116602483015284169063dd62ed3e9060440160206040518083038186803b158015620001e957600080fd5b505afa158015620001fe573d6000803e3d6000fd5b505050506040513d601f19601f8201168201806040525081019062000224919062000628565b155b6200029e5760405162461bcd60e51b815260206004820152603660248201527f5361666545524332303a20617070726f76652066726f6d206e6f6e2d7a65726f60448201527f20746f206e6f6e2d7a65726f20616c6c6f77616e63650000000000000000000060648201526084015b60405180910390fd5b604080516001600160a01b038416602482015260448082018490528251808303909101815260649091019091526020810180516001600160e01b0390811663095ea7b360e01b17909152620002f6918591620002fb16565b505050565b600062000357826040518060400160405280602081526020017f5361666545524332303a206c6f772d6c6576656c2063616c6c206661696c6564815250856001600160a01b0316620003d960201b620013c3179092919060201c565b805190915015620002f6578080602001905181019062000378919062000604565b620002f65760405162461bcd60e51b815260206004820152602a60248201527f5361666545524332303a204552433230206f7065726174696f6e20646964206e6044820152691bdd081cdd58d8d9595960b21b606482015260840162000295565b6060620003ea8484600085620003f4565b90505b9392505050565b606082471015620004575760405162461bcd60e51b815260206004820152602660248201527f416464726573733a20696e73756666696369656e742062616c616e636520666f6044820152651c8818d85b1b60d21b606482015260840162000295565b843b620004a75760405162461bcd60e51b815260206004820152601d60248201527f416464726573733a2063616c6c20746f206e6f6e2d636f6e7472616374000000604482015260640162000295565b600080866001600160a01b03168587604051620004c5919062000642565b60006040518083038185875af1925050503d806000811462000504576040519150601f19603f3d011682016040523d82523d6000602084013e62000509565b606091505b5090925090506200051c82828662000527565b979650505050505050565b6060831562000538575081620003ed565b825115620005495782518084602001fd5b8160405162461bcd60e51b815260040162000295919062000660565b600080600080600080600060e0888a0312156200058157600080fd5b87516200058e81620006c8565b6020890151909750620005a181620006c8565b6040890151909650620005b481620006c8565b6060890151909550620005c781620006c8565b6080890151909450620005da81620006c8565b60a0890151909350620005ed81620006c8565b8092505060c0880151905092959891949750929550565b6000602082840312156200061757600080fd5b81518015158114620003ed57600080fd5b6000602082840312156200063b57600080fd5b5051919050565b600082516200065681846020870162000695565b9190910192915050565b60208152600082518060208401526200068181604085016020870162000695565b601f01601f19169190910160400192915050565b60005b83811015620006b257818101518382015260200162000698565b83811115620006c2576000848401525b50505050565b6001600160a01b0381168114620006de57600080fd5b50565b60805160601c60a05160601c60c05160601c60e05160601c610100516101205160601c6126ac62000835600039600081816113f50152818161159b0152818161161901526116b6015260008181610dfb01528181610f080152611ac601526000818161031201528181610bc60152610c840152600081816102bc01528181610ace01528181610dd801528181610eb101528181611a600152611aa30152600081816101cb0152818161039b0152818161042d015281816105ab01528181610625015281816106e7015281816107f5015281816108f701528181610a13015261108301526000818161021201528181610405015281816104f2015281816105890152818161060301528181610742015281816107d301528181610954015281816109f101528181610b4401528181610cd901528181610f9d0152818161104c01528181611470015261152201526126ac6000f3fe608060405234801561001057600080fd5b506004361061012c5760003560e01c80638da5cb5b116100ad578063c45a015511610071578063c45a0155146102b7578063d9253c2d146102de578063e8bd73a5146102f1578063f2fde38b146102fa578063f4734b0c1461030d57600080fd5b80638da5cb5b1461025a578063a42dce801461026b578063a7edd48c1461027e578063ba6275ab14610291578063c415b95c146102a457600080fd5b80636b2ace87116100f45780636b2ace87146101c6578063715018a614610205578063747efea11461020d57806374ceb267146102345780637f8661a11461024757600080fd5b806318fccc76146101315780632e1a7d4d146101575780635066ebdd1461016a5780635ce6c3271461019d5780636939aaf5146101b1575b600080fd5b61014461013f3660046122ee565b610334565b6040519081526020015b60405180910390f35b6101446101653660046122bc565b610685565b61018d6101783660046120f3565b60026020526000908152604090205460ff1681565b604051901515815260200161014e565b60005461018d90600160a01b900460ff1681565b6101c46101bf3660046122bc565b61081f565b005b6101ed7f000000000000000000000000000000000000000000000000000000000000000081565b6040516001600160a01b03909116815260200161014e565b6101c461082b565b6101ed7f000000000000000000000000000000000000000000000000000000000000000081565b6101c461024236600461210e565b610861565b6101446102553660046122bc565b6108ea565b6000546001600160a01b03166101ed565b6101c46102793660046120f3565b610a51565b61014461028c3660046122ee565b610a9d565b6101c461029f36600461231a565b610ffa565b6003546101ed906001600160a01b031681565b6101ed7f000000000000000000000000000000000000000000000000000000000000000081565b61018d6102ec366004612145565b6110e5565b61014460015481565b6101c46103083660046120f3565b6111cf565b6101ed7f000000000000000000000000000000000000000000000000000000000000000081565b60008054600160a01b900460ff16156103905760405162461bcd60e51b815260206004820152601960248201527810995b9d1bd09bde0814dd1c985d1959de4e88195e1a5d1959603a1b60448201526064015b60405180910390fd5b336001600160a01b037f000000000000000000000000000000000000000000000000000000000000000016146103d85760405162461bcd60e51b8152600401610387906123bf565b6001600160a01b038216301480156104b35750600154604051634ffe34db60e01b81526001600160a01b037f0000000000000000000000000000000000000000000000000000000000000000811660048301527f00000000000000000000000000000000000000000000000000000000000000001690634ffe34db90602401604080518083038186803b15801561046e57600080fd5b505afa158015610482573d6000803e3d6000fd5b505050506040513d601f19601f820116820180604052508101906104a69190612211565b516001600160801b031611155b80156104bf5750600083115b1561067b5760006104cf846113dc565b6040516370a0823160e01b81523060048201529091506000906001600160a01b037f000000000000000000000000000000000000000000000000000000000000000016906370a082319060240160206040518083038186803b15801561053457600080fd5b505afa158015610548573d6000803e3d6000fd5b505050506040513d601f19601f8201168201806040525081019061056c91906122d5565b9050600082126105d95780156105d0576105d06001600160a01b037f0000000000000000000000000000000000000000000000000000000000000000167f000000000000000000000000000000000000000000000000000000000000000083611555565b915061067f9050565b80156106735760006105eb82846124d2565b905060008113156106605761064a6001600160a01b037f0000000000000000000000000000000000000000000000000000000000000000167f000000000000000000000000000000000000000000000000000000000000000083611555565b61065b61065684612609565b611585565b610669565b61066982611585565b925061067f915050565b50905061067f565b5060005b92915050565b60008054600160a01b900460ff16156106dc5760405162461bcd60e51b815260206004820152601960248201527810995b9d1bd09bde0814dd1c985d1959de4e88195e1a5d1959603a1b6044820152606401610387565b336001600160a01b037f000000000000000000000000000000000000000000000000000000000000000016146107245760405162461bcd60e51b8152600401610387906123bf565b61072d82611603565b6040516370a0823160e01b81523060048201527f00000000000000000000000000000000000000000000000000000000000000006001600160a01b0316906370a082319060240160206040518083038186803b15801561078c57600080fd5b505afa1580156107a0573d6000803e3d6000fd5b505050506040513d601f19601f820116820180604052508101906107c491906122d5565b905061081a6001600160a01b037f0000000000000000000000000000000000000000000000000000000000000000167f000000000000000000000000000000000000000000000000000000000000000083611555565b919050565b61082881611585565b50565b6000546001600160a01b031633146108555760405162461bcd60e51b8152600401610387906123f4565b61085f6000611650565b565b6000546001600160a01b0316331461088b5760405162461bcd60e51b8152600401610387906123f4565b6001600160a01b038216600081815260026020908152604091829020805460ff191685151590811790915591519182527fb08a78f53a7fe017d5ca8c8fcdbf06ffa2c31f2ab668378a17700d9fc558717e910160405180910390a25050565b6000336001600160a01b037f000000000000000000000000000000000000000000000000000000000000000016146109345760405162461bcd60e51b8152600401610387906123bf565b61093c6116a0565b6040516370a0823160e01b81523060048201526000907f00000000000000000000000000000000000000000000000000000000000000006001600160a01b0316906370a082319060240160206040518083038186803b15801561099e57600080fd5b505afa1580156109b2573d6000803e3d6000fd5b505050506040513d601f19601f820116820180604052508101906109d691906122d5565b90506109e2838261256c565b9150610a386001600160a01b037f0000000000000000000000000000000000000000000000000000000000000000167f000000000000000000000000000000000000000000000000000000000000000083611555565b506000805460ff60a01b1916600160a01b179055919050565b6000546001600160a01b03163314610a7b5760405162461bcd60e51b8152600401610387906123f4565b600380546001600160a01b0319166001600160a01b0392909216919091179055565b3360009081526002602052604081205460ff16610acc5760405162461bcd60e51b815260040161038790612429565b7f00000000000000000000000000000000000000000000000000000000000000006001600160a01b0316610b425760405162461bcd60e51b815260206004820152601e60248201527f42656e746f426f782053747261746567793a2063616e6e6f74207377617000006044820152606401610387565b7f00000000000000000000000000000000000000000000000000000000000000006001600160a01b0316826001600160a01b03161415610bc45760405162461bcd60e51b815260206004820152601f60248201527f42656e746f426f782053747261746567793a20696e76616c69642073776170006044820152606401610387565b7f00000000000000000000000000000000000000000000000000000000000000006001600160a01b03161515600081610bfe576002610c01565b60035b60ff1667ffffffffffffffff811115610c1c57610c1c612652565b604051908082528060200260200182016040528015610c45578160200160208202803683370190505b5090508381600081518110610c5c57610c5c61263c565b60200260200101906001600160a01b031690816001600160a01b0316815250508115610cd7577f000000000000000000000000000000000000000000000000000000000000000081600181518110610cb657610cb661263c565b60200260200101906001600160a01b031690816001600160a01b0316815250505b7f00000000000000000000000000000000000000000000000000000000000000008160018351610d0791906125ab565b81518110610d1757610d1761263c565b60200260200101906001600160a01b031690816001600160a01b031681525050600081600081518110610d4c57610d4c61263c565b60209081029190910101516040516370a0823160e01b81523060048201526001600160a01b03909116906370a082319060240160206040518083038186803b158015610d9757600080fd5b505afa158015610dab573d6000803e3d6000fd5b505050506040513d601f19601f82011682018060405250810190610dcf91906122d5565b90506000610e1f7f000000000000000000000000000000000000000000000000000000000000000083857f000000000000000000000000000000000000000000000000000000000000000061171c565b90508060018251610e3091906125ab565b81518110610e4057610e4061263c565b6020026020010151945086851015610ea95760405162461bcd60e51b815260206004820152602660248201527f42656e746f426f782053747261746567793a20696e73756666696369656e74206044820152651bdd5d1c1d5d60d21b6064820152608401610387565b610f7a610f2c7f000000000000000000000000000000000000000000000000000000000000000085600081518110610ee357610ee361263c565b602002602001015186600181518110610efe57610efe61263c565b60200260200101517f00000000000000000000000000000000000000000000000000000000000000006118a9565b82600081518110610f3f57610f3f61263c565b602002602001015185600081518110610f5a57610f5a61263c565b60200260200101516001600160a01b03166115559092919063ffffffff16565b610f85818430611967565b60408051838152602081018790526001600160a01b037f00000000000000000000000000000000000000000000000000000000000000008116929089169133917f3b644720db133e4e05b302a56bdb46867109debe30c44b4f25566b3c41ed627b910160405180910390a45050505092915050565b3360009081526002602052604090205460ff166110295760405162461bcd60e51b815260040161038790612429565b83156110355760018490555b6040516366c6bb0b60e01b81526001600160a01b037f0000000000000000000000000000000000000000000000000000000000000000811660048301528415156024830152604482018490527f000000000000000000000000000000000000000000000000000000000000000016906366c6bb0b90606401600060405180830381600087803b1580156110c757600080fd5b505af11580156110db573d6000803e3d6000fd5b5050505050505050565b600080546001600160a01b031633146111105760405162461bcd60e51b8152600401610387906123f4565b600054600160a01b900460ff166111695760405162461bcd60e51b815260206004820152601d60248201527f42656e746f426f782053747261746567793a206e6f74206578697465640000006044820152606401610387565b836001600160a01b031683836040516111829190612390565b60006040518083038185875af1925050503d80600081146111bf576040519150601f19603f3d011682016040523d82523d6000602084013e6111c4565b606091505b509095945050505050565b6000546001600160a01b031633146111f95760405162461bcd60e51b8152600401610387906123f4565b6001600160a01b03811661125e5760405162461bcd60e51b815260206004820152602660248201527f4f776e61626c653a206e6577206f776e657220697320746865207a65726f206160448201526564647265737360d01b6064820152608401610387565b61082881611650565b8015806112f05750604051636eb1769f60e11b81523060048201526001600160a01b03838116602483015284169063dd62ed3e9060440160206040518083038186803b1580156112b657600080fd5b505afa1580156112ca573d6000803e3d6000fd5b505050506040513d601f19601f820116820180604052508101906112ee91906122d5565b155b61135b5760405162461bcd60e51b815260206004820152603660248201527f5361666545524332303a20617070726f76652066726f6d206e6f6e2d7a65726f60448201527520746f206e6f6e2d7a65726f20616c6c6f77616e636560501b6064820152608401610387565b6040516001600160a01b0383166024820152604481018290526113be90849063095ea7b360e01b906064015b60408051601f198184030181529190526020810180516001600160e01b03166001600160e01b031990931692909217909152611b93565b505050565b60606113d28484600085611c65565b90505b9392505050565b604051631058d28160e01b8152600060048201819052907f00000000000000000000000000000000000000000000000000000000000000006001600160a01b031690631058d28190602401600060405180830381600087803b15801561144157600080fd5b505af1158015611455573d6000803e3d6000fd5b50506040516370a0823160e01b8152306004820152600092507f00000000000000000000000000000000000000000000000000000000000000006001600160a01b031691506370a082319060240160206040518083038186803b1580156114bb57600080fd5b505afa1580156114cf573d6000803e3d6000fd5b505050506040513d601f19601f820116820180604052508101906114f391906122d5565b905060006064611504600a8461254d565b61150e919061252b565b60035490915061154b906001600160a01b037f00000000000000000000000000000000000000000000000000000000000000008116911683611555565b5060009392505050565b6040516001600160a01b0383166024820152604481018290526113be90849063a9059cbb60e01b90606401611387565b6040516341441d3b60e01b8152600481018290527f00000000000000000000000000000000000000000000000000000000000000006001600160a01b0316906341441d3b906024015b600060405180830381600087803b1580156115e857600080fd5b505af11580156115fc573d6000803e3d6000fd5b5050505050565b604051631058d28160e01b8152600481018290527f00000000000000000000000000000000000000000000000000000000000000006001600160a01b031690631058d281906024016115ce565b600080546001600160a01b038381166001600160a01b0319831681178455604051919092169283917f8be0079c531659141344cd1fd0a4f28419497f9722a3daafe3b4186f6b6457e09190a35050565b604051632989754760e11b8152600060048201527f00000000000000000000000000000000000000000000000000000000000000006001600160a01b031690635312ea8e90602401600060405180830381600087803b15801561170257600080fd5b505af1158015611716573d6000803e3d6000fd5b50505050565b60606002835110156117705760405162461bcd60e51b815260206004820152601e60248201527f556e697377617056324c6962726172793a20494e56414c49445f5041544800006044820152606401610387565b825167ffffffffffffffff81111561178a5761178a612652565b6040519080825280602002602001820160405280156117b3578160200160208202803683370190505b50905083816000815181106117ca576117ca61263c565b60200260200101818152505060005b600184516117e791906125ab565b8110156118a05760008061183b888785815181106118075761180761263c565b60200260200101518886600161181d9190612513565b8151811061182d5761182d61263c565b602002602001015188611d8d565b915091506118638484815181106118545761185461263c565b60200260200101518383611e68565b8461186f856001612513565b8151811061187f5761187f61263c565b60200260200101818152505050508080611898906125ee565b9150506117d9565b50949350505050565b60008060006118b88686611f7d565b6040516bffffffffffffffffffffffff19606084811b8216602084015283901b166034820152919350915087906048016040516020818303038152906040528051906020012085604051602001611944939291906001600160f81b0319815260609390931b6bffffffffffffffffffffffff191660018401526015830191909152603582015260550190565b60408051601f198184030181529190528051602090910120979650505050505050565b60005b6001835161197891906125ab565b811015611716576000808483815181106119945761199461263c565b6020026020010151858460016119aa9190612513565b815181106119ba576119ba61263c565b6020026020010151915091506000816001600160a01b0316836001600160a01b0316106119e757816119e9565b825b90506000876119f9866001612513565b81518110611a0957611a0961263c565b60200260200101519050600080836001600160a01b0316866001600160a01b031614611a3757826000611a3b565b6000835b91509150600060028a51611a4f91906125ab565b8810611a5b5788611a9c565b611a9c7f0000000000000000000000000000000000000000000000000000000000000000878c611a8c8c6002612513565b81518110610efe57610efe61263c565b9050611aea7f000000000000000000000000000000000000000000000000000000000000000088887f00000000000000000000000000000000000000000000000000000000000000006118a9565b6001600160a01b031663022c0d9f84848460006040519080825280601f01601f191660200182016040528015611b27576020820181803683370190505b506040518563ffffffff1660e01b8152600401611b47949392919061246a565b600060405180830381600087803b158015611b6157600080fd5b505af1158015611b75573d6000803e3d6000fd5b50505050505050505050508080611b8b906125ee565b91505061196a565b6000611be8826040518060400160405280602081526020017f5361666545524332303a206c6f772d6c6576656c2063616c6c206661696c6564815250856001600160a01b03166113c39092919063ffffffff16565b8051909150156113be5780806020019051810190611c0691906121f4565b6113be5760405162461bcd60e51b815260206004820152602a60248201527f5361666545524332303a204552433230206f7065726174696f6e20646964206e6044820152691bdd081cdd58d8d9595960b21b6064820152608401610387565b606082471015611cc65760405162461bcd60e51b815260206004820152602660248201527f416464726573733a20696e73756666696369656e742062616c616e636520666f6044820152651c8818d85b1b60d21b6064820152608401610387565b843b611d145760405162461bcd60e51b815260206004820152601d60248201527f416464726573733a2063616c6c20746f206e6f6e2d636f6e74726163740000006044820152606401610387565b600080866001600160a01b03168587604051611d309190612390565b60006040518083038185875af1925050503d8060008114611d6d576040519150601f19603f3d011682016040523d82523d6000602084013e611d72565b606091505b5091509150611d82828286612075565b979650505050505050565b6000806000611d9c8686611f7d565b509050600080611dae898989896118a9565b6001600160a01b0316630902f1ac6040518163ffffffff1660e01b815260040160606040518083038186803b158015611de657600080fd5b505afa158015611dfa573d6000803e3d6000fd5b505050506040513d601f19601f82011682018060405250810190611e1e919061226c565b506001600160701b031691506001600160701b03169150826001600160a01b0316886001600160a01b031614611e55578082611e58565b81815b909a909950975050505050505050565b6000808411611ecd5760405162461bcd60e51b815260206004820152602b60248201527f556e697377617056324c6962726172793a20494e53554646494349454e545f4960448201526a1394155517d05353d5539560aa1b6064820152608401610387565b600083118015611edd5750600082115b611f3a5760405162461bcd60e51b815260206004820152602860248201527f556e697377617056324c6962726172793a20494e53554646494349454e545f4c604482015267495155494449545960c01b6064820152608401610387565b6000611f48856103e561254d565b90506000611f56848361254d565b9050600082611f67876103e861254d565b611f719190612513565b9050611d82818361252b565b600080826001600160a01b0316846001600160a01b03161415611ff05760405162461bcd60e51b815260206004820152602560248201527f556e697377617056324c6962726172793a204944454e544943414c5f41444452604482015264455353455360d81b6064820152608401610387565b826001600160a01b0316846001600160a01b031610612010578284612013565b83835b90925090506001600160a01b03821661206e5760405162461bcd60e51b815260206004820152601e60248201527f556e697377617056324c6962726172793a205a45524f5f4144445245535300006044820152606401610387565b9250929050565b606083156120845750816113d5565b8251156120945782518084602001fd5b8160405162461bcd60e51b815260040161038791906123ac565b80356001600160a01b038116811461081a57600080fd5b80516001600160701b038116811461081a57600080fd5b80516001600160801b038116811461081a57600080fd5b60006020828403121561210557600080fd5b6113d5826120ae565b6000806040838503121561212157600080fd5b61212a836120ae565b9150602083013561213a81612668565b809150509250929050565b60008060006060848603121561215a57600080fd5b612163846120ae565b92506020808501359250604085013567ffffffffffffffff8082111561218857600080fd5b818701915087601f83011261219c57600080fd5b8135818111156121ae576121ae612652565b6121c0601f8201601f191685016124a1565b915080825288848285010111156121d657600080fd5b80848401858401376000848284010152508093505050509250925092565b60006020828403121561220657600080fd5b81516113d581612668565b60006040828403121561222357600080fd5b6040516040810181811067ffffffffffffffff8211171561224657612246612652565b604052612252836120dc565b8152612260602084016120dc565b60208201529392505050565b60008060006060848603121561228157600080fd5b61228a846120c5565b9250612298602085016120c5565b9150604084015163ffffffff811681146122b157600080fd5b809150509250925092565b6000602082840312156122ce57600080fd5b5035919050565b6000602082840312156122e757600080fd5b5051919050565b6000806040838503121561230157600080fd5b82359150612311602084016120ae565b90509250929050565b6000806000806080858703121561233057600080fd5b84359350602085013561234281612668565b925060408501359150606085013561235981612668565b939692955090935050565b6000815180845261237c8160208601602086016125c2565b601f01601f19169290920160200192915050565b600082516123a28184602087016125c2565b9190910192915050565b6020815260006113d56020830184612364565b6020808252818101527f42656e746f426f782053747261746567793a206f6e6c792042656e746f426f78604082015260600190565b6020808252818101527f4f776e61626c653a2063616c6c6572206973206e6f7420746865206f776e6572604082015260600190565b60208082526021908201527f42656e746f426f782053747261746567793a206f6e6c79204578656375746f726040820152607360f81b606082015260800190565b84815283602082015260018060a01b03831660408201526080606082015260006124976080830184612364565b9695505050505050565b604051601f8201601f1916810167ffffffffffffffff811182821017156124ca576124ca612652565b604052919050565b600080821280156001600160ff1b03849003851316156124f4576124f4612626565b600160ff1b839003841281161561250d5761250d612626565b50500190565b6000821982111561252657612526612626565b500190565b60008261254857634e487b7160e01b600052601260045260246000fd5b500490565b600081600019048311821515161561256757612567612626565b500290565b60008083128015600160ff1b85018412161561258a5761258a612626565b6001600160ff1b03840183138116156125a5576125a5612626565b50500390565b6000828210156125bd576125bd612626565b500390565b60005b838110156125dd5781810151838201526020016125c5565b838111156117165750506000910152565b600060001982141561260257612602612626565b5060010190565b6000600160ff1b82141561261f5761261f612626565b5060000390565b634e487b7160e01b600052601160045260246000fd5b634e487b7160e01b600052603260045260246000fd5b634e487b7160e01b600052604160045260246000fd5b801515811461082857600080fdfea2646970667358221220c36d176fbaf2ab7bbc887580e0936831acccdefa6e5e447a3dced4bb7edb670164736f6c63430008070033",
  "devdoc": {
    "kind": "dev",
    "methods": {
      "afterExit(address,uint256,bytes)": {
        "details": "After exited, the owner can perform ANY call. This is to rescue any funds that didn't get released during exit or got earned afterwards due to vesting or airdrops, etc. "
      },
      "constructor": {
        "params": {
          "_bentoBox": "BentoBox address.",
          "_bridgeToken": "An intermediary token for swapping any rewards into it before swapping it to _inputPairToken",
          "_factory": "SushiSwap factory.",
          "_strategyExecutor": "an EOA that will execute the safeHarvest function.",
          "_strategyToken": "Address of the underlying LP token the strategy invests."
        }
      },
      "exit(uint256)": {
        "details": "do not use isActive modifier here; allow bentobox to call strategy.exit() multiple times",
        "params": {
          "balance": "The amount of tokens the caller thinks it has invested."
        },
        "returns": {
          "amountAdded": "The delta (+profit or -loss) that occured in contrast to `balance`."
        }
      },
      "harvest(uint256,address)": {
        "details": "Only BentoBox can call harvest on this strategy.Ensures that (1) the caller was this contract (called through the safeHarvest function) and (2) that we are not being frontrun by a large BentoBox deposit when harvesting profits. ",
        "params": {
          "balance": "The amount of tokens the caller thinks it has invested.",
          "sender": "The address of the initiator of this transaction. Can be used for reimbursements, etc."
        },
        "returns": {
          "_0": "The delta (+profit or -loss) that occured in contrast to `balance`."
        }
      },
      "owner()": {
        "details": "Returns the address of the current owner."
      },
      "renounceOwnership()": {
        "details": "Leaves the contract without owner. It will not be possible to call `onlyOwner` functions anymore. Can only be called by the current owner. NOTE: Renouncing ownership will leave the contract without an owner, thereby removing any functionality that is only available to the owner."
      },
      "safeHarvest(uint256,bool,uint256,bool)": {
        "details": "maxBalance can be set to 0 to keep the previous value.maxChangeAmount can be set to 0 to allow for full rebalancing.",
        "params": {
          "harvestRewards": "If we want to claim any accrued reward tokens",
          "maxBalance": "The maximum balance of the underlying token that is allowed to be in BentoBox.",
          "maxChangeAmount": "When rebalancing - the maximum amount that will be deposited to or withdrawn from a strategy to BentoBox.",
          "rebalance": "Whether BentoBox should rebalance the strategy assets to acheive it's target allocation."
        }
      },
      "skim(uint256)": {
        "params": {
          "amount": "The amount of tokens to invest."
        }
      },
      "transferOwnership(address)": {
        "details": "Transfers ownership of the contract to a new account (`newOwner`). Can only be called by the current owner."
      },
      "withdraw(uint256)": {
        "details": "The `actualAmount` should be very close to the amount. The difference should NOT be used to report a loss. That's what harvest is for.",
        "params": {
          "amount": "The requested amount the caller wants to withdraw."
        },
        "returns": {
          "actualAmount": "The real amount that is withdrawn."
        }
      }
    },
    "version": 1
  },
  "userdoc": {
    "kind": "user",
    "methods": {
      "exit(uint256)": {
        "notice": "Withdraw all assets in the safest way possible. This shouldn't fail."
      },
      "harvest(uint256,address)": {
        "notice": "Harvest any profits made converted to the asset and pass them to the caller."
      },
      "safeHarvest(uint256,bool,uint256,bool)": {
        "notice": "Harvest profits while preventing a sandwich attack exploit."
      },
      "skim(uint256)": {
        "notice": "Send the assets to the Strategy and call skim to invest them."
      },
      "swapExactTokensForUnderlying(uint256,address)": {
        "notice": "Swap some tokens in the contract for the underlying and deposits them to address(this)"
      },
      "withdraw(uint256)": {
        "notice": "Withdraw assets. The returned amount can differ from the requested amount due to rounding."
      }
    },
    "version": 1
  },
  "storageLayout": {
    "storage": [
      {
        "astId": 7,
        "contract": "contracts/strategies/CakeStrategy.sol:CakeStrategy",
        "label": "_owner",
        "offset": 0,
        "slot": "0",
        "type": "t_address"
      },
      {
        "astId": 1322,
        "contract": "contracts/strategies/CakeStrategy.sol:CakeStrategy",
        "label": "exited",
        "offset": 20,
        "slot": "0",
        "type": "t_bool"
      },
      {
        "astId": 1325,
        "contract": "contracts/strategies/CakeStrategy.sol:CakeStrategy",
        "label": "maxBentoBoxBalance",
        "offset": 0,
        "slot": "1",
        "type": "t_uint256"
      },
      {
        "astId": 1330,
        "contract": "contracts/strategies/CakeStrategy.sol:CakeStrategy",
        "label": "strategyExecutors",
        "offset": 0,
        "slot": "2",
        "type": "t_mapping(t_address,t_bool)"
      },
      {
        "astId": 3969,
        "contract": "contracts/strategies/CakeStrategy.sol:CakeStrategy",
        "label": "feeCollector",
        "offset": 0,
        "slot": "3",
        "type": "t_address"
      }
    ],
    "types": {
      "t_address": {
        "encoding": "inplace",
        "label": "address",
        "numberOfBytes": "20"
      },
      "t_bool": {
        "encoding": "inplace",
        "label": "bool",
        "numberOfBytes": "1"
      },
      "t_mapping(t_address,t_bool)": {
        "encoding": "mapping",
        "key": "t_address",
        "label": "mapping(address => bool)",
        "numberOfBytes": "32",
        "value": "t_bool"
      },
      "t_uint256": {
        "encoding": "inplace",
        "label": "uint256",
        "numberOfBytes": "32"
      }
    }
  }
}