{
  "address": "0x663Ef4455A07243D9029bA0fC48297AE181aeb38",
  "abi": [
    {
      "inputs": [
        {
          "internalType": "address",
          "name": "_strategyToken",
          "type": "address"
        },
        {
          "internalType": "address",
          "name": "_bentoBox",
          "type": "address"
        },
        {
          "internalType": "address",
          "name": "_factory",
          "type": "address"
        },
        {
          "internalType": "address",
          "name": "_bridgeToken",
          "type": "address"
        },
        {
          "internalType": "address",
          "name": "_strategyExecutor",
          "type": "address"
        },
        {
          "internalType": "contract IMasterChef",
          "name": "_masterchef",
          "type": "address"
        },
        {
          "internalType": "uint256",
          "name": "_pid",
          "type": "uint256"
        },
        {
          "internalType": "contract ISushiSwap",
          "name": "_router",
          "type": "address"
        },
        {
          "internalType": "address",
          "name": "_rewardToken",
          "type": "address"
        },
        {
          "internalType": "bool",
          "name": "_usePairToken0",
          "type": "bool"
        },
        {
          "internalType": "bytes32",
          "name": "_pairCodeHash",
          "type": "bytes32"
        }
      ],
      "stateMutability": "nonpayable",
      "type": "constructor"
    },
    {
      "anonymous": false,
      "inputs": [
        {
          "indexed": true,
          "internalType": "address",
          "name": "server",
          "type": "address"
        },
        {
          "indexed": true,
          "internalType": "address",
          "name": "token0",
          "type": "address"
        },
        {
          "indexed": true,
          "internalType": "address",
          "name": "token1",
          "type": "address"
        },
        {
          "indexed": false,
          "internalType": "uint256",
          "name": "amount0",
          "type": "uint256"
        },
        {
          "indexed": false,
          "internalType": "uint256",
          "name": "amount1",
          "type": "uint256"
        }
      ],
      "name": "LogConvert",
      "type": "event"
    },
    {
      "anonymous": false,
      "inputs": [
        {
          "indexed": true,
          "internalType": "address",
          "name": "executor",
          "type": "address"
        },
        {
          "indexed": false,
          "internalType": "bool",
          "name": "allowed",
          "type": "bool"
        }
      ],
      "name": "LogSetStrategyExecutor",
      "type": "event"
    },
    {
      "anonymous": false,
      "inputs": [
        {
          "indexed": false,
          "internalType": "uint256",
          "name": "total",
          "type": "uint256"
        },
        {
          "indexed": false,
          "internalType": "uint256",
          "name": "strategyAmount",
          "type": "uint256"
        },
        {
          "indexed": false,
          "internalType": "uint256",
          "name": "feeAmount",
          "type": "uint256"
        }
      ],
      "name": "LpMinted",
      "type": "event"
    },
    {
      "anonymous": false,
      "inputs": [
        {
          "indexed": true,
          "internalType": "address",
          "name": "previousOwner",
          "type": "address"
        },
        {
          "indexed": true,
          "internalType": "address",
          "name": "newOwner",
          "type": "address"
        }
      ],
      "name": "OwnershipTransferred",
      "type": "event"
    },
    {
      "inputs": [
        {
          "internalType": "address",
          "name": "to",
          "type": "address"
        },
        {
          "internalType": "uint256",
          "name": "value",
          "type": "uint256"
        },
        {
          "internalType": "bytes",
          "name": "data",
          "type": "bytes"
        }
      ],
      "name": "afterExit",
      "outputs": [
        {
          "internalType": "bool",
          "name": "success",
          "type": "bool"
        }
      ],
      "stateMutability": "nonpayable",
      "type": "function"
    },
    {
      "inputs": [],
      "name": "bentoBox",
      "outputs": [
        {
          "internalType": "address",
          "name": "",
          "type": "address"
        }
      ],
      "stateMutability": "view",
      "type": "function"
    },
    {
      "inputs": [],
      "name": "bridgeToken",
      "outputs": [
        {
          "internalType": "address",
          "name": "",
          "type": "address"
        }
      ],
      "stateMutability": "view",
      "type": "function"
    },
    {
      "inputs": [
        {
          "internalType": "uint256",
          "name": "balance",
          "type": "uint256"
        }
      ],
      "name": "exit",
      "outputs": [
        {
          "internalType": "int256",
          "name": "amountAdded",
          "type": "int256"
        }
      ],
      "stateMutability": "nonpayable",
      "type": "function"
    },
    {
      "inputs": [],
      "name": "exited",
      "outputs": [
        {
          "internalType": "bool",
          "name": "",
          "type": "bool"
        }
      ],
      "stateMutability": "view",
      "type": "function"
    },
    {
      "inputs": [],
      "name": "factory",
      "outputs": [
        {
          "internalType": "address",
          "name": "",
          "type": "address"
        }
      ],
      "stateMutability": "view",
      "type": "function"
    },
    {
      "inputs": [],
      "name": "feeCollector",
      "outputs": [
        {
          "internalType": "address",
          "name": "",
          "type": "address"
        }
      ],
      "stateMutability": "view",
      "type": "function"
    },
    {
      "inputs": [
        {
          "internalType": "uint256",
          "name": "balance",
          "type": "uint256"
        },
        {
          "internalType": "address",
          "name": "sender",
          "type": "address"
        }
      ],
      "name": "harvest",
      "outputs": [
        {
          "internalType": "int256",
          "name": "",
          "type": "int256"
        }
      ],
      "stateMutability": "nonpayable",
      "type": "function"
    },
    {
      "inputs": [],
      "name": "maxBentoBoxBalance",
      "outputs": [
        {
          "internalType": "uint256",
          "name": "",
          "type": "uint256"
        }
      ],
      "stateMutability": "view",
      "type": "function"
    },
    {
      "inputs": [],
      "name": "owner",
      "outputs": [
        {
          "internalType": "address",
          "name": "",
          "type": "address"
        }
      ],
      "stateMutability": "view",
      "type": "function"
    },
    {
      "inputs": [],
      "name": "renounceOwnership",
      "outputs": [],
      "stateMutability": "nonpayable",
      "type": "function"
    },
    {
      "inputs": [
        {
          "internalType": "uint256",
          "name": "maxBalance",
          "type": "uint256"
        },
        {
          "internalType": "bool",
          "name": "rebalance",
          "type": "bool"
        },
        {
          "internalType": "uint256",
          "name": "maxChangeAmount",
          "type": "uint256"
        },
        {
          "internalType": "bool",
          "name": "harvestRewards",
          "type": "bool"
        }
      ],
      "name": "safeHarvest",
      "outputs": [],
      "stateMutability": "nonpayable",
      "type": "function"
    },
    {
      "inputs": [
        {
          "internalType": "address",
          "name": "_feeCollector",
          "type": "address"
        }
      ],
      "name": "setFeeCollector",
      "outputs": [],
      "stateMutability": "nonpayable",
      "type": "function"
    },
    {
      "inputs": [
        {
          "internalType": "address",
          "name": "executor",
          "type": "address"
        },
        {
          "internalType": "bool",
          "name": "value",
          "type": "bool"
        }
      ],
      "name": "setStrategyExecutor",
      "outputs": [],
      "stateMutability": "nonpayable",
      "type": "function"
    },
    {
      "inputs": [
        {
          "internalType": "uint256",
          "name": "amount",
          "type": "uint256"
        }
      ],
      "name": "skim",
      "outputs": [],
      "stateMutability": "nonpayable",
      "type": "function"
    },
    {
      "inputs": [
        {
          "internalType": "address",
          "name": "",
          "type": "address"
        }
      ],
      "name": "strategyExecutors",
      "outputs": [
        {
          "internalType": "bool",
          "name": "",
          "type": "bool"
        }
      ],
      "stateMutability": "view",
      "type": "function"
    },
    {
      "inputs": [],
      "name": "strategyToken",
      "outputs": [
        {
          "internalType": "address",
          "name": "",
          "type": "address"
        }
      ],
      "stateMutability": "view",
      "type": "function"
    },
    {
      "inputs": [
        {
          "internalType": "uint256",
          "name": "amountOutMin",
          "type": "uint256"
        },
        {
          "internalType": "address",
          "name": "inputToken",
          "type": "address"
        }
      ],
      "name": "swapExactTokensForUnderlying",
      "outputs": [
        {
          "internalType": "uint256",
          "name": "amountOut",
          "type": "uint256"
        }
      ],
      "stateMutability": "nonpayable",
      "type": "function"
    },
    {
      "inputs": [
        {
          "internalType": "uint256",
          "name": "amountOutMin",
          "type": "uint256"
        }
      ],
      "name": "swapToLP",
      "outputs": [
        {
          "internalType": "uint256",
          "name": "amountOut",
          "type": "uint256"
        }
      ],
      "stateMutability": "nonpayable",
      "type": "function"
    },
    {
      "inputs": [
        {
          "internalType": "address",
          "name": "newOwner",
          "type": "address"
        }
      ],
      "name": "transferOwnership",
      "outputs": [],
      "stateMutability": "nonpayable",
      "type": "function"
    },
    {
      "inputs": [
        {
          "internalType": "uint256",
          "name": "amount",
          "type": "uint256"
        }
      ],
      "name": "withdraw",
      "outputs": [
        {
          "internalType": "uint256",
          "name": "actualAmount",
          "type": "uint256"
        }
      ],
      "stateMutability": "nonpayable",
      "type": "function"
    }
  ],
  "transactionHash": "0x108097ff4a88c641e6998848e84174319c06dcae001b22aa6b84dfd4c213028f",
  "args": [
    "0xa389f9430876455c36478deea9769b7ca4e3ddb1",
    "0x1fC83f75499b7620d53757f0b01E2ae626aAE530",
    "0x9Ad6C38BE94206cA50bb0d90783181662f0Cfa10",
    "0x0000000000000000000000000000000000000000",
    "0xb4EfdA6DAf5ef75D08869A0f9C0213278fb43b6C",
    "0xd6a4F121CA35509aF06A0Be99093d08462f53052",
    39,
    "0x60aE616a2155Ee3d9A68541Ba4544862310933d4",
    "0x6e84a6216eA6dACC71eE8E6b0a5B7322EEbC0fDd",
    false,
    "0x0bbca9af0511ad1a1da383135cf3a8d2ac620e549ef9f6ae3a4c33c2fed0af91"
  ],
  "solcInputHash": "fb47934cb2806e4c4c6b4f881782fa5f",
  "bytecode": "0x6101e06040523480156200001257600080fd5b5060405162004df438038062004df483398101604081905262000035916200074f565b8a8a8a8a8a85620000463362000200565b6001600160601b0319606087811b821660805286811b821660a05285811b821660c05284901b1660e0526101008190526001600160a01b03821615620000e1576001600160a01b038216600081815260026020908152604091829020805460ff1916600190811790915591519182527fb08a78f53a7fe017d5ca8c8fcdbf06ffa2c31f2ab668378a17700d9fc558717e910160405180910390a25b5050506001600160601b031960608a811b8216610140526101608a905288811b82166101205287901b1661018052506200011b9150503390565b600380546001600160a01b0319166001600160a01b0392909216919091179055600080620001498d62000250565b915091506200017486600019846001600160a01b03166200034c60201b62002378179092919060201c565b6200019b86600019836001600160a01b03166200034c60201b62002378179092919060201c565b620001c2886000198f6001600160a01b03166200034c60201b62002378179092919060201c565b83151560f81b6101c05283620001d95780620001db565b815b60601b6001600160601b0319166101a052506200090e9b505050505050505050505050565b600080546001600160a01b038381166001600160a01b0319831681178455604051919092169283917f8be0079c531659141344cd1fd0a4f28419497f9722a3daafe3b4186f6b6457e09190a35050565b6000806000839050806001600160a01b0316630dfe16816040518163ffffffff1660e01b815260040160206040518083038186803b1580156200029257600080fd5b505afa158015620002a7573d6000803e3d6000fd5b505050506040513d601f19601f82011682018060405250810190620002cd91906200072f565b9250806001600160a01b031663d21220a76040518163ffffffff1660e01b815260040160206040518083038186803b1580156200030957600080fd5b505afa1580156200031e573d6000803e3d6000fd5b505050506040513d601f19601f820116820180604052508101906200034491906200072f565b915050915091565b801580620003da5750604051636eb1769f60e11b81523060048201526001600160a01b03838116602483015284169063dd62ed3e9060440160206040518083038186803b1580156200039d57600080fd5b505afa158015620003b2573d6000803e3d6000fd5b505050506040513d601f19601f82011682018060405250810190620003d8919062000855565b155b620004525760405162461bcd60e51b815260206004820152603660248201527f5361666545524332303a20617070726f76652066726f6d206e6f6e2d7a65726f60448201527f20746f206e6f6e2d7a65726f20616c6c6f77616e63650000000000000000000060648201526084015b60405180910390fd5b604080516001600160a01b038416602482015260448082018490528251808303909101815260649091019091526020810180516001600160e01b0390811663095ea7b360e01b17909152620004aa918591620004af16565b505050565b60006200050b826040518060400160405280602081526020017f5361666545524332303a206c6f772d6c6576656c2063616c6c206661696c6564815250856001600160a01b03166200058d60201b6200258c179092919060201c565b805190915015620004aa57808060200190518101906200052c919062000837565b620004aa5760405162461bcd60e51b815260206004820152602a60248201527f5361666545524332303a204552433230206f7065726174696f6e20646964206e6044820152691bdd081cdd58d8d9595960b21b606482015260840162000449565b60606200059e8484600085620005a8565b90505b9392505050565b6060824710156200060b5760405162461bcd60e51b815260206004820152602660248201527f416464726573733a20696e73756666696369656e742062616c616e636520666f6044820152651c8818d85b1b60d21b606482015260840162000449565b843b6200065b5760405162461bcd60e51b815260206004820152601d60248201527f416464726573733a2063616c6c20746f206e6f6e2d636f6e7472616374000000604482015260640162000449565b600080866001600160a01b031685876040516200067991906200086f565b60006040518083038185875af1925050503d8060008114620006b8576040519150601f19603f3d011682016040523d82523d6000602084013e620006bd565b606091505b509092509050620006d0828286620006db565b979650505050505050565b60608315620006ec575081620005a1565b825115620006fd5782518084602001fd5b8160405162461bcd60e51b81526004016200044991906200088d565b805180151581146200072a57600080fd5b919050565b6000602082840312156200074257600080fd5b8151620005a181620008f5565b60008060008060008060008060008060006101608c8e0312156200077257600080fd5b8b516200077f81620008f5565b60208d0151909b506200079281620008f5565b60408d0151909a50620007a581620008f5565b60608d0151909950620007b881620008f5565b60808d0151909850620007cb81620008f5565b60a08d0151909750620007de81620008f5565b60c08d015160e08e01519197509550620007f881620008f5565b6101008d01519094506200080c81620008f5565b92506200081d6101208d0162000719565b91506101408c015190509295989b509295989b9093969950565b6000602082840312156200084a57600080fd5b620005a18262000719565b6000602082840312156200086857600080fd5b5051919050565b6000825162000883818460208701620008c2565b9190910192915050565b6020815260008251806020840152620008ae816040850160208701620008c2565b601f01601f19169190910160400192915050565b60005b83811015620008df578181015183820152602001620008c5565b83811115620008ef576000848401525b50505050565b6001600160a01b03811681146200090b57600080fd5b50565b60805160601c60a05160601c60c05160601c60e05160601c610100516101205160601c6101405160601c610160516101805160601c6101a05160601c6101c05160f81c6142e662000b0e60003960008181611ad10152611b2a015260006119ae0152600061198d0152600081816125cd015281816126f4015281816127be01526128cc0152600081816125fd01528181612721015281816127eb01526128f201526000611e3f0152600081816113a3015281816114e101528181611cb601528181612db9015261312c0152600081816103a8015281816110ed015281816111d201528181612e970152612f7b01526000818161033f01528181610f9a015281816113800152818161148a01528181611c9301528181612d5301528181612d960152818161310901526131830152600081816102270152818161046d0152818161057c01528181610736015281816107bd015281816108bb01528181610a4601528181610c2e01528181610dc7015261170c01526000818161027b0152818161055401528181610670015281816107140152818161079b0152818161097901528181610a2401528181610cee01528181610da5015281816110370152818161124101528181611590015281816116d5015281816119d901528181611aa201528181611ce101528181611d6a0152818161209b01526121d101526142e66000f3fe608060405234801561001057600080fd5b50600436106101775760003560e01c80638da5cb5b116100d8578063c45a01551161008c578063e8bd73a511610066578063e8bd73a514610387578063f2fde38b14610390578063f4734b0c146103a357600080fd5b8063c45a01551461033a578063d9253c2d14610361578063daa656de1461037457600080fd5b8063a7edd48c116100bd578063a7edd48c146102f4578063ba6275ab14610307578063c415b95c1461031a57600080fd5b80638da5cb5b146102c3578063a42dce80146102e157600080fd5b80636b2ace871161012f578063747efea111610114578063747efea11461027657806374ceb2671461029d5780637f8661a1146102b057600080fd5b80636b2ace8714610222578063715018a61461026e57600080fd5b80635066ebdd116101605780635066ebdd146101b55780635ce6c327146101e85780636939aaf51461020d57600080fd5b806318fccc761461017c5780632e1a7d4d146101a2575b600080fd5b61018f61018a366004613e1c565b6103ca565b6040519081526020015b60405180910390f35b61018f6101b0366004613dea565b61081d565b6101d86101c3366004613be0565b60026020526000908152604090205460ff1681565b6040519015158152602001610199565b6000546101d89074010000000000000000000000000000000000000000900460ff1681565b61022061021b366004613dea565b610a70565b005b6102497f000000000000000000000000000000000000000000000000000000000000000081565b60405173ffffffffffffffffffffffffffffffffffffffff9091168152602001610199565b610220610a7c565b6102497f000000000000000000000000000000000000000000000000000000000000000081565b6102206102ab366004613c1a565b610b09565b61018f6102be366004613dea565b610c14565b60005473ffffffffffffffffffffffffffffffffffffffff16610249565b6102206102ef366004613be0565b610e31565b61018f610302366004613e1c565b610ef9565b610220610315366004613e41565b6115ed565b6003546102499073ffffffffffffffffffffffffffffffffffffffff1681565b6102497f000000000000000000000000000000000000000000000000000000000000000081565b6101d861036f366004613c53565b61176e565b61018f610382366004613dea565b6118e7565b61018f60015481565b61022061039e366004613be0565b61224b565b6102497f000000000000000000000000000000000000000000000000000000000000000081565b6000805474010000000000000000000000000000000000000000900460ff1615610455576040517f08c379a000000000000000000000000000000000000000000000000000000000815260206004820152601960248201527f42656e746f426f782053747261746567793a206578697465640000000000000060448201526064015b60405180910390fd5b3373ffffffffffffffffffffffffffffffffffffffff7f000000000000000000000000000000000000000000000000000000000000000016146104f4576040517f08c379a000000000000000000000000000000000000000000000000000000000815260206004820181905260248201527f42656e746f426f782053747261746567793a206f6e6c792042656e746f426f78604482015260640161044c565b73ffffffffffffffffffffffffffffffffffffffff82163014801561060b57506001546040517f4ffe34db00000000000000000000000000000000000000000000000000000000815273ffffffffffffffffffffffffffffffffffffffff7f0000000000000000000000000000000000000000000000000000000000000000811660048301527f00000000000000000000000000000000000000000000000000000000000000001690634ffe34db90602401604080518083038186803b1580156105bd57600080fd5b505afa1580156105d1573d6000803e3d6000fd5b505050506040513d601f19601f820116820180604052508101906105f59190613d3f565b516fffffffffffffffffffffffffffffffff1611155b80156106175750600083115b15610813576000610627846125a5565b6040517f70a0823100000000000000000000000000000000000000000000000000000000815230600482015290915060009073ffffffffffffffffffffffffffffffffffffffff7f000000000000000000000000000000000000000000000000000000000000000016906370a082319060240160206040518083038186803b1580156106b257600080fd5b505afa1580156106c6573d6000803e3d6000fd5b505050506040513d601f19601f820116820180604052508101906106ea9190613e03565b90506000821261076457801561075b5761075b73ffffffffffffffffffffffffffffffffffffffff7f0000000000000000000000000000000000000000000000000000000000000000167f000000000000000000000000000000000000000000000000000000000000000083612676565b91506108179050565b801561080b5760006107768284613fc6565b905060008113156107f8576107e273ffffffffffffffffffffffffffffffffffffffff7f0000000000000000000000000000000000000000000000000000000000000000167f000000000000000000000000000000000000000000000000000000000000000083612676565b6107f36107ee846141ba565b6126cc565b610801565b610801826126cc565b9250610817915050565b509050610817565b5060005b92915050565b6000805474010000000000000000000000000000000000000000900460ff16156108a3576040517f08c379a000000000000000000000000000000000000000000000000000000000815260206004820152601960248201527f42656e746f426f782053747261746567793a2065786974656400000000000000604482015260640161044c565b3373ffffffffffffffffffffffffffffffffffffffff7f00000000000000000000000000000000000000000000000000000000000000001614610942576040517f08c379a000000000000000000000000000000000000000000000000000000000815260206004820181905260248201527f42656e746f426f782053747261746567793a206f6e6c792042656e746f426f78604482015260640161044c565b61094b82612796565b6040517f70a082310000000000000000000000000000000000000000000000000000000081523060048201527f000000000000000000000000000000000000000000000000000000000000000073ffffffffffffffffffffffffffffffffffffffff16906370a082319060240160206040518083038186803b1580156109d057600080fd5b505afa1580156109e4573d6000803e3d6000fd5b505050506040513d601f19601f82011682018060405250810190610a089190613e03565b9050610a6b73ffffffffffffffffffffffffffffffffffffffff7f0000000000000000000000000000000000000000000000000000000000000000167f000000000000000000000000000000000000000000000000000000000000000083612676565b919050565b610a79816126cc565b50565b60005473ffffffffffffffffffffffffffffffffffffffff163314610afd576040517f08c379a000000000000000000000000000000000000000000000000000000000815260206004820181905260248201527f4f776e61626c653a2063616c6c6572206973206e6f7420746865206f776e6572604482015260640161044c565b610b07600061282f565b565b60005473ffffffffffffffffffffffffffffffffffffffff163314610b8a576040517f08c379a000000000000000000000000000000000000000000000000000000000815260206004820181905260248201527f4f776e61626c653a2063616c6c6572206973206e6f7420746865206f776e6572604482015260640161044c565b73ffffffffffffffffffffffffffffffffffffffff821660008181526002602090815260409182902080547fffffffffffffffffffffffffffffffffffffffffffffffffffffffffffffff001685151590811790915591519182527fb08a78f53a7fe017d5ca8c8fcdbf06ffa2c31f2ab668378a17700d9fc558717e910160405180910390a25050565b60003373ffffffffffffffffffffffffffffffffffffffff7f00000000000000000000000000000000000000000000000000000000000000001614610cb5576040517f08c379a000000000000000000000000000000000000000000000000000000000815260206004820181905260248201527f42656e746f426f782053747261746567793a206f6e6c792042656e746f426f78604482015260640161044c565b610cbd6128a4565b6040517f70a082310000000000000000000000000000000000000000000000000000000081523060048201526000907f000000000000000000000000000000000000000000000000000000000000000073ffffffffffffffffffffffffffffffffffffffff16906370a082319060240160206040518083038186803b158015610d4557600080fd5b505afa158015610d59573d6000803e3d6000fd5b505050506040513d601f19601f82011682018060405250810190610d7d9190613e03565b9050610d8983826140ca565b9150610dec73ffffffffffffffffffffffffffffffffffffffff7f0000000000000000000000000000000000000000000000000000000000000000167f000000000000000000000000000000000000000000000000000000000000000083612676565b50600080547fffffffffffffffffffffff00ffffffffffffffffffffffffffffffffffffffff1674010000000000000000000000000000000000000000179055919050565b60005473ffffffffffffffffffffffffffffffffffffffff163314610eb2576040517f08c379a000000000000000000000000000000000000000000000000000000000815260206004820181905260248201527f4f776e61626c653a2063616c6c6572206973206e6f7420746865206f776e6572604482015260640161044c565b600380547fffffffffffffffffffffffff00000000000000000000000000000000000000001673ffffffffffffffffffffffffffffffffffffffff92909216919091179055565b3360009081526002602052604081205460ff16610f98576040517f08c379a000000000000000000000000000000000000000000000000000000000815260206004820152602160248201527f42656e746f426f782053747261746567793a206f6e6c79204578656375746f7260448201527f7300000000000000000000000000000000000000000000000000000000000000606482015260840161044c565b7f000000000000000000000000000000000000000000000000000000000000000073ffffffffffffffffffffffffffffffffffffffff16611035576040517f08c379a000000000000000000000000000000000000000000000000000000000815260206004820152601e60248201527f42656e746f426f782053747261746567793a2063616e6e6f7420737761700000604482015260640161044c565b7f000000000000000000000000000000000000000000000000000000000000000073ffffffffffffffffffffffffffffffffffffffff168273ffffffffffffffffffffffffffffffffffffffff1614156110eb576040517f08c379a000000000000000000000000000000000000000000000000000000000815260206004820152601f60248201527f42656e746f426f782053747261746567793a20696e76616c6964207377617000604482015260640161044c565b7f000000000000000000000000000000000000000000000000000000000000000073ffffffffffffffffffffffffffffffffffffffff161515600081611132576002611135565b60035b60ff1667ffffffffffffffff81111561115057611150614251565b604051908082528060200260200182016040528015611179578160200160208202803683370190505b509050838160008151811061119057611190614222565b602002602001019073ffffffffffffffffffffffffffffffffffffffff16908173ffffffffffffffffffffffffffffffffffffffff1681525050811561123f577f00000000000000000000000000000000000000000000000000000000000000008160018151811061120457611204614222565b602002602001019073ffffffffffffffffffffffffffffffffffffffff16908173ffffffffffffffffffffffffffffffffffffffff16815250505b7f0000000000000000000000000000000000000000000000000000000000000000816001835161126f919061413e565b8151811061127f5761127f614222565b602002602001019073ffffffffffffffffffffffffffffffffffffffff16908173ffffffffffffffffffffffffffffffffffffffff16815250506000816000815181106112ce576112ce614222565b60209081029190910101516040517f70a0823100000000000000000000000000000000000000000000000000000000815230600482015273ffffffffffffffffffffffffffffffffffffffff909116906370a082319060240160206040518083038186803b15801561133f57600080fd5b505afa158015611353573d6000803e3d6000fd5b505050506040513d601f19601f820116820180604052508101906113779190613e03565b905060006113c77f000000000000000000000000000000000000000000000000000000000000000083857f0000000000000000000000000000000000000000000000000000000000000000612965565b905080600182516113d8919061413e565b815181106113e8576113e8614222565b6020026020010151945086851015611482576040517f08c379a000000000000000000000000000000000000000000000000000000000815260206004820152602660248201527f42656e746f426f782053747261746567793a20696e73756666696369656e742060448201527f6f75747075740000000000000000000000000000000000000000000000000000606482015260840161044c565b6115606115057f0000000000000000000000000000000000000000000000000000000000000000856000815181106114bc576114bc614222565b6020026020010151866001815181106114d7576114d7614222565b60200260200101517f0000000000000000000000000000000000000000000000000000000000000000612b0c565b8260008151811061151857611518614222565b60200260200101518560008151811061153357611533614222565b602002602001015173ffffffffffffffffffffffffffffffffffffffff166126769092919063ffffffff16565b61156b818430612c26565b604080518381526020810187905273ffffffffffffffffffffffffffffffffffffffff7f00000000000000000000000000000000000000000000000000000000000000008116929089169133917f3b644720db133e4e05b302a56bdb46867109debe30c44b4f25566b3c41ed627b910160405180910390a45050505092915050565b3360009081526002602052604090205460ff1661168c576040517f08c379a000000000000000000000000000000000000000000000000000000000815260206004820152602160248201527f42656e746f426f782053747261746567793a206f6e6c79204578656375746f7260448201527f7300000000000000000000000000000000000000000000000000000000000000606482015260840161044c565b83156116985760018490555b6040517f66c6bb0b00000000000000000000000000000000000000000000000000000000815273ffffffffffffffffffffffffffffffffffffffff7f0000000000000000000000000000000000000000000000000000000000000000811660048301528415156024830152604482018490527f000000000000000000000000000000000000000000000000000000000000000016906366c6bb0b90606401600060405180830381600087803b15801561175057600080fd5b505af1158015611764573d6000803e3d6000fd5b5050505050505050565b6000805473ffffffffffffffffffffffffffffffffffffffff1633146117f0576040517f08c379a000000000000000000000000000000000000000000000000000000000815260206004820181905260248201527f4f776e61626c653a2063616c6c6572206973206e6f7420746865206f776e6572604482015260640161044c565b60005474010000000000000000000000000000000000000000900460ff16611874576040517f08c379a000000000000000000000000000000000000000000000000000000000815260206004820152601d60248201527f42656e746f426f782053747261746567793a206e6f7420657869746564000000604482015260640161044c565b8373ffffffffffffffffffffffffffffffffffffffff16838360405161189a9190613f03565b60006040518083038185875af1925050503d80600081146118d7576040519150601f19603f3d011682016040523d82523d6000602084013e6118dc565b606091505b509095945050505050565b3360009081526002602052604081205460ff16611986576040517f08c379a000000000000000000000000000000000000000000000000000000000815260206004820152602160248201527f42656e746f426f782053747261746567793a206f6e6c79204578656375746f7260448201527f7300000000000000000000000000000000000000000000000000000000000000606482015260840161044c565b60006119d27f00000000000000000000000000000000000000000000000000000000000000007f0000000000000000000000000000000000000000000000000000000000000000612e93565b90506000807f000000000000000000000000000000000000000000000000000000000000000073ffffffffffffffffffffffffffffffffffffffff16630902f1ac6040518163ffffffff1660e01b815260040160606040518083038186803b158015611a3d57600080fd5b505afa158015611a51573d6000803e3d6000fd5b505050506040513d601f19601f82011682018060405250810190611a759190613d9a565b506dffffffffffffffffffffffffffff1691506dffffffffffffffffffffffffffff169150600080611ac67f00000000000000000000000000000000000000000000000000000000000000006131ca565b915091506000611b027f0000000000000000000000000000000000000000000000000000000000000000611afa5784611afc565b855b876132d8565b60408051600280825260608201835292935060009290916020830190803683370190505090507f000000000000000000000000000000000000000000000000000000000000000015611bef578381600081518110611b6257611b62614222565b602002602001019073ffffffffffffffffffffffffffffffffffffffff16908173ffffffffffffffffffffffffffffffffffffffff16815250508281600181518110611bb057611bb0614222565b602002602001019073ffffffffffffffffffffffffffffffffffffffff16908173ffffffffffffffffffffffffffffffffffffffff1681525050611c8c565b8281600081518110611c0357611c03614222565b602002602001019073ffffffffffffffffffffffffffffffffffffffff16908173ffffffffffffffffffffffffffffffffffffffff16815250508381600181518110611c5157611c51614222565b602002602001019073ffffffffffffffffffffffffffffffffffffffff16908173ffffffffffffffffffffffffffffffffffffffff16815250505b6000611cda7f000000000000000000000000000000000000000000000000000000000000000084847f0000000000000000000000000000000000000000000000000000000000000000612965565b9050611d2e7f000000000000000000000000000000000000000000000000000000000000000082600081518110611d1357611d13614222565b60200260200101518460008151811061153357611533614222565b611d39818330612c26565b6040517f70a082310000000000000000000000000000000000000000000000000000000081523060048201526000907f000000000000000000000000000000000000000000000000000000000000000073ffffffffffffffffffffffffffffffffffffffff16906370a082319060240160206040518083038186803b158015611dc157600080fd5b505afa158015611dd5573d6000803e3d6000fd5b505050506040513d601f19601f82011682018060405250810190611df99190613e03565b6040517f70a0823100000000000000000000000000000000000000000000000000000000815230600482015290915073ffffffffffffffffffffffffffffffffffffffff7f000000000000000000000000000000000000000000000000000000000000000081169163e8e3370091899189918316906370a082319060240160206040518083038186803b158015611e8f57600080fd5b505afa158015611ea3573d6000803e3d6000fd5b505050506040513d601f19601f82011682018060405250810190611ec79190613e03565b6040517f70a0823100000000000000000000000000000000000000000000000000000000815230600482015273ffffffffffffffffffffffffffffffffffffffff8b16906370a082319060240160206040518083038186803b158015611f2c57600080fd5b505afa158015611f40573d6000803e3d6000fd5b505050506040513d601f19601f82011682018060405250810190611f649190613e03565b6040517fffffffff0000000000000000000000000000000000000000000000000000000060e087901b16815273ffffffffffffffffffffffffffffffffffffffff94851660048201529390921660248401526044830152606482015260016084820181905260a48201523060c48201527ff00000000000000000000000000000000000000000000000000000000000000060e482015261010401606060405180830381600087803b15801561201857600080fd5b505af115801561202c573d6000803e3d6000fd5b505050506040513d601f19601f820116820180604052508101906120509190613e8b565b50506040517f70a0823100000000000000000000000000000000000000000000000000000000815230600482015260009150829073ffffffffffffffffffffffffffffffffffffffff7f000000000000000000000000000000000000000000000000000000000000000016906370a082319060240160206040518083038186803b1580156120dd57600080fd5b505afa1580156120f1573d6000803e3d6000fd5b505050506040513d601f19601f820116820180604052508101906121159190613e03565b61211f919061413e565b90508b81101561218b576040517f08c379a000000000000000000000000000000000000000000000000000000000815260206004820152601d60248201527f4c5053747261746567793a20534c4950504147455f544f4f5f48494748000000604482015260640161044c565b6000606461219a600a8461408d565b6121a49190614052565b90506121b0818361413e565b600354909c506121fa9073ffffffffffffffffffffffffffffffffffffffff7f00000000000000000000000000000000000000000000000000000000000000008116911683612676565b60408051838152602081018e90529081018290527ffac4ceeb73d90e5d855cf54c2fc52267e49df26636cde8d7ab271952cd081b779060600160405180910390a15050505050505050505050919050565b60005473ffffffffffffffffffffffffffffffffffffffff1633146122cc576040517f08c379a000000000000000000000000000000000000000000000000000000000815260206004820181905260248201527f4f776e61626c653a2063616c6c6572206973206e6f7420746865206f776e6572604482015260640161044c565b73ffffffffffffffffffffffffffffffffffffffff811661236f576040517f08c379a000000000000000000000000000000000000000000000000000000000815260206004820152602660248201527f4f776e61626c653a206e6577206f776e657220697320746865207a65726f206160448201527f6464726573730000000000000000000000000000000000000000000000000000606482015260840161044c565b610a798161282f565b80158061242757506040517fdd62ed3e00000000000000000000000000000000000000000000000000000000815230600482015273ffffffffffffffffffffffffffffffffffffffff838116602483015284169063dd62ed3e9060440160206040518083038186803b1580156123ed57600080fd5b505afa158015612401573d6000803e3d6000fd5b505050506040513d601f19601f820116820180604052508101906124259190613e03565b155b6124b3576040517f08c379a000000000000000000000000000000000000000000000000000000000815260206004820152603660248201527f5361666545524332303a20617070726f76652066726f6d206e6f6e2d7a65726f60448201527f20746f206e6f6e2d7a65726f20616c6c6f77616e636500000000000000000000606482015260840161044c565b60405173ffffffffffffffffffffffffffffffffffffffff83166024820152604481018290526125879084907f095ea7b300000000000000000000000000000000000000000000000000000000906064015b604080517fffffffffffffffffffffffffffffffffffffffffffffffffffffffffffffffe08184030181529190526020810180517bffffffffffffffffffffffffffffffffffffffffffffffffffffffff167fffffffff0000000000000000000000000000000000000000000000000000000090931692909217909152613333565b505050565b606061259b848460008561343f565b90505b9392505050565b6040517f441a3e700000000000000000000000000000000000000000000000000000000081527f00000000000000000000000000000000000000000000000000000000000000006004820152600060248201819052907f000000000000000000000000000000000000000000000000000000000000000073ffffffffffffffffffffffffffffffffffffffff169063441a3e7090604401600060405180830381600087803b15801561265657600080fd5b505af115801561266a573d6000803e3d6000fd5b50600095945050505050565b60405173ffffffffffffffffffffffffffffffffffffffff83166024820152604481018290526125879084907fa9059cbb0000000000000000000000000000000000000000000000000000000090606401612505565b6040517fe2bbb1580000000000000000000000000000000000000000000000000000000081527f00000000000000000000000000000000000000000000000000000000000000006004820152602481018290527f000000000000000000000000000000000000000000000000000000000000000073ffffffffffffffffffffffffffffffffffffffff169063e2bbb158906044015b600060405180830381600087803b15801561277b57600080fd5b505af115801561278f573d6000803e3d6000fd5b5050505050565b6040517f441a3e700000000000000000000000000000000000000000000000000000000081527f00000000000000000000000000000000000000000000000000000000000000006004820152602481018290527f000000000000000000000000000000000000000000000000000000000000000073ffffffffffffffffffffffffffffffffffffffff169063441a3e7090604401612761565b6000805473ffffffffffffffffffffffffffffffffffffffff8381167fffffffffffffffffffffffff0000000000000000000000000000000000000000831681178455604051919092169283917f8be0079c531659141344cd1fd0a4f28419497f9722a3daafe3b4186f6b6457e09190a35050565b6040517f5312ea8e0000000000000000000000000000000000000000000000000000000081527f000000000000000000000000000000000000000000000000000000000000000060048201527f000000000000000000000000000000000000000000000000000000000000000073ffffffffffffffffffffffffffffffffffffffff1690635312ea8e90602401600060405180830381600087803b15801561294b57600080fd5b505af115801561295f573d6000803e3d6000fd5b50505050565b60606002835110156129d3576040517f08c379a000000000000000000000000000000000000000000000000000000000815260206004820152601e60248201527f556e697377617056324c6962726172793a20494e56414c49445f504154480000604482015260640161044c565b825167ffffffffffffffff8111156129ed576129ed614251565b604051908082528060200260200182016040528015612a16578160200160208202803683370190505b5090508381600081518110612a2d57612a2d614222565b60200260200101818152505060005b60018451612a4a919061413e565b811015612b0357600080612a9e88878581518110612a6a57612a6a614222565b602002602001015188866001612a80919061403a565b81518110612a9057612a90614222565b6020026020010151886135bf565b91509150612ac6848481518110612ab757612ab7614222565b602002602001015183836136cf565b84612ad285600161403a565b81518110612ae257612ae2614222565b60200260200101818152505050508080612afb90614181565b915050612a3c565b50949350505050565b6000806000612b1b868661383f565b6040517fffffffffffffffffffffffffffffffffffffffff000000000000000000000000606084811b8216602084015283901b166034820152919350915087906048016040516020818303038152906040528051906020012085604051602001612be5939291907fff00000000000000000000000000000000000000000000000000000000000000815260609390931b7fffffffffffffffffffffffffffffffffffffffff0000000000000000000000001660018401526015830191909152603582015260550190565b604080517fffffffffffffffffffffffffffffffffffffffffffffffffffffffffffffffe08184030181529190528051602090910120979650505050505050565b60005b60018351612c37919061413e565b81101561295f57600080848381518110612c5357612c53614222565b602002602001015185846001612c69919061403a565b81518110612c7957612c79614222565b60200260200101519150915060008173ffffffffffffffffffffffffffffffffffffffff168373ffffffffffffffffffffffffffffffffffffffff1610612cc05781612cc2565b825b9050600087612cd286600161403a565b81518110612ce257612ce2614222565b602002602001015190506000808373ffffffffffffffffffffffffffffffffffffffff168673ffffffffffffffffffffffffffffffffffffffff1614612d2a57826000612d2e565b6000835b91509150600060028a51612d42919061413e565b8810612d4e5788612d8f565b612d8f7f0000000000000000000000000000000000000000000000000000000000000000878c612d7f8c600261403a565b815181106114d7576114d7614222565b9050612ddd7f000000000000000000000000000000000000000000000000000000000000000088887f0000000000000000000000000000000000000000000000000000000000000000612b0c565b73ffffffffffffffffffffffffffffffffffffffff1663022c0d9f84848460006040519080825280601f01601f191660200182016040528015612e27576020820181803683370190505b506040518563ffffffff1660e01b8152600401612e479493929190613f32565b600060405180830381600087803b158015612e6157600080fd5b505af1158015612e75573d6000803e3d6000fd5b50505050505050505050508080612e8b90614181565b915050612c29565b60007f000000000000000000000000000000000000000000000000000000000000000073ffffffffffffffffffffffffffffffffffffffff1615158181612edb576002612ede565b60035b60ff1667ffffffffffffffff811115612ef957612ef9614251565b604051908082528060200260200182016040528015612f22578160200160208202803683370190505b5090508481600081518110612f3957612f39614222565b602002602001019073ffffffffffffffffffffffffffffffffffffffff16908173ffffffffffffffffffffffffffffffffffffffff16815250508115612fe8577f000000000000000000000000000000000000000000000000000000000000000081600181518110612fad57612fad614222565b602002602001019073ffffffffffffffffffffffffffffffffffffffff16908173ffffffffffffffffffffffffffffffffffffffff16815250505b838160018351612ff8919061413e565b8151811061300857613008614222565b602002602001019073ffffffffffffffffffffffffffffffffffffffff16908173ffffffffffffffffffffffffffffffffffffffff168152505060008160008151811061305757613057614222565b60209081029190910101516040517f70a0823100000000000000000000000000000000000000000000000000000000815230600482015273ffffffffffffffffffffffffffffffffffffffff909116906370a082319060240160206040518083038186803b1580156130c857600080fd5b505afa1580156130dc573d6000803e3d6000fd5b505050506040513d601f19601f820116820180604052508101906131009190613e03565b905060006131507f000000000000000000000000000000000000000000000000000000000000000083857f0000000000000000000000000000000000000000000000000000000000000000612965565b90508060018251613161919061413e565b8151811061317157613171614222565b602002602001015194506131b56115057f0000000000000000000000000000000000000000000000000000000000000000856000815181106114bc576114bc614222565b6131c0818430612c26565b5050505092915050565b60008060008390508073ffffffffffffffffffffffffffffffffffffffff16630dfe16816040518163ffffffff1660e01b815260040160206040518083038186803b15801561321857600080fd5b505afa15801561322c573d6000803e3d6000fd5b505050506040513d601f19601f820116820180604052508101906132509190613bfd565b92508073ffffffffffffffffffffffffffffffffffffffff1663d21220a76040518163ffffffff1660e01b815260040160206040518083038186803b15801561329857600080fd5b505afa1580156132ac573d6000803e3d6000fd5b505050506040513d601f19601f820116820180604052508101906132d09190613bfd565b915050915091565b60006107ca6132e9846107cd61408d565b61331f6132f986623cda2961408d565b61330686623cda2061408d565b613310919061403a565b61331a908761408d565b6139c4565b613329919061413e565b61259e9190614052565b6000613395826040518060400160405280602081526020017f5361666545524332303a206c6f772d6c6576656c2063616c6c206661696c65648152508573ffffffffffffffffffffffffffffffffffffffff1661258c9092919063ffffffff16565b80519091501561258757808060200190518101906133b39190613d22565b612587576040517f08c379a000000000000000000000000000000000000000000000000000000000815260206004820152602a60248201527f5361666545524332303a204552433230206f7065726174696f6e20646964206e60448201527f6f74207375636365656400000000000000000000000000000000000000000000606482015260840161044c565b6060824710156134d1576040517f08c379a000000000000000000000000000000000000000000000000000000000815260206004820152602660248201527f416464726573733a20696e73756666696369656e742062616c616e636520666f60448201527f722063616c6c0000000000000000000000000000000000000000000000000000606482015260840161044c565b843b613539576040517f08c379a000000000000000000000000000000000000000000000000000000000815260206004820152601d60248201527f416464726573733a2063616c6c20746f206e6f6e2d636f6e7472616374000000604482015260640161044c565b6000808673ffffffffffffffffffffffffffffffffffffffff1685876040516135629190613f03565b60006040518083038185875af1925050503d806000811461359f576040519150601f19603f3d011682016040523d82523d6000602084013e6135a4565b606091505b50915091506135b4828286613b4f565b979650505050505050565b60008060006135ce868661383f565b5090506000806135e089898989612b0c565b73ffffffffffffffffffffffffffffffffffffffff16630902f1ac6040518163ffffffff1660e01b815260040160606040518083038186803b15801561362557600080fd5b505afa158015613639573d6000803e3d6000fd5b505050506040513d601f19601f8201168201806040525081019061365d9190613d9a565b506dffffffffffffffffffffffffffff1691506dffffffffffffffffffffffffffff1691508273ffffffffffffffffffffffffffffffffffffffff168873ffffffffffffffffffffffffffffffffffffffff16146136bc5780826136bf565b81815b909a909950975050505050505050565b6000808411613760576040517f08c379a000000000000000000000000000000000000000000000000000000000815260206004820152602b60248201527f556e697377617056324c6962726172793a20494e53554646494349454e545f4960448201527f4e5055545f414d4f554e54000000000000000000000000000000000000000000606482015260840161044c565b6000831180156137705750600082115b6137fc576040517f08c379a000000000000000000000000000000000000000000000000000000000815260206004820152602860248201527f556e697377617056324c6962726172793a20494e53554646494349454e545f4c60448201527f4951554944495459000000000000000000000000000000000000000000000000606482015260840161044c565b600061380a856103e561408d565b90506000613818848361408d565b9050600082613829876103e861408d565b613833919061403a565b90506135b48183614052565b6000808273ffffffffffffffffffffffffffffffffffffffff168473ffffffffffffffffffffffffffffffffffffffff1614156138fe576040517f08c379a000000000000000000000000000000000000000000000000000000000815260206004820152602560248201527f556e697377617056324c6962726172793a204944454e544943414c5f4144445260448201527f4553534553000000000000000000000000000000000000000000000000000000606482015260840161044c565b8273ffffffffffffffffffffffffffffffffffffffff168473ffffffffffffffffffffffffffffffffffffffff161061393857828461393b565b83835b909250905073ffffffffffffffffffffffffffffffffffffffff82166139bd576040517f08c379a000000000000000000000000000000000000000000000000000000000815260206004820152601e60248201527f556e697377617056324c6962726172793a205a45524f5f414444524553530000604482015260640161044c565b9250929050565b6000816139d357506000919050565b81600170010000000000000000000000000000000082106139f95760809190911c9060401b5b680100000000000000008210613a145760409190911c9060201b5b6401000000008210613a2b5760209190911c9060101b5b620100008210613a405760109190911c9060081b5b6101008210613a545760089190911c9060041b5b60108210613a675760049190911c9060021b5b60088210613a735760011b5b6001613a7f8286614052565b613a89908361403a565b901c90506001613a998286614052565b613aa3908361403a565b901c90506001613ab38286614052565b613abd908361403a565b901c90506001613acd8286614052565b613ad7908361403a565b901c90506001613ae78286614052565b613af1908361403a565b901c90506001613b018286614052565b613b0b908361403a565b901c90506001613b1b8286614052565b613b25908361403a565b901c90506000613b358286614052565b9050808210613b445780613b46565b815b95945050505050565b60608315613b5e57508161259e565b825115613b6e5782518084602001fd5b816040517f08c379a000000000000000000000000000000000000000000000000000000000815260040161044c9190613f1f565b80516dffffffffffffffffffffffffffff81168114610a6b57600080fd5b80516fffffffffffffffffffffffffffffffff81168114610a6b57600080fd5b600060208284031215613bf257600080fd5b813561259e81614280565b600060208284031215613c0f57600080fd5b815161259e81614280565b60008060408385031215613c2d57600080fd5b8235613c3881614280565b91506020830135613c48816142a2565b809150509250929050565b600080600060608486031215613c6857600080fd5b8335613c7381614280565b92506020848101359250604085013567ffffffffffffffff80821115613c9857600080fd5b818701915087601f830112613cac57600080fd5b813581811115613cbe57613cbe614251565b613cee847fffffffffffffffffffffffffffffffffffffffffffffffffffffffffffffffe0601f84011601613f77565b91508082528884828501011115613d0457600080fd5b80848401858401376000848284010152508093505050509250925092565b600060208284031215613d3457600080fd5b815161259e816142a2565b600060408284031215613d5157600080fd5b6040516040810181811067ffffffffffffffff82111715613d7457613d74614251565b604052613d8083613bc0565b8152613d8e60208401613bc0565b60208201529392505050565b600080600060608486031215613daf57600080fd5b613db884613ba2565b9250613dc660208501613ba2565b9150604084015163ffffffff81168114613ddf57600080fd5b809150509250925092565b600060208284031215613dfc57600080fd5b5035919050565b600060208284031215613e1557600080fd5b5051919050565b60008060408385031215613e2f57600080fd5b823591506020830135613c4881614280565b60008060008060808587031215613e5757600080fd5b843593506020850135613e69816142a2565b9250604085013591506060850135613e80816142a2565b939692955090935050565b600080600060608486031215613ea057600080fd5b8351925060208401519150604084015190509250925092565b60008151808452613ed1816020860160208601614155565b601f017fffffffffffffffffffffffffffffffffffffffffffffffffffffffffffffffe0169290920160200192915050565b60008251613f15818460208701614155565b9190910192915050565b60208152600061259e6020830184613eb9565b84815283602082015273ffffffffffffffffffffffffffffffffffffffff83166040820152608060608201526000613f6d6080830184613eb9565b9695505050505050565b604051601f82017fffffffffffffffffffffffffffffffffffffffffffffffffffffffffffffffe016810167ffffffffffffffff81118282101715613fbe57613fbe614251565b604052919050565b6000808212827f7fffffffffffffffffffffffffffffffffffffffffffffffffffffffffffffff03841381151615614000576140006141f3565b827f8000000000000000000000000000000000000000000000000000000000000000038412811615614034576140346141f3565b50500190565b6000821982111561404d5761404d6141f3565b500190565b600082614088577f4e487b7100000000000000000000000000000000000000000000000000000000600052601260045260246000fd5b500490565b6000817fffffffffffffffffffffffffffffffffffffffffffffffffffffffffffffffff04831182151516156140c5576140c56141f3565b500290565b6000808312837f800000000000000000000000000000000000000000000000000000000000000001831281151615614104576141046141f3565b837f7fffffffffffffffffffffffffffffffffffffffffffffffffffffffffffffff018313811615614138576141386141f3565b50500390565b600082821015614150576141506141f3565b500390565b60005b83811015614170578181015183820152602001614158565b8381111561295f5750506000910152565b60007fffffffffffffffffffffffffffffffffffffffffffffffffffffffffffffffff8214156141b3576141b36141f3565b5060010190565b60007f80000000000000000000000000000000000000000000000000000000000000008214156141ec576141ec6141f3565b5060000390565b7f4e487b7100000000000000000000000000000000000000000000000000000000600052601160045260246000fd5b7f4e487b7100000000000000000000000000000000000000000000000000000000600052603260045260246000fd5b7f4e487b7100000000000000000000000000000000000000000000000000000000600052604160045260246000fd5b73ffffffffffffffffffffffffffffffffffffffff81168114610a7957600080fd5b8015158114610a7957600080fdfea264697066735822122082b69e7a15efc4d2c134ecddece5faeedb0ff1776cad42098d3844b456884a1f64736f6c63430008070033",
  "devdoc": {
    "kind": "dev",
    "methods": {
      "afterExit(address,uint256,bytes)": {
        "details": "After exited, the owner can perform ANY call. This is to rescue any funds that didn't get released during exit or got earned afterwards due to vesting or airdrops, etc. "
      },
      "constructor": {
        "params": {
          "_bentoBox": "BentoBox address.",
          "_bridgeToken": "An intermediary token for swapping any rewards into it before swapping it to _inputPairToken",
          "_factory": "SushiSwap factory.",
          "_pairCodeHash": "This hash is used to calculate the address of a uniswap-like pool by providing only the addresses of the two ERC20 tokens.",
          "_strategyExecutor": "an EOA that will execute the safeHarvest function.",
          "_strategyToken": "Address of the underlying LP token the strategy invests.",
          "_usePairToken0": "When true, the _rewardToken will be swapped to the pair's token0 for one-sided liquidity providing, otherwise, the pair's token1."
        }
      },
      "exit(uint256)": {
        "details": "do not use isActive modifier here; allow bentobox to call strategy.exit() multiple times",
        "params": {
          "balance": "The amount of tokens the caller thinks it has invested."
        },
        "returns": {
          "amountAdded": "The delta (+profit or -loss) that occured in contrast to `balance`."
        }
      },
      "harvest(uint256,address)": {
        "details": "Only BentoBox can call harvest on this strategy.Ensures that (1) the caller was this contract (called through the safeHarvest function) and (2) that we are not being frontrun by a large BentoBox deposit when harvesting profits. ",
        "params": {
          "balance": "The amount of tokens the caller thinks it has invested.",
          "sender": "The address of the initiator of this transaction. Can be used for reimbursements, etc."
        },
        "returns": {
          "_0": "The delta (+profit or -loss) that occured in contrast to `balance`."
        }
      },
      "owner()": {
        "details": "Returns the address of the current owner."
      },
      "renounceOwnership()": {
        "details": "Leaves the contract without owner. It will not be possible to call `onlyOwner` functions anymore. Can only be called by the current owner. NOTE: Renouncing ownership will leave the contract without an owner, thereby removing any functionality that is only available to the owner."
      },
      "safeHarvest(uint256,bool,uint256,bool)": {
        "details": "maxBalance can be set to 0 to keep the previous value.maxChangeAmount can be set to 0 to allow for full rebalancing.",
        "params": {
          "harvestRewards": "If we want to claim any accrued reward tokens",
          "maxBalance": "The maximum balance of the underlying token that is allowed to be in BentoBox.",
          "maxChangeAmount": "When rebalancing - the maximum amount that will be deposited to or withdrawn from a strategy to BentoBox.",
          "rebalance": "Whether BentoBox should rebalance the strategy assets to acheive it's target allocation."
        }
      },
      "skim(uint256)": {
        "params": {
          "amount": "The amount of tokens to invest."
        }
      },
      "transferOwnership(address)": {
        "details": "Transfers ownership of the contract to a new account (`newOwner`). Can only be called by the current owner."
      },
      "withdraw(uint256)": {
        "details": "The `actualAmount` should be very close to the amount. The difference should NOT be used to report a loss. That's what harvest is for.",
        "params": {
          "amount": "The requested amount the caller wants to withdraw."
        },
        "returns": {
          "actualAmount": "The real amount that is withdrawn."
        }
      }
    },
    "version": 1
  },
  "userdoc": {
    "kind": "user",
    "methods": {
      "exit(uint256)": {
        "notice": "Withdraw all assets in the safest way possible. This shouldn't fail."
      },
      "harvest(uint256,address)": {
        "notice": "Harvest any profits made converted to the asset and pass them to the caller."
      },
      "safeHarvest(uint256,bool,uint256,bool)": {
        "notice": "Harvest profits while preventing a sandwich attack exploit."
      },
      "skim(uint256)": {
        "notice": "Send the assets to the Strategy and call skim to invest them."
      },
      "swapExactTokensForUnderlying(uint256,address)": {
        "notice": "Swap some tokens in the contract for the underlying and deposits them to address(this)"
      },
      "swapToLP(uint256)": {
        "notice": "Swap some tokens in the contract for the underlying and deposits them to address(this)"
      },
      "withdraw(uint256)": {
        "notice": "Withdraw assets. The returned amount can differ from the requested amount due to rounding."
      }
    },
    "version": 1
  },
  "storageLayout": {
    "storage": [
      {
        "astId": 7,
        "contract": "contracts/strategies/LPStrategy.sol:LPStrategy",
        "label": "_owner",
        "offset": 0,
        "slot": "0",
        "type": "t_address"
      },
      {
        "astId": 1322,
        "contract": "contracts/strategies/LPStrategy.sol:LPStrategy",
        "label": "exited",
        "offset": 20,
        "slot": "0",
        "type": "t_bool"
      },
      {
        "astId": 1325,
        "contract": "contracts/strategies/LPStrategy.sol:LPStrategy",
        "label": "maxBentoBoxBalance",
        "offset": 0,
        "slot": "1",
        "type": "t_uint256"
      },
      {
        "astId": 1330,
        "contract": "contracts/strategies/LPStrategy.sol:LPStrategy",
        "label": "strategyExecutors",
        "offset": 0,
        "slot": "2",
        "type": "t_mapping(t_address,t_bool)"
      },
      {
        "astId": 4044,
        "contract": "contracts/strategies/LPStrategy.sol:LPStrategy",
        "label": "feeCollector",
        "offset": 0,
        "slot": "3",
        "type": "t_address"
      }
    ],
    "types": {
      "t_address": {
        "encoding": "inplace",
        "label": "address",
        "numberOfBytes": "20"
      },
      "t_bool": {
        "encoding": "inplace",
        "label": "bool",
        "numberOfBytes": "1"
      },
      "t_mapping(t_address,t_bool)": {
        "encoding": "mapping",
        "key": "t_address",
        "label": "mapping(address => bool)",
        "numberOfBytes": "32",
        "value": "t_bool"
      },
      "t_uint256": {
        "encoding": "inplace",
        "label": "uint256",
        "numberOfBytes": "32"
      }
    }
  }
}