{
  "address": "0xaF2fBB9CB80EdFb7d3f2d170a65AE3bFa42d0B86",
  "abi": [
    {
      "inputs": [
        {
          "internalType": "address",
          "name": "_bentoBox",
          "type": "address"
        },
        {
          "internalType": "address",
          "name": "_dynamicStrategy",
          "type": "address"
        },
        {
          "internalType": "address",
          "name": "_strategyTokenIn",
          "type": "address"
        },
        {
          "internalType": "address",
          "name": "_strategyTokenOut",
          "type": "address"
        },
        {
          "internalType": "contract IOracle",
          "name": "_oracle",
          "type": "address"
        },
        {
          "internalType": "contract IMasterChef",
          "name": "_masterchef",
          "type": "address"
        },
        {
          "internalType": "address",
          "name": "_rewardToken",
          "type": "address"
        },
        {
          "internalType": "uint8",
          "name": "_pid",
          "type": "uint8"
        },
        {
          "internalType": "bool",
          "name": "_usePairToken0",
          "type": "bool"
        },
        {
          "components": [
            {
              "internalType": "address",
              "name": "factory",
              "type": "address"
            },
            {
              "internalType": "contract ISushiSwap",
              "name": "router",
              "type": "address"
            },
            {
              "internalType": "bytes32",
              "name": "pairCodeHash",
              "type": "bytes32"
            }
          ],
          "internalType": "struct DynamicSubLPStrategy.RouterInfo",
          "name": "_strategyTokenInInfo",
          "type": "tuple"
        },
        {
          "components": [
            {
              "internalType": "address",
              "name": "factory",
              "type": "address"
            },
            {
              "internalType": "contract ISushiSwap",
              "name": "router",
              "type": "address"
            },
            {
              "internalType": "bytes32",
              "name": "pairCodeHash",
              "type": "bytes32"
            }
          ],
          "internalType": "struct DynamicSubLPStrategy.RouterInfo",
          "name": "_strategyTokenOutInfo",
          "type": "tuple"
        }
      ],
      "stateMutability": "nonpayable",
      "type": "constructor"
    },
    {
      "anonymous": false,
      "inputs": [
        {
          "indexed": true,
          "internalType": "address",
          "name": "executor",
          "type": "address"
        },
        {
          "indexed": false,
          "internalType": "bool",
          "name": "allowed",
          "type": "bool"
        }
      ],
      "name": "LogSetStrategyExecutor",
      "type": "event"
    },
    {
      "anonymous": false,
      "inputs": [
        {
          "indexed": false,
          "internalType": "uint256",
          "name": "total",
          "type": "uint256"
        },
        {
          "indexed": false,
          "internalType": "uint256",
          "name": "strategyAmount",
          "type": "uint256"
        },
        {
          "indexed": false,
          "internalType": "uint256",
          "name": "feeAmount",
          "type": "uint256"
        }
      ],
      "name": "LpMinted",
      "type": "event"
    },
    {
      "anonymous": false,
      "inputs": [
        {
          "indexed": true,
          "internalType": "address",
          "name": "previousOwner",
          "type": "address"
        },
        {
          "indexed": true,
          "internalType": "address",
          "name": "newOwner",
          "type": "address"
        }
      ],
      "name": "OwnershipTransferred",
      "type": "event"
    },
    {
      "inputs": [],
      "name": "bentoBox",
      "outputs": [
        {
          "internalType": "address",
          "name": "",
          "type": "address"
        }
      ],
      "stateMutability": "view",
      "type": "function"
    },
    {
      "inputs": [],
      "name": "dynamicStrategy",
      "outputs": [
        {
          "internalType": "address",
          "name": "",
          "type": "address"
        }
      ],
      "stateMutability": "view",
      "type": "function"
    },
    {
      "inputs": [],
      "name": "exit",
      "outputs": [
        {
          "internalType": "uint256",
          "name": "actualAmount",
          "type": "uint256"
        }
      ],
      "stateMutability": "nonpayable",
      "type": "function"
    },
    {
      "inputs": [],
      "name": "harvest",
      "outputs": [
        {
          "internalType": "uint256",
          "name": "amountAdded",
          "type": "uint256"
        }
      ],
      "stateMutability": "nonpayable",
      "type": "function"
    },
    {
      "inputs": [],
      "name": "masterchef",
      "outputs": [
        {
          "internalType": "contract IMasterChef",
          "name": "",
          "type": "address"
        }
      ],
      "stateMutability": "view",
      "type": "function"
    },
    {
      "inputs": [],
      "name": "oracle",
      "outputs": [
        {
          "internalType": "contract IOracle",
          "name": "",
          "type": "address"
        }
      ],
      "stateMutability": "view",
      "type": "function"
    },
    {
      "inputs": [],
      "name": "owner",
      "outputs": [
        {
          "internalType": "address",
          "name": "",
          "type": "address"
        }
      ],
      "stateMutability": "view",
      "type": "function"
    },
    {
      "inputs": [],
      "name": "pairInputToken",
      "outputs": [
        {
          "internalType": "address",
          "name": "",
          "type": "address"
        }
      ],
      "stateMutability": "view",
      "type": "function"
    },
    {
      "inputs": [],
      "name": "pid",
      "outputs": [
        {
          "internalType": "uint8",
          "name": "",
          "type": "uint8"
        }
      ],
      "stateMutability": "view",
      "type": "function"
    },
    {
      "inputs": [],
      "name": "renounceOwnership",
      "outputs": [],
      "stateMutability": "nonpayable",
      "type": "function"
    },
    {
      "inputs": [
        {
          "internalType": "contract ERC20",
          "name": "token",
          "type": "address"
        },
        {
          "internalType": "address",
          "name": "to",
          "type": "address"
        },
        {
          "internalType": "uint256",
          "name": "amount",
          "type": "uint256"
        }
      ],
      "name": "rescueTokens",
      "outputs": [],
      "stateMutability": "nonpayable",
      "type": "function"
    },
    {
      "inputs": [],
      "name": "rewardToken",
      "outputs": [
        {
          "internalType": "address",
          "name": "",
          "type": "address"
        }
      ],
      "stateMutability": "view",
      "type": "function"
    },
    {
      "inputs": [
        {
          "internalType": "uint256",
          "name": "amount",
          "type": "uint256"
        }
      ],
      "name": "skim",
      "outputs": [],
      "stateMutability": "nonpayable",
      "type": "function"
    },
    {
      "inputs": [],
      "name": "strategyTokenIn",
      "outputs": [
        {
          "internalType": "address",
          "name": "",
          "type": "address"
        }
      ],
      "stateMutability": "view",
      "type": "function"
    },
    {
      "inputs": [],
      "name": "strategyTokenInInfo",
      "outputs": [
        {
          "internalType": "address",
          "name": "factory",
          "type": "address"
        },
        {
          "internalType": "contract ISushiSwap",
          "name": "router",
          "type": "address"
        },
        {
          "internalType": "bytes32",
          "name": "pairCodeHash",
          "type": "bytes32"
        }
      ],
      "stateMutability": "view",
      "type": "function"
    },
    {
      "inputs": [],
      "name": "strategyTokenOut",
      "outputs": [
        {
          "internalType": "address",
          "name": "",
          "type": "address"
        }
      ],
      "stateMutability": "view",
      "type": "function"
    },
    {
      "inputs": [],
      "name": "strategyTokenOutInfo",
      "outputs": [
        {
          "internalType": "address",
          "name": "factory",
          "type": "address"
        },
        {
          "internalType": "contract ISushiSwap",
          "name": "router",
          "type": "address"
        },
        {
          "internalType": "bytes32",
          "name": "pairCodeHash",
          "type": "bytes32"
        }
      ],
      "stateMutability": "view",
      "type": "function"
    },
    {
      "inputs": [
        {
          "internalType": "uint256",
          "name": "amountOutMin",
          "type": "uint256"
        },
        {
          "internalType": "uint256",
          "name": "feePercent",
          "type": "uint256"
        },
        {
          "internalType": "address",
          "name": "feeTo",
          "type": "address"
        }
      ],
      "name": "swapToLP",
      "outputs": [
        {
          "internalType": "uint256",
          "name": "amountOut",
          "type": "uint256"
        }
      ],
      "stateMutability": "nonpayable",
      "type": "function"
    },
    {
      "inputs": [
        {
          "internalType": "address",
          "name": "newOwner",
          "type": "address"
        }
      ],
      "name": "transferOwnership",
      "outputs": [],
      "stateMutability": "nonpayable",
      "type": "function"
    },
    {
      "inputs": [],
      "name": "usePairToken0",
      "outputs": [
        {
          "internalType": "bool",
          "name": "",
          "type": "bool"
        }
      ],
      "stateMutability": "view",
      "type": "function"
    },
    {
      "inputs": [
        {
          "internalType": "uint256",
          "name": "amount",
          "type": "uint256"
        }
      ],
      "name": "withdraw",
      "outputs": [
        {
          "internalType": "uint256",
          "name": "actualAmount",
          "type": "uint256"
        }
      ],
      "stateMutability": "nonpayable",
      "type": "function"
    },
    {
      "inputs": [
        {
          "internalType": "contract IDynamicSubLPStrategy",
          "name": "recipient",
          "type": "address"
        }
      ],
      "name": "withdrawAndUnwrapTo",
      "outputs": [
        {
          "internalType": "uint256",
          "name": "amount",
          "type": "uint256"
        },
        {
          "internalType": "uint256",
          "name": "priceAmount",
          "type": "uint256"
        }
      ],
      "stateMutability": "nonpayable",
      "type": "function"
    },
    {
      "inputs": [
        {
          "internalType": "uint256",
          "name": "minDustAmount0",
          "type": "uint256"
        },
        {
          "internalType": "uint256",
          "name": "minDustAmount1",
          "type": "uint256"
        }
      ],
      "name": "wrapAndDeposit",
      "outputs": [
        {
          "internalType": "uint256",
          "name": "amount",
          "type": "uint256"
        },
        {
          "internalType": "uint256",
          "name": "priceAmount",
          "type": "uint256"
        }
      ],
      "stateMutability": "nonpayable",
      "type": "function"
    }
  ],
  "transactionHash": "0xf218aa0409afd9d39acd5c4ada90a9057a4efbbd7de0001513fa09302c185810",
  "args": [
    "0xD825d06061fdc0585e4373F0A3F01a8C02b0e6A4",
    "0x0D2a5107435cbbBE21Db1ADB5F1E078E63e59449",
    "0xA389f9430876455C36478DeEa9769B7Ca4E3DDB1",
    "0xA389f9430876455C36478DeEa9769B7Ca4E3DDB1",
    "0x0E1eA2269D6e22DfEEbce7b0A4c6c3d415b5bC85",
    "0xd6a4F121CA35509aF06A0Be99093d08462f53052",
    "0x6e84a6216eA6dACC71eE8E6b0a5B7322EEbC0fDd",
    39,
    false,
    {
      "factory": "0x9Ad6C38BE94206cA50bb0d90783181662f0Cfa10",
      "router": "0x60aE616a2155Ee3d9A68541Ba4544862310933d4",
      "pairCodeHash": "0x0bbca9af0511ad1a1da383135cf3a8d2ac620e549ef9f6ae3a4c33c2fed0af91"
    },
    {
      "factory": "0x9Ad6C38BE94206cA50bb0d90783181662f0Cfa10",
      "router": "0x60aE616a2155Ee3d9A68541Ba4544862310933d4",
      "pairCodeHash": "0x0bbca9af0511ad1a1da383135cf3a8d2ac620e549ef9f6ae3a4c33c2fed0af91"
    }
  ],
  "solcInputHash": "f9fd32a4de6b83a1ff4d63c4c832d057",
  "bytecode": "0x6101a06040523480156200001257600080fd5b50604051620039c1380380620039c1833981016040819052620000359162000646565b8a8a8a8a8a89898989896200004a3362000466565b60608a811b6001600160601b0319908116610100528a821b811660805289821b811660a05288821b811660c05287821b811660e0529086901b166101605260f884901b7fff0000000000000000000000000000000000000000000000000000000000000016610120526000805460ff60a01b1916600160a01b851515021790558151600180546001600160a01b03199081166001600160a01b03938416179091556020848101516002805484168286161790556040868101516003558551600480548616918716919091179055858301516005805490951690861617909355918401516006556200014c928b16919060001990620004b6811b62001d1d17901c565b6000886001600160a01b0316630dfe16816040518163ffffffff1660e01b815260040160206040518083038186803b1580156200018857600080fd5b505afa1580156200019d573d6000803e3d6000fd5b505050506040513d601f19601f82011682018060405250810190620001c391906200061f565b90506000896001600160a01b031663d21220a76040518163ffffffff1660e01b815260040160206040518083038186803b1580156200020157600080fd5b505afa15801562000216573d6000803e3d6000fd5b505050506040513d601f19601f820116820180604052508101906200023c91906200061f565b9050620002698460200151600019846001600160a01b0316620004b660201b62001d1d179092919060201c565b620002948460200151600019836001600160a01b0316620004b660201b62001d1d179092919060201c565b886001600160a01b0316630dfe16816040518163ffffffff1660e01b815260040160206040518083038186803b158015620002ce57600080fd5b505afa158015620002e3573d6000803e3d6000fd5b505050506040513d601f19601f820116820180604052508101906200030991906200061f565b9150886001600160a01b031663d21220a76040518163ffffffff1660e01b815260040160206040518083038186803b1580156200034557600080fd5b505afa1580156200035a573d6000803e3d6000fd5b505050506040513d601f19601f820116820180604052508101906200038091906200061f565b9050620003ad8360200151600019846001600160a01b0316620004b660201b62001d1d179092919060201c565b620003d88360200151600019836001600160a01b0316620004b660201b62001d1d179092919060201c565b84620003e55780620003e7565b815b6001600160a01b0316610140816001600160a01b031660601b81525050505050505050505050505050856001600160a01b0316610180816001600160a01b031660601b8152505062000455866000198b6001600160a01b0316620004b660201b62001d1d179092919060201c565b505050505050505050505062000760565b600080546001600160a01b038381166001600160a01b0319831681178455604051919092169283917f8be0079c531659141344cd1fd0a4f28419497f9722a3daafe3b4186f6b6457e09190a35050565b600060405163095ea7b360e01b81526001600160a01b03841660048201528260248201526000806044836000895af19150620004f49050816200053c565b620005365760405162461bcd60e51b815260206004820152600e60248201526d1054141493d59157d1905253115160921b604482015260640160405180910390fd5b50505050565b60003d826200054f57806000803e806000fd5b80602081146200056a5780156200057c576000925062000581565b816000803e6000511515925062000581565b600192505b5050919050565b805180151581146200059957600080fd5b919050565b600060608284031215620005b157600080fd5b604051606081016001600160401b0381118282101715620005e257634e487b7160e01b600052604160045260246000fd5b80604052508091508251620005f78162000747565b81526020830151620006098162000747565b6020820152604092830151920191909152919050565b6000602082840312156200063257600080fd5b81516200063f8162000747565b9392505050565b60008060008060008060008060008060006101e08c8e0312156200066957600080fd5b8b51620006768162000747565b60208d0151909b50620006898162000747565b60408d0151909a506200069c8162000747565b60608d0151909950620006af8162000747565b60808d0151909850620006c28162000747565b60a08d0151909750620006d58162000747565b60c08d0151909650620006e88162000747565b60e08d015190955060ff811681146200070057600080fd5b9350620007116101008d0162000588565b9250620007238d6101208e016200059e565b9150620007358d6101808e016200059e565b90509295989b509295989b9093969950565b6001600160a01b03811681146200075d57600080fd5b50565b60805160601c60a05160601c60c05160601c60e05160601c6101005160601c6101205160f81c6101405160601c6101605160601c6101805160601c61308c620009356000396000818161041701528181612419015281816124c0015281816125af01528181612681015261273a0152600081816103f001526104c601526000818161021301526104e80152600081816103a4015281816123eb01528181612492015281816125810152818161264701526127130152600081816102a301528181610d9f01528181610ee30152611c600152600081816102d2015281816115ee01526119ae01526000818161037501528181610514015281816105be0152818161065301528181610837015281816108d101528181610af801528181610c0901528181610e300152610ec101526000818161015701528181610cec01528181610d7d01528181610f9a0152818161101e0152818161124c01528181611355015281816113ab0152818161144b015281816114a1015281816117d0015281816118650152818161190c01528181611bad0152611c3e01526000818161033b0152818161044601528181610c9101528181610dd601528181610f19015281816116ec015281816117790152611b53015261308c6000f3fe608060405234801561001057600080fd5b506004361061014d5760003560e01c80637dc0d1d0116100c3578063e52383661161007c578063e523836614610370578063e9fad8ee14610397578063f10684541461039f578063f2fde38b146103d8578063f7c618c1146103eb578063fb1db2781461041257600080fd5b80637dc0d1d0146102cd57806383f3b2dd146102f45780638da5cb5b14610307578063b0abb81814610318578063b636a01914610336578063cea9d26f1461035d57600080fd5b80634641257d116101155780634641257d146102355780635a21fe141461023d57806362f8ccd5146102615780636939aaf5146102895780636b2ace871461029e578063715018a6146102c557600080fd5b80631485867d146101525780631cc66041146101965780632e1a7d4d146101b75780632f1f4e13146101ca5780632fd8d0dc1461020e575b600080fd5b6101797f000000000000000000000000000000000000000000000000000000000000000081565b6040516001600160a01b0390911681526020015b60405180910390f35b6101a96101a4366004612e01565b610439565b60405190815260200161018d565b6101a96101c5366004612d89565b610c84565b6004546005546006546101e8926001600160a01b0390811692169083565b604080516001600160a01b0394851681529390921660208401529082015260600161018d565b6101797f000000000000000000000000000000000000000000000000000000000000000081565b6101a9610dc9565b60005461025190600160a01b900460ff1681565b604051901515815260200161018d565b61027461026f366004612dbb565b610f0b565b6040805192835260208301919091520161018d565b61029c610297366004612d89565b6116e1565b005b6101797f000000000000000000000000000000000000000000000000000000000000000081565b61029c611735565b6101797f000000000000000000000000000000000000000000000000000000000000000081565b610274610302366004612cbe565b61176b565b6000546001600160a01b0316610179565b6001546002546003546101e8926001600160a01b0390811692169083565b6101797f000000000000000000000000000000000000000000000000000000000000000081565b61029c61036b366004612cf8565b611b03565b6101797f000000000000000000000000000000000000000000000000000000000000000081565b6101a9611b46565b6103c67f000000000000000000000000000000000000000000000000000000000000000081565b60405160ff909116815260200161018d565b61029c6103e6366004612cbe565b611c85565b6101797f000000000000000000000000000000000000000000000000000000000000000081565b6101797f000000000000000000000000000000000000000000000000000000000000000081565b6000336001600160a01b037f0000000000000000000000000000000000000000000000000000000000000000161461048c5760405162461bcd60e51b815260040161048390612ea6565b60405180910390fd5b604080516060810182526004546001600160a01b039081168083526005549091166020830152600654928201839052909160009161050d917f0000000000000000000000000000000000000000000000000000000000000000917f000000000000000000000000000000000000000000000000000000000000000091611d9b565b90506000807f00000000000000000000000000000000000000000000000000000000000000006001600160a01b0316630902f1ac6040518163ffffffff1660e01b815260040160606040518083038186803b15801561056b57600080fd5b505afa15801561057f573d6000803e3d6000fd5b505050506040513d601f19601f820116820180604052508101906105a39190612d39565b506001600160701b031691506001600160701b0316915060007f00000000000000000000000000000000000000000000000000000000000000006001600160a01b0316630dfe16816040518163ffffffff1660e01b815260040160206040518083038186803b15801561061557600080fd5b505afa158015610629573d6000803e3d6000fd5b505050506040513d601f19601f8201168201806040525081019061064d9190612cdb565b905060007f00000000000000000000000000000000000000000000000000000000000000006001600160a01b031663d21220a76040518163ffffffff1660e01b815260040160206040518083038186803b1580156106aa57600080fd5b505afa1580156106be573d6000803e3d6000fd5b505050506040513d601f19601f820116820180604052508101906106e29190612cdb565b9050600061070b600060149054906101000a900460ff166107035784610705565b855b87611f90565b604080516002808252606082018352929350600092909160208301908036833701905050600054909150600160a01b900460ff16156107b157838160008151811061075857610758613015565b60200260200101906001600160a01b031690816001600160a01b031681525050828160018151811061078c5761078c613015565b60200260200101906001600160a01b031690816001600160a01b03168152505061081a565b82816000815181106107c5576107c5613015565b60200260200101906001600160a01b031690816001600160a01b03168152505083816001815181106107f9576107f9613015565b60200260200101906001600160a01b031690816001600160a01b0316815250505b6000610830896000015184848c60400151611ff2565b90506108a47f00000000000000000000000000000000000000000000000000000000000000008260008151811061086957610869613015565b60200260200101518460008151811061088457610884613015565b60200260200101516001600160a01b031661217f9092919063ffffffff16565b6108b98183308c600001518d604001516121f8565b6040516370a0823160e01b81523060048201526000907f00000000000000000000000000000000000000000000000000000000000000006001600160a01b0316906370a082319060240160206040518083038186803b15801561091b57600080fd5b505afa15801561092f573d6000803e3d6000fd5b505050506040513d601f19601f820116820180604052508101906109539190612da2565b60208b01516040516370a0823160e01b81523060048201529192506001600160a01b039081169163e8e3370091899189918316906370a082319060240160206040518083038186803b1580156109a857600080fd5b505afa1580156109bc573d6000803e3d6000fd5b505050506040513d601f19601f820116820180604052508101906109e09190612da2565b6040516370a0823160e01b81523060048201526001600160a01b038b16906370a082319060240160206040518083038186803b158015610a1f57600080fd5b505afa158015610a33573d6000803e3d6000fd5b505050506040513d601f19601f82011682018060405250810190610a579190612da2565b600180306000196040518963ffffffff1660e01b8152600401610a81989796959493929190612e5d565b606060405180830381600087803b158015610a9b57600080fd5b505af1158015610aaf573d6000803e3d6000fd5b505050506040513d601f19601f82011682018060405250810190610ad39190612e2f565b50506040516370a0823160e01b81523060048201526000915082906001600160a01b037f000000000000000000000000000000000000000000000000000000000000000016906370a082319060240160206040518083038186803b158015610b3a57600080fd5b505afa158015610b4e573d6000803e3d6000fd5b505050506040513d601f19601f82011682018060405250810190610b729190612da2565b610b7c9190612fcd565b90508e811015610bce5760405162461bcd60e51b815260206004820152601760248201527f494e53554646494349454e545f414d4f554e545f4f55540000000000000000006044820152606401610483565b600060648f83610bde9190612fae565b610be89190612f8c565b90508015610c3057610bfa8183612fcd565b9c50610c306001600160a01b037f0000000000000000000000000000000000000000000000000000000000000000168f8361217f565b60408051838152602081018f90529081018290527ffac4ceeb73d90e5d855cf54c2fc52267e49df26636cde8d7ab271952cd081b779060600160405180910390a15050505050505050505050509392505050565b6000336001600160a01b037f00000000000000000000000000000000000000000000000000000000000000001614610cce5760405162461bcd60e51b815260040161048390612ea6565b610cd7826123da565b6040516370a0823160e01b81523060048201527f00000000000000000000000000000000000000000000000000000000000000006001600160a01b0316906370a082319060240160206040518083038186803b158015610d3657600080fd5b505afa158015610d4a573d6000803e3d6000fd5b505050506040513d601f19601f82011682018060405250810190610d6e9190612da2565b9050610dc46001600160a01b037f0000000000000000000000000000000000000000000000000000000000000000167f00000000000000000000000000000000000000000000000000000000000000008361217f565b919050565b6000336001600160a01b037f00000000000000000000000000000000000000000000000000000000000000001614610e135760405162461bcd60e51b815260040161048390612ea6565b610e1b612481565b6040516370a0823160e01b81523060048201527f00000000000000000000000000000000000000000000000000000000000000006001600160a01b0316906370a082319060240160206040518083038186803b158015610e7a57600080fd5b505afa158015610e8e573d6000803e3d6000fd5b505050506040513d601f19601f82011682018060405250810190610eb29190612da2565b9050610f086001600160a01b037f0000000000000000000000000000000000000000000000000000000000000000167f00000000000000000000000000000000000000000000000000000000000000008361217f565b90565b600080336001600160a01b037f00000000000000000000000000000000000000000000000000000000000000001614610f565760405162461bcd60e51b815260040161048390612ea6565b604080516060810182526001546001600160a01b0390811682526002548116602080840191909152600354838501528351630dfe168160e01b8152935192936000937f000000000000000000000000000000000000000000000000000000000000000090931692630dfe168192600480840193919291829003018186803b158015610fe057600080fd5b505afa158015610ff4573d6000803e3d6000fd5b505050506040513d601f19601f820116820180604052508101906110189190612cdb565b905060007f00000000000000000000000000000000000000000000000000000000000000006001600160a01b031663d21220a76040518163ffffffff1660e01b815260040160206040518083038186803b15801561107557600080fd5b505afa158015611089573d6000803e3d6000fd5b505050506040513d601f19601f820116820180604052508101906110ad9190612cdb565b6040516370a0823160e01b81523060048201529091506000906001600160a01b038416906370a082319060240160206040518083038186803b1580156110f257600080fd5b505afa158015611106573d6000803e3d6000fd5b505050506040513d601f19601f8201168201806040525081019061112a9190612da2565b6040516370a0823160e01b81523060048201529091506000906001600160a01b038416906370a082319060240160206040518083038186803b15801561116f57600080fd5b505afa158015611183573d6000803e3d6000fd5b505050506040513d601f19601f820116820180604052508101906111a79190612da2565b9050600080600087602001516001600160a01b031663e8e3370088888888600180306000196040518963ffffffff1660e01b81526004016111ef989796959493929190612e5d565b606060405180830381600087803b15801561120957600080fd5b505af115801561121d573d6000803e3d6000fd5b505050506040513d601f19601f820116820180604052508101906112419190612e2f565b9250925092506000807f00000000000000000000000000000000000000000000000000000000000000006001600160a01b0316630902f1ac6040518163ffffffff1660e01b815260040160606040518083038186803b1580156112a357600080fd5b505afa1580156112b7573d6000803e3d6000fd5b505050506040513d601f19601f820116820180604052508101906112db9190612d39565b506001600160701b0391821693501690506112f68588612fcd565b96506113028487612fcd565b95508d871015801561131457508c8610155b156115c557861561141557600061132b8389611f90565b90506113378189612fcd565b9750611344818484612521565b965061137a6001600160a01b038b167f00000000000000000000000000000000000000000000000000000000000000008361217f565b60405163022c0d9f60e01b8152600060048201819052602482018990523060448301526080606483015260848201527f00000000000000000000000000000000000000000000000000000000000000006001600160a01b03169063022c0d9f9060a401600060405180830381600087803b1580156113f757600080fd5b505af115801561140b573d6000803e3d6000fd5b5050505050611507565b60006114218288611f90565b905061142d8188612fcd565b965061143a818385612521565b97506114706001600160a01b038a167f00000000000000000000000000000000000000000000000000000000000000008361217f565b60405163022c0d9f60e01b8152600481018990526000602482018190523060448301526080606483015260848201527f00000000000000000000000000000000000000000000000000000000000000006001600160a01b03169063022c0d9f9060a401600060405180830381600087803b1580156114ed57600080fd5b505af1158015611501573d6000803e3d6000fd5b50505050505b6000871180156115175750600086115b156115c55760208a015160405162e8e33760e81b81526000916001600160a01b03169063e8e337009061155f908d908d908d908d906001908190309060001990600401612e5d565b606060405180830381600087803b15801561157957600080fd5b505af115801561158d573d6000803e3d6000fd5b505050506040513d601f19601f820116820180604052508101906115b19190612e2f565b9250505080846115c19190612f74565b9350505b829b506115d183612570565b604051630d39bbef60e41b815260206004820152600060248201527f00000000000000000000000000000000000000000000000000000000000000006001600160a01b03169063d39bbef09060440160206040518083038186803b15801561163857600080fd5b505afa15801561164c573d6000803e3d6000fd5b505050506040513d601f19601f820116820180604052508101906116709190612da2565b6116828d670de0b6b3a7640000612fae565b61168c9190612f8c565b60408051858152602081018690526000818301529051919c507ffac4ceeb73d90e5d855cf54c2fc52267e49df26636cde8d7ab271952cd081b77919081900360600190a1505050505050505050509250929050565b336001600160a01b037f000000000000000000000000000000000000000000000000000000000000000016146117295760405162461bcd60e51b815260040161048390612ea6565b61173281612570565b50565b6000546001600160a01b0316331461175f5760405162461bcd60e51b815260040161048390612ecc565b61176960006125e6565b565b600080336001600160a01b037f000000000000000000000000000000000000000000000000000000000000000016146117b65760405162461bcd60e51b815260040161048390612ea6565b60006117c0612636565b5090506117cc816123da565b60007f00000000000000000000000000000000000000000000000000000000000000006001600160a01b0316630dfe16816040518163ffffffff1660e01b815260040160206040518083038186803b15801561182757600080fd5b505afa15801561183b573d6000803e3d6000fd5b505050506040513d601f19601f8201168201806040525081019061185f9190612cdb565b905060007f00000000000000000000000000000000000000000000000000000000000000006001600160a01b031663d21220a76040518163ffffffff1660e01b815260040160206040518083038186803b1580156118bc57600080fd5b505afa1580156118d0573d6000803e3d6000fd5b505050506040513d601f19601f820116820180604052508101906118f49190612cdb565b6040516370a0823160e01b81523060048201529091507f00000000000000000000000000000000000000000000000000000000000000006001600160a01b0316906370a082319060240160206040518083038186803b15801561195657600080fd5b505afa15801561196a573d6000803e3d6000fd5b505050506040513d601f19601f8201168201806040525081019061198e9190612da2565b604051630d39bbef60e41b815260206004820152600060248201529095507f00000000000000000000000000000000000000000000000000000000000000006001600160a01b03169063d39bbef09060440160206040518083038186803b1580156119f857600080fd5b505afa158015611a0c573d6000803e3d6000fd5b505050506040513d601f19601f82011682018060405250810190611a309190612da2565b611a4286670de0b6b3a7640000612fae565b611a4c9190612f8c565b600254604051635d5155ef60e11b81526001600160a01b038581166004830152848116602483015260448201899052600060648301819052608483015289811660a483015260001960c483015292965091169063baa2abde9060e4016040805180830381600087803b158015611ac157600080fd5b505af1158015611ad5573d6000803e3d6000fd5b505050506040513d601f19601f82011682018060405250810190611af99190612ddd565b5050505050915091565b6000546001600160a01b03163314611b2d5760405162461bcd60e51b815260040161048390612ecc565b611b416001600160a01b038416838361217f565b505050565b6000336001600160a01b037f00000000000000000000000000000000000000000000000000000000000000001614611b905760405162461bcd60e51b815260040161048390612ea6565b611b98612702565b6040516370a0823160e01b81523060048201527f00000000000000000000000000000000000000000000000000000000000000006001600160a01b0316906370a082319060240160206040518083038186803b158015611bf757600080fd5b505afa158015611c0b573d6000803e3d6000fd5b505050506040513d601f19601f82011682018060405250810190611c2f9190612da2565b9050610f086001600160a01b037f0000000000000000000000000000000000000000000000000000000000000000167f00000000000000000000000000000000000000000000000000000000000000008361217f565b6000546001600160a01b03163314611caf5760405162461bcd60e51b815260040161048390612ecc565b6001600160a01b038116611d145760405162461bcd60e51b815260206004820152602660248201527f4f776e61626c653a206e6577206f776e657220697320746865207a65726f206160448201526564647265737360d01b6064820152608401610483565b611732816125e6565b600060405163095ea7b360e01b81526001600160a01b03841660048201528260248201526000806044836000895af1915050611d5881612771565b611d955760405162461bcd60e51b815260206004820152600e60248201526d1054141493d59157d1905253115160921b6044820152606401610483565b50505050565b604080516002808252606082018352600092839291906020830190803683370190505090508581600081518110611dd457611dd4613015565b60200260200101906001600160a01b031690816001600160a01b031681525050848160018351611e049190612fcd565b81518110611e1457611e14613015565b60200260200101906001600160a01b031690816001600160a01b031681525050600081600081518110611e4957611e49613015565b60209081029190910101516040516370a0823160e01b81523060048201526001600160a01b03909116906370a082319060240160206040518083038186803b158015611e9457600080fd5b505afa158015611ea8573d6000803e3d6000fd5b505050506040513d601f19601f82011682018060405250810190611ecc9190612da2565b90506000611edc86838588611ff2565b90508060018251611eed9190612fcd565b81518110611efd57611efd613015565b60200260200101519350611f78611f4a8785600081518110611f2157611f21613015565b602002602001015186600181518110611f3c57611f3c613015565b6020026020010151896127b8565b82600081518110611f5d57611f5d613015565b60200260200101518560008151811061088457610884613015565b611f8581843089896121f8565b505050949350505050565b60006107ca611fa1846107cd612fae565b611fd7611fb186623cda29612fae565b611fbe86623cda20612fae565b611fc89190612f74565b611fd29087612fae565b612876565b611fe19190612fcd565b611feb9190612f8c565b9392505050565b60606002835110156120465760405162461bcd60e51b815260206004820152601e60248201527f556e697377617056324c6962726172793a20494e56414c49445f5041544800006044820152606401610483565b825167ffffffffffffffff8111156120605761206061302b565b604051908082528060200260200182016040528015612089578160200160208202803683370190505b50905083816000815181106120a0576120a0613015565b60200260200101818152505060005b600184516120bd9190612fcd565b81101561217657600080612111888785815181106120dd576120dd613015565b6020026020010151888660016120f39190612f74565b8151811061210357612103613015565b6020026020010151886129f4565b9150915061213984848151811061212a5761212a613015565b60200260200101518383612acf565b84612145856001612f74565b8151811061215557612155613015565b6020026020010181815250505050808061216e90612fe4565b9150506120af565b50949350505050565b600060405163a9059cbb60e01b81526001600160a01b03841660048201528260248201526000806044836000895af19150506121ba81612771565b611d955760405162461bcd60e51b815260206004820152600f60248201526e1514905394d1915497d19052531151608a1b6044820152606401610483565b60005b600185516122099190612fcd565b8110156123d25760008086838151811061222557612225613015565b60200260200101518784600161223b9190612f74565b8151811061224b5761224b613015565b6020026020010151915091506000816001600160a01b0316836001600160a01b031610612278578161227a565b825b905060008961228a866001612f74565b8151811061229a5761229a613015565b60200260200101519050600080836001600160a01b0316866001600160a01b0316146122c8578260006122cc565b6000835b91509150600060028c516122e09190612fcd565b88106122ec578a61231b565b61231b8a878e6122fd8c6002612f74565b8151811061230d5761230d613015565b60200260200101518c6127b8565b90506123298a88888c6127b8565b6001600160a01b031663022c0d9f84848460006040519080825280601f01601f191660200182016040528015612366576020820181803683370190505b506040518563ffffffff1660e01b81526004016123869493929190612f01565b600060405180830381600087803b1580156123a057600080fd5b505af11580156123b4573d6000803e3d6000fd5b505050505050505050505080806123ca90612fe4565b9150506121fb565b505050505050565b604051630441a3e760e41b815260ff7f0000000000000000000000000000000000000000000000000000000000000000166004820152602481018290527f00000000000000000000000000000000000000000000000000000000000000006001600160a01b03169063441a3e70906044015b600060405180830381600087803b15801561246657600080fd5b505af115801561247a573d6000803e3d6000fd5b5050505050565b604051630441a3e760e41b815260ff7f0000000000000000000000000000000000000000000000000000000000000000166004820152600060248201527f00000000000000000000000000000000000000000000000000000000000000006001600160a01b03169063441a3e70906044015b600060405180830381600087803b15801561250d57600080fd5b505af1158015611d95573d6000803e3d6000fd5b600080612530856103e5612fae565b9050600061253e8483612fae565b905060008261254f876103e8612fae565b6125599190612f74565b90506125658183612f8c565b979650505050505050565b604051631c57762b60e31b815260ff7f0000000000000000000000000000000000000000000000000000000000000000166004820152602481018290527f00000000000000000000000000000000000000000000000000000000000000006001600160a01b03169063e2bbb1589060440161244c565b600080546001600160a01b038381166001600160a01b0319831681178455604051919092169283917f8be0079c531659141344cd1fd0a4f28419497f9722a3daafe3b4186f6b6457e09190a35050565b6040516393f1a40b60e01b815260ff7f000000000000000000000000000000000000000000000000000000000000000016600482015230602482015260009081906001600160a01b037f000000000000000000000000000000000000000000000000000000000000000016906393f1a40b90604401604080518083038186803b1580156126c257600080fd5b505afa1580156126d6573d6000803e3d6000fd5b505050506040513d601f19601f820116820180604052508101906126fa9190612ddd565b915091509091565b604051632989754760e11b815260ff7f00000000000000000000000000000000000000000000000000000000000000001660048201527f00000000000000000000000000000000000000000000000000000000000000006001600160a01b031690635312ea8e906024016124f3565b60003d8261278357806000803e806000fd5b806020811461279b5780156127ac57600092506127b1565b816000803e600051151592506127b1565b600192505b5050919050565b60008060006127c78686612baf565b6040516bffffffffffffffffffffffff19606084811b8216602084015283901b166034820152919350915087906048016040516020818303038152906040528051906020012085604051602001612853939291906001600160f81b0319815260609390931b6bffffffffffffffffffffffff191660018401526015830191909152603582015260550190565b60408051601f198184030181529190528051602090910120979650505050505050565b60008161288557506000919050565b816001600160801b821061289e5760809190911c9060401b5b6801000000000000000082106128b95760409190911c9060201b5b64010000000082106128d05760209190911c9060101b5b6201000082106128e55760109190911c9060081b5b61010082106128f95760089190911c9060041b5b6010821061290c5760049190911c9060021b5b600882106129185760011b5b60016129248286612f8c565b61292e9083612f74565b901c9050600161293e8286612f8c565b6129489083612f74565b901c905060016129588286612f8c565b6129629083612f74565b901c905060016129728286612f8c565b61297c9083612f74565b901c9050600161298c8286612f8c565b6129969083612f74565b901c905060016129a68286612f8c565b6129b09083612f74565b901c905060016129c08286612f8c565b6129ca9083612f74565b901c905060006129da8286612f8c565b90508082106129e957806129eb565b815b95945050505050565b6000806000612a038686612baf565b509050600080612a15898989896127b8565b6001600160a01b0316630902f1ac6040518163ffffffff1660e01b815260040160606040518083038186803b158015612a4d57600080fd5b505afa158015612a61573d6000803e3d6000fd5b505050506040513d601f19601f82011682018060405250810190612a859190612d39565b506001600160701b031691506001600160701b03169150826001600160a01b0316886001600160a01b031614612abc578082612abf565b81815b909a909950975050505050505050565b6000808411612b345760405162461bcd60e51b815260206004820152602b60248201527f556e697377617056324c6962726172793a20494e53554646494349454e545f4960448201526a1394155517d05353d5539560aa1b6064820152608401610483565b600083118015612b445750600082115b612ba15760405162461bcd60e51b815260206004820152602860248201527f556e697377617056324c6962726172793a20494e53554646494349454e545f4c604482015267495155494449545960c01b6064820152608401610483565b6000612530856103e5612fae565b600080826001600160a01b0316846001600160a01b03161415612c225760405162461bcd60e51b815260206004820152602560248201527f556e697377617056324c6962726172793a204944454e544943414c5f41444452604482015264455353455360d81b6064820152608401610483565b826001600160a01b0316846001600160a01b031610612c42578284612c45565b83835b90925090506001600160a01b038216612ca05760405162461bcd60e51b815260206004820152601e60248201527f556e697377617056324c6962726172793a205a45524f5f4144445245535300006044820152606401610483565b9250929050565b80516001600160701b0381168114610dc457600080fd5b600060208284031215612cd057600080fd5b8135611feb81613041565b600060208284031215612ced57600080fd5b8151611feb81613041565b600080600060608486031215612d0d57600080fd5b8335612d1881613041565b92506020840135612d2881613041565b929592945050506040919091013590565b600080600060608486031215612d4e57600080fd5b612d5784612ca7565b9250612d6560208501612ca7565b9150604084015163ffffffff81168114612d7e57600080fd5b809150509250925092565b600060208284031215612d9b57600080fd5b5035919050565b600060208284031215612db457600080fd5b5051919050565b60008060408385031215612dce57600080fd5b50508035926020909101359150565b60008060408385031215612df057600080fd5b505080516020909101519092909150565b600080600060608486031215612e1657600080fd5b83359250602084013591506040840135612d7e81613041565b600080600060608486031215612e4457600080fd5b8351925060208401519150604084015190509250925092565b6001600160a01b039889168152968816602088015260408701959095526060860193909352608085019190915260a084015290921660c082015260e08101919091526101000190565b6020808252600c908201526b1d5b985d5d1a1bdc9a5e995960a21b604082015260600190565b6020808252818101527f4f776e61626c653a2063616c6c6572206973206e6f7420746865206f776e6572604082015260600190565b84815260006020858184015260018060a01b038516604084015260806060840152835180608085015260005b81811015612f495785810183015185820160a001528201612f2d565b81811115612f5b57600060a083870101525b50601f01601f19169290920160a0019695505050505050565b60008219821115612f8757612f87612fff565b500190565b600082612fa957634e487b7160e01b600052601260045260246000fd5b500490565b6000816000190483118215151615612fc857612fc8612fff565b500290565b600082821015612fdf57612fdf612fff565b500390565b6000600019821415612ff857612ff8612fff565b5060010190565b634e487b7160e01b600052601160045260246000fd5b634e487b7160e01b600052603260045260246000fd5b634e487b7160e01b600052604160045260246000fd5b6001600160a01b038116811461173257600080fdfea2646970667358221220feb7b0896686ecaa6adb73c721692331e87c4375afa1ee9421e7e6b71ad1881764736f6c63430008070033",
  "devdoc": {
    "kind": "dev",
    "methods": {
      "exit()": {
        "details": "exit everything from masterchef. Only to be used when the strategyTokenIn matches the dyanmic strategyToken. (validated inside DynamicLPStrategy.exit)"
      },
      "harvest()": {
        "details": "harvest the rewardToken from masterchef and send the strategyTokenOut to bentobox. strategyTokenOut can be obtained by calling swapToLP to swap the reward token for more strategyTokenOut. In this case, a subsequent call to harvest is necessary for the strategyTokenOut tokens to be available for transfer."
      },
      "owner()": {
        "details": "Returns the address of the current owner."
      },
      "renounceOwnership()": {
        "details": "Leaves the contract without owner. It will not be possible to call `onlyOwner` functions anymore. Can only be called by the current owner. NOTE: Renouncing ownership will leave the contract without an owner, thereby removing any functionality that is only available to the owner."
      },
      "transferOwnership(address)": {
        "details": "Transfers ownership of the contract to a new account (`newOwner`). Can only be called by the current owner."
      },
      "withdraw(uint256)": {
        "details": "withdraw the specified amount from masterchef. Only to be used when the strategyTokenIn matches the dyanmic strategyToken. (validated inside DynamicLPStrategy.withdraw)"
      },
      "wrapAndDeposit(uint256,uint256)": {
        "params": {
          "minDustAmount0": "the minimum token0 left after the first addLiquidity to consider swapping into more strategyTokenIn Lps",
          "minDustAmount1": "same as `minDustAmount0` but for token1"
        }
      }
    },
    "version": 1
  },
  "userdoc": {
    "kind": "user",
    "methods": {
      "pairInputToken()": {
        "notice": "cache of the strategyTokenOut token used to first swap the token rewards to before splitting the liquidity in half for minting strategyTokenIn"
      },
      "rescueTokens(address,address,uint256)": {
        "notice": "emergency function in case of fund locked."
      },
      "rewardToken()": {
        "notice": "the token farmed by staking strategyTokenIn in masterchef"
      },
      "swapToLP(uint256,uint256,address)": {
        "notice": "Swap token0 and token1 in the contract for deposits them to address(this)"
      },
      "usePairToken0()": {
        "notice": "When true, the _rewardToken will be swapped to the pair's token0 for one-sided liquidity providing, otherwise, the pair's token1."
      },
      "withdrawAndUnwrapTo(address)": {
        "notice": "withdraw from masterchef and unwrap token0 and token1 to recipient, so that the next strategy can use the liquidity and wrap it back. Note: this function will potentially leave out some reward tokens, so the harvest/swapToLp/harvest routine should be run beforehand."
      },
      "wrapAndDeposit(uint256,uint256)": {
        "notice": "wrap the token0 and token1 deposited into the contract from a previous withdrawAndUnwrapTo and wrap into a strategyTokenIn lp token."
      }
    },
    "version": 1
  },
  "storageLayout": {
    "storage": [
      {
        "astId": 7,
        "contract": "contracts/strategies/dynamic/JoeDynamicSubLPStrategy.sol:JoeDynamicSubLPStrategy",
        "label": "_owner",
        "offset": 0,
        "slot": "0",
        "type": "t_address"
      },
      {
        "astId": 7460,
        "contract": "contracts/strategies/dynamic/JoeDynamicSubLPStrategy.sol:JoeDynamicSubLPStrategy",
        "label": "usePairToken0",
        "offset": 20,
        "slot": "0",
        "type": "t_bool"
      },
      {
        "astId": 7469,
        "contract": "contracts/strategies/dynamic/JoeDynamicSubLPStrategy.sol:JoeDynamicSubLPStrategy",
        "label": "strategyTokenInInfo",
        "offset": 0,
        "slot": "1",
        "type": "t_struct(RouterInfo)7441_storage"
      },
      {
        "astId": 7472,
        "contract": "contracts/strategies/dynamic/JoeDynamicSubLPStrategy.sol:JoeDynamicSubLPStrategy",
        "label": "strategyTokenOutInfo",
        "offset": 0,
        "slot": "4",
        "type": "t_struct(RouterInfo)7441_storage"
      }
    ],
    "types": {
      "t_address": {
        "encoding": "inplace",
        "label": "address",
        "numberOfBytes": "20"
      },
      "t_bool": {
        "encoding": "inplace",
        "label": "bool",
        "numberOfBytes": "1"
      },
      "t_bytes32": {
        "encoding": "inplace",
        "label": "bytes32",
        "numberOfBytes": "32"
      },
      "t_contract(ISushiSwap)3554": {
        "encoding": "inplace",
        "label": "contract ISushiSwap",
        "numberOfBytes": "20"
      },
      "t_struct(RouterInfo)7441_storage": {
        "encoding": "inplace",
        "label": "struct DynamicSubLPStrategy.RouterInfo",
        "members": [
          {
            "astId": 7435,
            "contract": "contracts/strategies/dynamic/JoeDynamicSubLPStrategy.sol:JoeDynamicSubLPStrategy",
            "label": "factory",
            "offset": 0,
            "slot": "0",
            "type": "t_address"
          },
          {
            "astId": 7438,
            "contract": "contracts/strategies/dynamic/JoeDynamicSubLPStrategy.sol:JoeDynamicSubLPStrategy",
            "label": "router",
            "offset": 0,
            "slot": "1",
            "type": "t_contract(ISushiSwap)3554"
          },
          {
            "astId": 7440,
            "contract": "contracts/strategies/dynamic/JoeDynamicSubLPStrategy.sol:JoeDynamicSubLPStrategy",
            "label": "pairCodeHash",
            "offset": 0,
            "slot": "2",
            "type": "t_bytes32"
          }
        ],
        "numberOfBytes": "96"
      }
    }
  }
}