{
  "address": "0x0D2a5107435cbbBE21Db1ADB5F1E078E63e59449",
  "abi": [
    {
      "inputs": [
        {
          "internalType": "address",
          "name": "_strategyToken",
          "type": "address"
        },
        {
          "internalType": "address",
          "name": "_bentoBox",
          "type": "address"
        },
        {
          "internalType": "address",
          "name": "_strategyExecutor",
          "type": "address"
        }
      ],
      "stateMutability": "nonpayable",
      "type": "constructor"
    },
    {
      "anonymous": false,
      "inputs": [
        {
          "indexed": true,
          "internalType": "address",
          "name": "executor",
          "type": "address"
        },
        {
          "indexed": false,
          "internalType": "bool",
          "name": "allowed",
          "type": "bool"
        }
      ],
      "name": "LogSetStrategyExecutor",
      "type": "event"
    },
    {
      "anonymous": false,
      "inputs": [
        {
          "indexed": true,
          "internalType": "address",
          "name": "subStrategy",
          "type": "address"
        }
      ],
      "name": "LogSubStrategyAdded",
      "type": "event"
    },
    {
      "anonymous": false,
      "inputs": [
        {
          "indexed": true,
          "internalType": "address",
          "name": "fromStrategy",
          "type": "address"
        },
        {
          "indexed": true,
          "internalType": "address",
          "name": "toStrategy",
          "type": "address"
        },
        {
          "indexed": false,
          "internalType": "uint256",
          "name": "amountOut",
          "type": "uint256"
        },
        {
          "indexed": false,
          "internalType": "uint256",
          "name": "amountOutPrice",
          "type": "uint256"
        },
        {
          "indexed": false,
          "internalType": "uint256",
          "name": "amountIn",
          "type": "uint256"
        },
        {
          "indexed": false,
          "internalType": "uint256",
          "name": "amountInPrice",
          "type": "uint256"
        }
      ],
      "name": "LogSubStrategyChanged",
      "type": "event"
    },
    {
      "anonymous": false,
      "inputs": [
        {
          "indexed": true,
          "internalType": "address",
          "name": "previousOwner",
          "type": "address"
        },
        {
          "indexed": true,
          "internalType": "address",
          "name": "newOwner",
          "type": "address"
        }
      ],
      "name": "OwnershipTransferred",
      "type": "event"
    },
    {
      "inputs": [
        {
          "internalType": "contract IDynamicSubLPStrategy",
          "name": "subStrategy",
          "type": "address"
        }
      ],
      "name": "addSubStrategy",
      "outputs": [],
      "stateMutability": "nonpayable",
      "type": "function"
    },
    {
      "inputs": [],
      "name": "bentoBox",
      "outputs": [
        {
          "internalType": "address",
          "name": "",
          "type": "address"
        }
      ],
      "stateMutability": "view",
      "type": "function"
    },
    {
      "inputs": [
        {
          "internalType": "uint256",
          "name": "index",
          "type": "uint256"
        },
        {
          "internalType": "uint256",
          "name": "maxSlippageBps",
          "type": "uint256"
        },
        {
          "internalType": "uint256",
          "name": "minDustAmount0",
          "type": "uint256"
        },
        {
          "internalType": "uint256",
          "name": "minDustAmount1",
          "type": "uint256"
        }
      ],
      "name": "changeStrategy",
      "outputs": [],
      "stateMutability": "nonpayable",
      "type": "function"
    },
    {
      "inputs": [],
      "name": "currentSubStrategy",
      "outputs": [
        {
          "internalType": "contract IDynamicSubLPStrategy",
          "name": "",
          "type": "address"
        }
      ],
      "stateMutability": "view",
      "type": "function"
    },
    {
      "inputs": [
        {
          "internalType": "uint256",
          "name": "balance",
          "type": "uint256"
        }
      ],
      "name": "exit",
      "outputs": [
        {
          "internalType": "int256",
          "name": "amountAdded",
          "type": "int256"
        }
      ],
      "stateMutability": "nonpayable",
      "type": "function"
    },
    {
      "inputs": [],
      "name": "exited",
      "outputs": [
        {
          "internalType": "bool",
          "name": "",
          "type": "bool"
        }
      ],
      "stateMutability": "view",
      "type": "function"
    },
    {
      "inputs": [],
      "name": "feeCollector",
      "outputs": [
        {
          "internalType": "address",
          "name": "",
          "type": "address"
        }
      ],
      "stateMutability": "view",
      "type": "function"
    },
    {
      "inputs": [],
      "name": "feePercent",
      "outputs": [
        {
          "internalType": "uint8",
          "name": "",
          "type": "uint8"
        }
      ],
      "stateMutability": "view",
      "type": "function"
    },
    {
      "inputs": [
        {
          "internalType": "uint256",
          "name": "balance",
          "type": "uint256"
        },
        {
          "internalType": "address",
          "name": "sender",
          "type": "address"
        }
      ],
      "name": "harvest",
      "outputs": [
        {
          "internalType": "int256",
          "name": "",
          "type": "int256"
        }
      ],
      "stateMutability": "nonpayable",
      "type": "function"
    },
    {
      "inputs": [],
      "name": "maxBentoBoxBalance",
      "outputs": [
        {
          "internalType": "uint256",
          "name": "",
          "type": "uint256"
        }
      ],
      "stateMutability": "view",
      "type": "function"
    },
    {
      "inputs": [],
      "name": "owner",
      "outputs": [
        {
          "internalType": "address",
          "name": "",
          "type": "address"
        }
      ],
      "stateMutability": "view",
      "type": "function"
    },
    {
      "inputs": [],
      "name": "renounceOwnership",
      "outputs": [],
      "stateMutability": "nonpayable",
      "type": "function"
    },
    {
      "inputs": [
        {
          "internalType": "uint256",
          "name": "maxBalance",
          "type": "uint256"
        },
        {
          "internalType": "bool",
          "name": "rebalance",
          "type": "bool"
        },
        {
          "internalType": "uint256",
          "name": "maxChangeAmount",
          "type": "uint256"
        }
      ],
      "name": "safeHarvest",
      "outputs": [],
      "stateMutability": "nonpayable",
      "type": "function"
    },
    {
      "inputs": [
        {
          "internalType": "address",
          "name": "_feeCollector",
          "type": "address"
        },
        {
          "internalType": "uint8",
          "name": "_feePercent",
          "type": "uint8"
        }
      ],
      "name": "setFeeParameters",
      "outputs": [],
      "stateMutability": "nonpayable",
      "type": "function"
    },
    {
      "inputs": [
        {
          "internalType": "address",
          "name": "executor",
          "type": "address"
        },
        {
          "internalType": "bool",
          "name": "value",
          "type": "bool"
        }
      ],
      "name": "setStrategyExecutor",
      "outputs": [],
      "stateMutability": "nonpayable",
      "type": "function"
    },
    {
      "inputs": [
        {
          "internalType": "uint256",
          "name": "amount",
          "type": "uint256"
        }
      ],
      "name": "skim",
      "outputs": [],
      "stateMutability": "nonpayable",
      "type": "function"
    },
    {
      "inputs": [
        {
          "internalType": "address",
          "name": "",
          "type": "address"
        }
      ],
      "name": "strategyExecutors",
      "outputs": [
        {
          "internalType": "bool",
          "name": "",
          "type": "bool"
        }
      ],
      "stateMutability": "view",
      "type": "function"
    },
    {
      "inputs": [],
      "name": "strategyToken",
      "outputs": [
        {
          "internalType": "address",
          "name": "",
          "type": "address"
        }
      ],
      "stateMutability": "view",
      "type": "function"
    },
    {
      "inputs": [
        {
          "internalType": "uint256",
          "name": "",
          "type": "uint256"
        }
      ],
      "name": "subStrategies",
      "outputs": [
        {
          "internalType": "contract IDynamicSubLPStrategy",
          "name": "",
          "type": "address"
        }
      ],
      "stateMutability": "view",
      "type": "function"
    },
    {
      "inputs": [
        {
          "internalType": "uint256",
          "name": "amountOutMin",
          "type": "uint256"
        }
      ],
      "name": "swapToLP",
      "outputs": [
        {
          "internalType": "uint256",
          "name": "",
          "type": "uint256"
        }
      ],
      "stateMutability": "nonpayable",
      "type": "function"
    },
    {
      "inputs": [],
      "name": "token0",
      "outputs": [
        {
          "internalType": "address",
          "name": "",
          "type": "address"
        }
      ],
      "stateMutability": "view",
      "type": "function"
    },
    {
      "inputs": [],
      "name": "token1",
      "outputs": [
        {
          "internalType": "address",
          "name": "",
          "type": "address"
        }
      ],
      "stateMutability": "view",
      "type": "function"
    },
    {
      "inputs": [
        {
          "internalType": "address",
          "name": "newOwner",
          "type": "address"
        }
      ],
      "name": "transferOwnership",
      "outputs": [],
      "stateMutability": "nonpayable",
      "type": "function"
    },
    {
      "inputs": [
        {
          "internalType": "uint256",
          "name": "amount",
          "type": "uint256"
        }
      ],
      "name": "withdraw",
      "outputs": [
        {
          "internalType": "uint256",
          "name": "actualAmount",
          "type": "uint256"
        }
      ],
      "stateMutability": "nonpayable",
      "type": "function"
    }
  ],
  "transactionHash": "0x854455cb61ec4d138b697a230c2a5755f554e212dbfd601db78fe1f6d8476a71",
  "args": [
    "0xA389f9430876455C36478DeEa9769B7Ca4E3DDB1",
    "0xD825d06061fdc0585e4373F0A3F01a8C02b0e6A4",
    "0xfB3485c2e209A5cfBDC1447674256578f1A80eE3"
  ],
  "solcInputHash": "f9fd32a4de6b83a1ff4d63c4c832d057",
  "bytecode": "0x6101006040523480156200001257600080fd5b5060405162001fac38038062001fac833981016040819052620000359162000284565b6200004033620001f2565b826001600160a01b03166080816001600160a01b031660601b81525050826001600160a01b0316630dfe16816040518163ffffffff1660e01b815260040160206040518083038186803b1580156200009757600080fd5b505afa158015620000ac573d6000803e3d6000fd5b505050506040513d601f19601f82011682018060405250810190620000d291906200025f565b6001600160a01b031660a0816001600160a01b031660601b81525050826001600160a01b031663d21220a76040518163ffffffff1660e01b815260040160206040518083038186803b1580156200012857600080fd5b505afa1580156200013d573d6000803e3d6000fd5b505050506040513d601f19601f820116820180604052508101906200016391906200025f565b6001600160601b0319606091821b811660c0529083901b1660e0526001600160a01b03811615620001e9576001600160a01b038116600081815260036020908152604091829020805460ff1916600190811790915591519182527fb08a78f53a7fe017d5ca8c8fcdbf06ffa2c31f2ab668378a17700d9fc558717e910160405180910390a25b505050620002ce565b600080546001600160a01b038381166001600160a01b0319831681178455604051919092169283917f8be0079c531659141344cd1fd0a4f28419497f9722a3daafe3b4186f6b6457e09190a35050565b80516001600160a01b03811681146200025a57600080fd5b919050565b6000602082840312156200027257600080fd5b6200027d8262000242565b9392505050565b6000806000606084860312156200029a57600080fd5b620002a58462000242565b9250620002b56020850162000242565b9150620002c56040850162000242565b90509250925092565b60805160601c60a05160601c60c05160601c60e05160601c611c3d6200036f60003960008181610282015281816104520152818161050c015281816106a0015281816108d90152610ca701526000818161035b01526110b80152600081816101a5015261100c0152600081816102b1015281816104e401528181610722015281816108a201528181610a2b01528181610afb0152610d290152611c3d6000f3fe608060405234801561001057600080fd5b50600436106101585760003560e01c8063747efea1116100c3578063c415b95c1161007c578063c415b95c14610343578063d21220a714610356578063d395bc2d1461037d578063daa656de14610390578063e8bd73a5146103a3578063f2fde38b146103ac57600080fd5b8063747efea1146102ac57806374ceb267146102d35780637f8661a1146102e65780637fd6f15c146102f95780638da5cb5b1461031f578063afd706a31461033057600080fd5b80635ce6c327116101155780635ce6c3271461022e5780635fe4f30b1461024257806363b98ac8146102575780636939aaf51461026a5780636b2ace871461027d578063715018a6146102a457600080fd5b806302e548d61461015d57806303edad501461018d5780630dfe1681146101a057806318fccc76146101c75780632e1a7d4d146101e85780635066ebdd146101fb575b600080fd5b600554610170906001600160a01b031681565b6040516001600160a01b0390911681526020015b60405180910390f35b61017061019b366004611934565b6103bf565b6101707f000000000000000000000000000000000000000000000000000000000000000081565b6101da6101d5366004611966565b6103e9565b604051908152602001610184565b6101da6101f6366004611934565b61063c565b61021e610209366004611800565b60036020526000908152604090205460ff1681565b6040519015158152602001610184565b60055461021e90600160a01b900460ff1681565b61025561025036600461198b565b610850565b005b61025561026536600461187a565b61093a565b610255610278366004611934565b6109e6565b6101707f000000000000000000000000000000000000000000000000000000000000000081565b610255610bdb565b6101707f000000000000000000000000000000000000000000000000000000000000000081565b6102556102e1366004611841565b610c11565b6101da6102f4366004611934565b610c9a565b60015461030d90600160a01b900460ff1681565b60405160ff9091168152602001610184565b6000546001600160a01b0316610170565b61025561033e366004611800565b610e74565b600154610170906001600160a01b031681565b6101707f000000000000000000000000000000000000000000000000000000000000000081565b61025561038b3660046119e7565b611290565b6101da61039e366004611934565b611685565b6101da60025481565b6102556103ba366004611800565b6116fe565b600481815481106103cf57600080fd5b6000918252602090912001546001600160a01b0316905081565b600554600090600160a01b900460ff16156104475760405162461bcd60e51b815260206004820152601960248201527810995b9d1bd09bde0814dd1c985d1959de4e88195e1a5d1959603a1b60448201526064015b60405180910390fd5b336001600160a01b037f0000000000000000000000000000000000000000000000000000000000000000161461048f5760405162461bcd60e51b815260040161043e90611a19565b6005546001600160a01b03166104b75760405162461bcd60e51b815260040161043e90611ac4565b6001600160a01b038216301480156105925750600254604051634ffe34db60e01b81526001600160a01b037f0000000000000000000000000000000000000000000000000000000000000000811660048301527f00000000000000000000000000000000000000000000000000000000000000001690634ffe34db90602401604080518083038186803b15801561054d57600080fd5b505afa158015610561573d6000803e3d6000fd5b505050506040513d601f19601f8201168201806040525081019061058591906118cb565b516001600160801b031611155b801561059e5750600083115b1561063257600560009054906101000a90046001600160a01b03166001600160a01b0316634641257d6040518163ffffffff1660e01b8152600401602060405180830381600087803b1580156105f357600080fd5b505af1158015610607573d6000803e3d6000fd5b505050506040513d601f19601f8201168201806040525081019061062b919061194d565b9050610636565b5060005b92915050565b600554600090600160a01b900460ff16156106955760405162461bcd60e51b815260206004820152601960248201527810995b9d1bd09bde0814dd1c985d1959de4e88195e1a5d1959603a1b604482015260640161043e565b336001600160a01b037f000000000000000000000000000000000000000000000000000000000000000016146106dd5760405162461bcd60e51b815260040161043e90611a19565b6005546001600160a01b03166107055760405162461bcd60e51b815260040161043e90611ac4565b60055460408051631485867d60e01b815290516001600160a01b037f00000000000000000000000000000000000000000000000000000000000000008116931691631485867d916004808301926020929190829003018186803b15801561076b57600080fd5b505afa15801561077f573d6000803e3d6000fd5b505050506040513d601f19601f820116820180604052508101906107a39190611824565b6001600160a01b0316146107c95760405162461bcd60e51b815260040161043e90611aea565b600554604051632e1a7d4d60e01b8152600481018490526001600160a01b0390911690632e1a7d4d906024015b602060405180830381600087803b15801561081057600080fd5b505af1158015610824573d6000803e3d6000fd5b505050506040513d601f19601f82011682018060405250810190610848919061194d565b90505b919050565b3360009081526003602052604090205460ff1661087f5760405162461bcd60e51b815260040161043e90611a83565b821561088b5760028390555b6040516366c6bb0b60e01b81526001600160a01b037f0000000000000000000000000000000000000000000000000000000000000000811660048301528315156024830152604482018390527f000000000000000000000000000000000000000000000000000000000000000016906366c6bb0b90606401600060405180830381600087803b15801561091d57600080fd5b505af1158015610931573d6000803e3d6000fd5b50505050505050565b6000546001600160a01b031633146109645760405162461bcd60e51b815260040161043e90611a4e565b6001546064600160a01b90910460ff1611156109b75760405162461bcd60e51b81526020600482015260126024820152711a5b9d985b1a590819995954195c98d95b9d60721b604482015260640161043e565b6001805460ff909216600160a01b026001600160a81b03199092166001600160a01b0390931692909217179055565b6005546001600160a01b0316610a0e5760405162461bcd60e51b815260040161043e90611ac4565b60055460408051631485867d60e01b815290516001600160a01b037f00000000000000000000000000000000000000000000000000000000000000008116931691631485867d916004808301926020929190829003018186803b158015610a7457600080fd5b505afa158015610a88573d6000803e3d6000fd5b505050506040513d601f19601f82011682018060405250810190610aac9190611824565b6001600160a01b031614610ad25760405162461bcd60e51b815260040161043e90611aea565b60055460405163a9059cbb60e01b81526001600160a01b039182166004820152602481018390527f00000000000000000000000000000000000000000000000000000000000000009091169063a9059cbb90604401602060405180830381600087803b158015610b4157600080fd5b505af1158015610b55573d6000803e3d6000fd5b505050506040513d601f19601f82011682018060405250810190610b7991906118ae565b50600554604051636939aaf560e01b8152600481018390526001600160a01b0390911690636939aaf590602401600060405180830381600087803b158015610bc057600080fd5b505af1158015610bd4573d6000803e3d6000fd5b5050505050565b6000546001600160a01b03163314610c055760405162461bcd60e51b815260040161043e90611a4e565b610c0f6000611799565b565b6000546001600160a01b03163314610c3b5760405162461bcd60e51b815260040161043e90611a4e565b6001600160a01b038216600081815260036020908152604091829020805460ff191685151590811790915591519182527fb08a78f53a7fe017d5ca8c8fcdbf06ffa2c31f2ab668378a17700d9fc558717e910160405180910390a25050565b6000336001600160a01b037f00000000000000000000000000000000000000000000000000000000000000001614610ce45760405162461bcd60e51b815260040161043e90611a19565b6005546001600160a01b0316610d0c5760405162461bcd60e51b815260040161043e90611ac4565b60055460408051631485867d60e01b815290516001600160a01b037f00000000000000000000000000000000000000000000000000000000000000008116931691631485867d916004808301926020929190829003018186803b158015610d7257600080fd5b505afa158015610d86573d6000803e3d6000fd5b505050506040513d601f19601f82011682018060405250810190610daa9190611824565b6001600160a01b031614610dd05760405162461bcd60e51b815260040161043e90611aea565b600554604080516374fd6c7760e11b815290516000926001600160a01b03169163e9fad8ee91600480830192602092919082900301818787803b158015610e1657600080fd5b505af1158015610e2a573d6000803e3d6000fd5b505050506040513d601f19601f82011682018060405250810190610e4e919061194d565b9050610e5a8382611b62565b6005805460ff60a01b1916600160a01b1790559392505050565b6000546001600160a01b03163314610e9e5760405162461bcd60e51b815260040161043e90611a4e565b6001600160a01b038116610ec45760405162461bcd60e51b815260040161043e90611ac4565b306001600160a01b0316816001600160a01b031663b636a0196040518163ffffffff1660e01b815260040160206040518083038186803b158015610f0757600080fd5b505afa158015610f1b573d6000803e3d6000fd5b505050506040513d601f19601f82011682018060405250810190610f3f9190611824565b6001600160a01b031614610f955760405162461bcd60e51b815260206004820152601860248201527f64796e616d69635374726174656779206d69736d617463680000000000000000604482015260640161043e565b6000816001600160a01b0316631485867d6040518163ffffffff1660e01b815260040160206040518083038186803b158015610fd057600080fd5b505afa158015610fe4573d6000803e3d6000fd5b505050506040513d601f19601f820116820180604052508101906110089190611824565b90507f00000000000000000000000000000000000000000000000000000000000000006001600160a01b0316816001600160a01b0316630dfe16816040518163ffffffff1660e01b815260040160206040518083038186803b15801561106d57600080fd5b505afa158015611081573d6000803e3d6000fd5b505050506040513d601f19601f820116820180604052508101906110a59190611824565b6001600160a01b031614801561115c57507f00000000000000000000000000000000000000000000000000000000000000006001600160a01b0316816001600160a01b031663d21220a76040518163ffffffff1660e01b815260040160206040518083038186803b15801561111957600080fd5b505afa15801561112d573d6000803e3d6000fd5b505050506040513d601f19601f820116820180604052508101906111519190611824565b6001600160a01b0316145b61119e5760405162461bcd60e51b8152602060048201526013602482015272696e636f6d70617469626c6520746f6b656e7360681b604482015260640161043e565b6004805460018101825560009182527f8a35acfbc15ff81a39ae7d344fd709f28e8600b4aa8c65c6b64bfe7fe36bd19b0180546001600160a01b0319166001600160a01b03851690811790915560405190917f532af62603a7917d8a959bf9c60ef3a9b25b2f1c8db43b9e292df3d61c13ece391a26005546001600160a01b031661128c57600580546001600160a01b0319166001600160a01b03841690811790915560408051600080825260208201819052918101829052606081018290527f11bc2f1d9baf5a62666255fd9abcc999804f799f7bdb855b7014d21c03d7a14f9060800160405180910390a35b5050565b3360009081526003602052604090205460ff166112bf5760405162461bcd60e51b815260040161043e90611a83565b60045484106113005760405162461bcd60e51b815260206004820152600d60248201526c0d2dcecc2d8d2c840d2dcc8caf609b1b604482015260640161043e565b600554600480546001600160a01b03909216918690811061132357611323611bce565b600091825260209091200154600580546001600160a01b0319166001600160a01b0392831690811790915590821614156113915760405162461bcd60e51b815260206004820152600f60248201526e185b1c9958591e4818dd5c9c995b9d608a1b604482015260640161043e565b600560009054906101000a90046001600160a01b03166001600160a01b0316631485867d6040518163ffffffff1660e01b815260040160206040518083038186803b1580156113df57600080fd5b505afa1580156113f3573d6000803e3d6000fd5b505050506040513d601f19601f820116820180604052508101906114179190611824565b6001600160a01b0316816001600160a01b0316631485867d6040518163ffffffff1660e01b815260040160206040518083038186803b15801561145957600080fd5b505afa15801561146d573d6000803e3d6000fd5b505050506040513d601f19601f820116820180604052508101906114919190611824565b6001600160a01b031614610bd4576005546040516383f3b2dd60e01b81526001600160a01b0391821660048201526000918291908416906383f3b2dd906024016040805180830381600087803b1580156114ea57600080fd5b505af11580156114fe573d6000803e3d6000fd5b505050506040513d601f19601f8201168201806040525081019061152291906119c3565b6005546040516362f8ccd560e01b8152600481018990526024810188905292945090925060009182916001600160a01b0316906362f8ccd5906044016040805180830381600087803b15801561157757600080fd5b505af115801561158b573d6000803e3d6000fd5b505050506040513d601f19601f820116820180604052508101906115af91906119c3565b909250905060006127106115c38a86611b43565b6115cd9190611b21565b6115d79085611ba1565b90508082101561161f5760405162461bcd60e51b81526020600482015260136024820152721b585e1a5b5d5b509c1cc8195e18d959591959606a1b604482015260640161043e565b6005546040805187815260208101879052908101859052606081018490526001600160a01b03918216918816907f11bc2f1d9baf5a62666255fd9abcc999804f799f7bdb855b7014d21c03d7a14f9060800160405180910390a350505050505050505050565b3360009081526003602052604081205460ff166116b45760405162461bcd60e51b815260040161043e90611a83565b600554600154604051631cc6604160e01b815260048101859052600160a01b820460ff1660248201526001600160a01b039182166044820152911690631cc66041906064016107f6565b6000546001600160a01b031633146117285760405162461bcd60e51b815260040161043e90611a4e565b6001600160a01b03811661178d5760405162461bcd60e51b815260206004820152602660248201527f4f776e61626c653a206e6577206f776e657220697320746865207a65726f206160448201526564647265737360d01b606482015260840161043e565b61179681611799565b50565b600080546001600160a01b038381166001600160a01b0319831681178455604051919092169283917f8be0079c531659141344cd1fd0a4f28419497f9722a3daafe3b4186f6b6457e09190a35050565b80516001600160801b038116811461084b57600080fd5b60006020828403121561181257600080fd5b813561181d81611be4565b9392505050565b60006020828403121561183657600080fd5b815161181d81611be4565b6000806040838503121561185457600080fd5b823561185f81611be4565b9150602083013561186f81611bf9565b809150509250929050565b6000806040838503121561188d57600080fd5b823561189881611be4565b9150602083013560ff8116811461186f57600080fd5b6000602082840312156118c057600080fd5b815161181d81611bf9565b6000604082840312156118dd57600080fd5b6040516040810181811067ffffffffffffffff8211171561190e57634e487b7160e01b600052604160045260246000fd5b60405261191a836117e9565b8152611928602084016117e9565b60208201529392505050565b60006020828403121561194657600080fd5b5035919050565b60006020828403121561195f57600080fd5b5051919050565b6000806040838503121561197957600080fd5b82359150602083013561186f81611be4565b6000806000606084860312156119a057600080fd5b8335925060208401356119b281611bf9565b929592945050506040919091013590565b600080604083850312156119d657600080fd5b505080516020909101519092909150565b600080600080608085870312156119fd57600080fd5b5050823594602084013594506040840135936060013592509050565b6020808252818101527f42656e746f426f782053747261746567793a206f6e6c792042656e746f426f78604082015260600190565b6020808252818101527f4f776e61626c653a2063616c6c6572206973206e6f7420746865206f776e6572604082015260600190565b60208082526021908201527f42656e746f426f782053747261746567793a206f6e6c79204578656375746f726040820152607360f81b606082015260800190565b6020808252600c908201526b7a65726f206164647265737360a01b604082015260600190565b6020808252601a908201527f6e6f742068616e646c696e67207374726174656779546f6b656e000000000000604082015260600190565b600082611b3e57634e487b7160e01b600052601260045260246000fd5b500490565b6000816000190483118215151615611b5d57611b5d611bb8565b500290565b60008083128015600160ff1b850184121615611b8057611b80611bb8565b6001600160ff1b0384018313811615611b9b57611b9b611bb8565b50500390565b600082821015611bb357611bb3611bb8565b500390565b634e487b7160e01b600052601160045260246000fd5b634e487b7160e01b600052603260045260246000fd5b6001600160a01b038116811461179657600080fd5b801515811461179657600080fdfea2646970667358221220a5b7d043fae1608a6a7b7935d0acc96bb03f5f218b2e05b9033b08c5a4f1f78664736f6c63430008070033",
  "devdoc": {
    "events": {
      "LogSubStrategyAdded(address)": {
        "details": "After bentobox 'exits' the strategy harvest, skim and withdraw functions can no loner be called"
      }
    },
    "kind": "dev",
    "methods": {
      "changeStrategy(uint256,uint256,uint256,uint256)": {
        "params": {
          "index": "the index of the next strategy to use",
          "maxSlippageBps": "maximum tolerated amount of basis points of the total migrated                   5 = 0.05%                   10_000 = 100%",
          "minDustAmount0": "when the new strategy needs to wrap the token0 and token1 from previousSubStrategy                     unwrapped token0 and token1, after initial addLiquidity, what minimum remaining                     amount left in the contract (from new pair imbalance),                     should be considered to swap again for more liquidity. Set to 0 to ignore.",
          "minDustAmount1": "same as minDustAmount0 but for token1"
        }
      },
      "constructor": {
        "params": {
          "_bentoBox": "BentoBox address.",
          "_strategyExecutor": "an EOA that will execute the safeHarvest function.",
          "_strategyToken": "Address of the underlying LP token the strategy invests."
        }
      },
      "exit(uint256)": {
        "details": "do not use isActive modifier here; allow bentobox to call strategy.exit() multiple times",
        "params": {
          "balance": "The amount of tokens the caller thinks it has invested."
        },
        "returns": {
          "amountAdded": "The delta (+profit or -loss) that occured in contrast to `balance`."
        }
      },
      "harvest(uint256,address)": {
        "details": "Only BentoBox can call harvest on this strategy.Ensures that (1) the caller was this contract (called through the safeHarvest function) and (2) that we are not being frontrun by a large BentoBox deposit when harvesting profits.Beware that calling harvest can result in a subsequent skim or withdraw call if it's rebalancing.",
        "params": {
          "balance": "The amount of tokens the caller thinks it has invested.",
          "sender": "The address of the initiator of this transaction. Can be used for reimbursements, etc."
        },
        "returns": {
          "_0": "The delta (+profit or -loss) that occured in contrast to `balance`."
        }
      },
      "owner()": {
        "details": "Returns the address of the current owner."
      },
      "renounceOwnership()": {
        "details": "Leaves the contract without owner. It will not be possible to call `onlyOwner` functions anymore. Can only be called by the current owner. NOTE: Renouncing ownership will leave the contract without an owner, thereby removing any functionality that is only available to the owner."
      },
      "safeHarvest(uint256,bool,uint256)": {
        "details": "maxBalance can be set to 0 to keep the previous value.maxChangeAmount can be set to 0 to allow for full rebalancing.",
        "params": {
          "maxBalance": "The maximum balance of the underlying token that is allowed to be in BentoBox.",
          "maxChangeAmount": "When rebalancing - the maximum amount that will be deposited to or withdrawn from a strategy to BentoBox.",
          "rebalance": "Whether BentoBox should rebalance the strategy assets to acheive it's target allocation."
        }
      },
      "skim(uint256)": {
        "params": {
          "amount": "The amount of tokens to invest."
        }
      },
      "transferOwnership(address)": {
        "details": "Transfers ownership of the contract to a new account (`newOwner`). Can only be called by the current owner."
      },
      "withdraw(uint256)": {
        "details": "The `actualAmount` should be very close to the amount. The difference should NOT be used to report a loss. That's what harvest is for.",
        "params": {
          "amount": "The requested amount the caller wants to withdraw."
        },
        "returns": {
          "actualAmount": "The real amount that is withdrawn."
        }
      }
    },
    "stateVariables": {
      "strategyExecutors": {
        "details": "Slippage protection when calling harvest"
      },
      "subStrategies": {
        "details": "EOAs that can execute safeHarvest"
      }
    },
    "version": 1
  },
  "userdoc": {
    "kind": "user",
    "methods": {
      "exit(uint256)": {
        "notice": "Withdraw all assets in the safest way possible. This shouldn't fail."
      },
      "harvest(uint256,address)": {
        "notice": "Harvest any profits made converted to the asset and pass them to the caller."
      },
      "safeHarvest(uint256,bool,uint256)": {
        "notice": "Harvest profits while preventing a sandwich attack exploit."
      },
      "skim(uint256)": {
        "notice": "Send the assets to the Strategy and call skim to invest them."
      },
      "withdraw(uint256)": {
        "notice": "Withdraw assets. The returned amount can differ from the requested amount due to rounding."
      }
    },
    "notice": "Dynamic strategy that can have different farming strategy For example, farming on Trader Joe then unwrap the jLP to mint pLP and farm on Pengolin.",
    "version": 1
  },
  "storageLayout": {
    "storage": [
      {
        "astId": 7,
        "contract": "contracts/strategies/dynamic/DynamicLPStrategy.sol:DynamicLPStrategy",
        "label": "_owner",
        "offset": 0,
        "slot": "0",
        "type": "t_address"
      },
      {
        "astId": 6800,
        "contract": "contracts/strategies/dynamic/DynamicLPStrategy.sol:DynamicLPStrategy",
        "label": "feeCollector",
        "offset": 0,
        "slot": "1",
        "type": "t_address"
      },
      {
        "astId": 6802,
        "contract": "contracts/strategies/dynamic/DynamicLPStrategy.sol:DynamicLPStrategy",
        "label": "feePercent",
        "offset": 20,
        "slot": "1",
        "type": "t_uint8"
      },
      {
        "astId": 6804,
        "contract": "contracts/strategies/dynamic/DynamicLPStrategy.sol:DynamicLPStrategy",
        "label": "maxBentoBoxBalance",
        "offset": 0,
        "slot": "2",
        "type": "t_uint256"
      },
      {
        "astId": 6809,
        "contract": "contracts/strategies/dynamic/DynamicLPStrategy.sol:DynamicLPStrategy",
        "label": "strategyExecutors",
        "offset": 0,
        "slot": "3",
        "type": "t_mapping(t_address,t_bool)"
      },
      {
        "astId": 6814,
        "contract": "contracts/strategies/dynamic/DynamicLPStrategy.sol:DynamicLPStrategy",
        "label": "subStrategies",
        "offset": 0,
        "slot": "4",
        "type": "t_array(t_contract(IDynamicSubLPStrategy)3256)dyn_storage"
      },
      {
        "astId": 6817,
        "contract": "contracts/strategies/dynamic/DynamicLPStrategy.sol:DynamicLPStrategy",
        "label": "currentSubStrategy",
        "offset": 0,
        "slot": "5",
        "type": "t_contract(IDynamicSubLPStrategy)3256"
      },
      {
        "astId": 6819,
        "contract": "contracts/strategies/dynamic/DynamicLPStrategy.sol:DynamicLPStrategy",
        "label": "exited",
        "offset": 20,
        "slot": "5",
        "type": "t_bool"
      }
    ],
    "types": {
      "t_address": {
        "encoding": "inplace",
        "label": "address",
        "numberOfBytes": "20"
      },
      "t_array(t_contract(IDynamicSubLPStrategy)3256)dyn_storage": {
        "base": "t_contract(IDynamicSubLPStrategy)3256",
        "encoding": "dynamic_array",
        "label": "contract IDynamicSubLPStrategy[]",
        "numberOfBytes": "32"
      },
      "t_bool": {
        "encoding": "inplace",
        "label": "bool",
        "numberOfBytes": "1"
      },
      "t_contract(IDynamicSubLPStrategy)3256": {
        "encoding": "inplace",
        "label": "contract IDynamicSubLPStrategy",
        "numberOfBytes": "20"
      },
      "t_mapping(t_address,t_bool)": {
        "encoding": "mapping",
        "key": "t_address",
        "label": "mapping(address => bool)",
        "numberOfBytes": "32",
        "value": "t_bool"
      },
      "t_uint256": {
        "encoding": "inplace",
        "label": "uint256",
        "numberOfBytes": "32"
      },
      "t_uint8": {
        "encoding": "inplace",
        "label": "uint8",
        "numberOfBytes": "1"
      }
    }
  }
}