{
  "address": "0x244BafbaE9C47c795d3Ab76ee77C5BA62E92285B",
  "abi": [
    {
      "inputs": [
        {
          "internalType": "address",
          "name": "_strategyToken",
          "type": "address"
        },
        {
          "internalType": "address",
          "name": "_bentoBox",
          "type": "address"
        },
        {
          "internalType": "address",
          "name": "_factory",
          "type": "address"
        },
        {
          "internalType": "address",
          "name": "_bridgeToken",
          "type": "address"
        },
        {
          "internalType": "address",
          "name": "_strategyExecutor",
          "type": "address"
        },
        {
          "internalType": "contract IMasterChef",
          "name": "_masterchef",
          "type": "address"
        },
        {
          "internalType": "contract ISushiSwap",
          "name": "_router",
          "type": "address"
        },
        {
          "internalType": "bytes32",
          "name": "_pairCodeHash",
          "type": "bytes32"
        }
      ],
      "stateMutability": "nonpayable",
      "type": "constructor"
    },
    {
      "anonymous": false,
      "inputs": [
        {
          "indexed": true,
          "internalType": "address",
          "name": "server",
          "type": "address"
        },
        {
          "indexed": true,
          "internalType": "address",
          "name": "token0",
          "type": "address"
        },
        {
          "indexed": true,
          "internalType": "address",
          "name": "token1",
          "type": "address"
        },
        {
          "indexed": false,
          "internalType": "uint256",
          "name": "amount0",
          "type": "uint256"
        },
        {
          "indexed": false,
          "internalType": "uint256",
          "name": "amount1",
          "type": "uint256"
        }
      ],
      "name": "LogConvert",
      "type": "event"
    },
    {
      "anonymous": false,
      "inputs": [
        {
          "indexed": true,
          "internalType": "address",
          "name": "executor",
          "type": "address"
        },
        {
          "indexed": false,
          "internalType": "bool",
          "name": "allowed",
          "type": "bool"
        }
      ],
      "name": "LogSetStrategyExecutor",
      "type": "event"
    },
    {
      "anonymous": false,
      "inputs": [
        {
          "indexed": false,
          "internalType": "uint256",
          "name": "total",
          "type": "uint256"
        },
        {
          "indexed": false,
          "internalType": "uint256",
          "name": "strategyAmount",
          "type": "uint256"
        },
        {
          "indexed": false,
          "internalType": "uint256",
          "name": "feeAmount",
          "type": "uint256"
        }
      ],
      "name": "LpMinted",
      "type": "event"
    },
    {
      "anonymous": false,
      "inputs": [
        {
          "indexed": true,
          "internalType": "address",
          "name": "previousOwner",
          "type": "address"
        },
        {
          "indexed": true,
          "internalType": "address",
          "name": "newOwner",
          "type": "address"
        }
      ],
      "name": "OwnershipTransferred",
      "type": "event"
    },
    {
      "inputs": [
        {
          "internalType": "address",
          "name": "to",
          "type": "address"
        },
        {
          "internalType": "uint256",
          "name": "value",
          "type": "uint256"
        },
        {
          "internalType": "bytes",
          "name": "data",
          "type": "bytes"
        }
      ],
      "name": "afterExit",
      "outputs": [
        {
          "internalType": "bool",
          "name": "success",
          "type": "bool"
        }
      ],
      "stateMutability": "nonpayable",
      "type": "function"
    },
    {
      "inputs": [],
      "name": "bentoBox",
      "outputs": [
        {
          "internalType": "address",
          "name": "",
          "type": "address"
        }
      ],
      "stateMutability": "view",
      "type": "function"
    },
    {
      "inputs": [],
      "name": "bridgeToken",
      "outputs": [
        {
          "internalType": "address",
          "name": "",
          "type": "address"
        }
      ],
      "stateMutability": "view",
      "type": "function"
    },
    {
      "inputs": [
        {
          "internalType": "uint256",
          "name": "balance",
          "type": "uint256"
        }
      ],
      "name": "exit",
      "outputs": [
        {
          "internalType": "int256",
          "name": "amountAdded",
          "type": "int256"
        }
      ],
      "stateMutability": "nonpayable",
      "type": "function"
    },
    {
      "inputs": [],
      "name": "exited",
      "outputs": [
        {
          "internalType": "bool",
          "name": "",
          "type": "bool"
        }
      ],
      "stateMutability": "view",
      "type": "function"
    },
    {
      "inputs": [],
      "name": "factory",
      "outputs": [
        {
          "internalType": "address",
          "name": "",
          "type": "address"
        }
      ],
      "stateMutability": "view",
      "type": "function"
    },
    {
      "inputs": [],
      "name": "feeCollector",
      "outputs": [
        {
          "internalType": "address",
          "name": "",
          "type": "address"
        }
      ],
      "stateMutability": "view",
      "type": "function"
    },
    {
      "inputs": [
        {
          "internalType": "uint256",
          "name": "balance",
          "type": "uint256"
        },
        {
          "internalType": "address",
          "name": "sender",
          "type": "address"
        }
      ],
      "name": "harvest",
      "outputs": [
        {
          "internalType": "int256",
          "name": "",
          "type": "int256"
        }
      ],
      "stateMutability": "nonpayable",
      "type": "function"
    },
    {
      "inputs": [],
      "name": "maxBentoBoxBalance",
      "outputs": [
        {
          "internalType": "uint256",
          "name": "",
          "type": "uint256"
        }
      ],
      "stateMutability": "view",
      "type": "function"
    },
    {
      "inputs": [],
      "name": "owner",
      "outputs": [
        {
          "internalType": "address",
          "name": "",
          "type": "address"
        }
      ],
      "stateMutability": "view",
      "type": "function"
    },
    {
      "inputs": [],
      "name": "renounceOwnership",
      "outputs": [],
      "stateMutability": "nonpayable",
      "type": "function"
    },
    {
      "inputs": [
        {
          "internalType": "uint256",
          "name": "maxBalance",
          "type": "uint256"
        },
        {
          "internalType": "bool",
          "name": "rebalance",
          "type": "bool"
        },
        {
          "internalType": "uint256",
          "name": "maxChangeAmount",
          "type": "uint256"
        },
        {
          "internalType": "bool",
          "name": "harvestRewards",
          "type": "bool"
        }
      ],
      "name": "safeHarvest",
      "outputs": [],
      "stateMutability": "nonpayable",
      "type": "function"
    },
    {
      "inputs": [
        {
          "internalType": "address",
          "name": "_feeCollector",
          "type": "address"
        }
      ],
      "name": "setFeeCollector",
      "outputs": [],
      "stateMutability": "nonpayable",
      "type": "function"
    },
    {
      "inputs": [
        {
          "internalType": "address",
          "name": "executor",
          "type": "address"
        },
        {
          "internalType": "bool",
          "name": "value",
          "type": "bool"
        }
      ],
      "name": "setStrategyExecutor",
      "outputs": [],
      "stateMutability": "nonpayable",
      "type": "function"
    },
    {
      "inputs": [
        {
          "internalType": "uint256",
          "name": "amount",
          "type": "uint256"
        }
      ],
      "name": "skim",
      "outputs": [],
      "stateMutability": "nonpayable",
      "type": "function"
    },
    {
      "inputs": [
        {
          "internalType": "address",
          "name": "",
          "type": "address"
        }
      ],
      "name": "strategyExecutors",
      "outputs": [
        {
          "internalType": "bool",
          "name": "",
          "type": "bool"
        }
      ],
      "stateMutability": "view",
      "type": "function"
    },
    {
      "inputs": [],
      "name": "strategyToken",
      "outputs": [
        {
          "internalType": "address",
          "name": "",
          "type": "address"
        }
      ],
      "stateMutability": "view",
      "type": "function"
    },
    {
      "inputs": [
        {
          "internalType": "uint256",
          "name": "amountOutMin",
          "type": "uint256"
        },
        {
          "internalType": "address",
          "name": "inputToken",
          "type": "address"
        }
      ],
      "name": "swapExactTokensForUnderlying",
      "outputs": [
        {
          "internalType": "uint256",
          "name": "amountOut",
          "type": "uint256"
        }
      ],
      "stateMutability": "nonpayable",
      "type": "function"
    },
    {
      "inputs": [
        {
          "internalType": "address",
          "name": "newOwner",
          "type": "address"
        }
      ],
      "name": "transferOwnership",
      "outputs": [],
      "stateMutability": "nonpayable",
      "type": "function"
    },
    {
      "inputs": [
        {
          "internalType": "uint256",
          "name": "amount",
          "type": "uint256"
        }
      ],
      "name": "withdraw",
      "outputs": [
        {
          "internalType": "uint256",
          "name": "actualAmount",
          "type": "uint256"
        }
      ],
      "stateMutability": "nonpayable",
      "type": "function"
    }
  ],
  "transactionHash": "0x579d60c74fcd76ea1d115934ac0232ce03e3a5295d76dc7186631ff7d4a31cd4",
  "args": [
    "0x57319d41F71E81F3c65F2a47CA4e001EbAFd4F33",
    "0x1fC83f75499b7620d53757f0b01E2ae626aAE530",
    "0x9Ad6C38BE94206cA50bb0d90783181662f0Cfa10",
    "0x0000000000000000000000000000000000000000",
    "0xfddfE525054efaAD204600d00CA86ADb1Cc2ea8a",
    "0xd6a4F121CA35509aF06A0Be99093d08462f53052",
    "0x60aE616a2155Ee3d9A68541Ba4544862310933d4",
    "0x0bbca9af0511ad1a1da383135cf3a8d2ac620e549ef9f6ae3a4c33c2fed0af91"
  ],
  "solcInputHash": "180f8aa541f29b573c531ebfab5060e6",
  "bytecode": "0x6101606040523480156200001257600080fd5b506040516200305b3803806200305b83398101604081905262000035916200059f565b878787878785620000463362000182565b6001600160601b0319606087811b821660805286811b821660a05285811b821660c05284901b1660e0526101008190526001600160a01b03821615620000e1576001600160a01b038216600081815260026020908152604091829020805460ff1916600190811790915591519182527fb08a78f53a7fe017d5ca8c8fcdbf06ffa2c31f2ab668378a17700d9fc558717e910160405180910390a25b5050506001600160601b0319606087811b82166101405286901b1661012052506200010c9150503390565b600380546001600160a01b0319166001600160a01b039283161790556200014590891684600019620001d2602090811b6200126717901c565b62000174736e84a6216ea6dacc71ee8e6b0a5b7322eebc0fdd89600019620001d2602090811b6200126717901c565b505050505050505062000731565b600080546001600160a01b038381166001600160a01b0319831681178455604051919092169283917f8be0079c531659141344cd1fd0a4f28419497f9722a3daafe3b4186f6b6457e09190a35050565b801580620002605750604051636eb1769f60e11b81523060048201526001600160a01b03838116602483015284169063dd62ed3e9060440160206040518083038186803b1580156200022357600080fd5b505afa15801562000238573d6000803e3d6000fd5b505050506040513d601f19601f820116820180604052508101906200025e919062000678565b155b620002d85760405162461bcd60e51b815260206004820152603660248201527f5361666545524332303a20617070726f76652066726f6d206e6f6e2d7a65726f60448201527f20746f206e6f6e2d7a65726f20616c6c6f77616e63650000000000000000000060648201526084015b60405180910390fd5b604080516001600160a01b038416602482015260448082018490528251808303909101815260649091019091526020810180516001600160e01b0390811663095ea7b360e01b17909152620003309185916200033516565b505050565b600062000391826040518060400160405280602081526020017f5361666545524332303a206c6f772d6c6576656c2063616c6c206661696c6564815250856001600160a01b03166200041360201b620013c3179092919060201c565b805190915015620003305780806020019051810190620003b2919062000654565b620003305760405162461bcd60e51b815260206004820152602a60248201527f5361666545524332303a204552433230206f7065726174696f6e20646964206e6044820152691bdd081cdd58d8d9595960b21b6064820152608401620002cf565b60606200042484846000856200042e565b90505b9392505050565b606082471015620004915760405162461bcd60e51b815260206004820152602660248201527f416464726573733a20696e73756666696369656e742062616c616e636520666f6044820152651c8818d85b1b60d21b6064820152608401620002cf565b843b620004e15760405162461bcd60e51b815260206004820152601d60248201527f416464726573733a2063616c6c20746f206e6f6e2d636f6e74726163740000006044820152606401620002cf565b600080866001600160a01b03168587604051620004ff919062000692565b60006040518083038185875af1925050503d80600081146200053e576040519150601f19603f3d011682016040523d82523d6000602084013e62000543565b606091505b5090925090506200055682828662000561565b979650505050505050565b606083156200057257508162000427565b825115620005835782518084602001fd5b8160405162461bcd60e51b8152600401620002cf9190620006b0565b600080600080600080600080610100898b031215620005bd57600080fd5b8851620005ca8162000718565b60208a0151909850620005dd8162000718565b60408a0151909750620005f08162000718565b60608a0151909650620006038162000718565b60808a0151909550620006168162000718565b60a08a0151909450620006298162000718565b60c08a01519093506200063c8162000718565b8092505060e089015190509295985092959890939650565b6000602082840312156200066757600080fd5b815180151581146200042757600080fd5b6000602082840312156200068b57600080fd5b5051919050565b60008251620006a6818460208701620006e5565b9190910192915050565b6020815260008251806020840152620006d1816040850160208701620006e5565b601f01601f19169190910160400192915050565b60005b8381101562000702578181015183820152602001620006e8565b8381111562000712576000848401525b50505050565b6001600160a01b03811681146200072e57600080fd5b50565b60805160601c60a05160601c60c05160601c60e05160601c610100516101205160601c6101405160601c6127c462000897600039600081816113fc015281816116ac0152818161173101526117ce01526000505060008181610dfb01528181610f080152611bde01526000818161031201528181610bc60152610c840152600081816102bc01528181610ace01528181610dd801528181610eb101528181611b780152611bbb0152600081816101cb0152818161039b0152818161042d015281816105ab01528181610625015281816106e7015281816107f5015281816108f701528181610a13015261108301526000818161021201528181610405015281816104f2015281816105890152818161060301528181610742015281816107d301528181610954015281816109f101528181610b4401528181610cd901528181610f9d0152818161104c015281816114730152818161157a015261162c01526127c46000f3fe608060405234801561001057600080fd5b506004361061012c5760003560e01c80638da5cb5b116100ad578063c45a015511610071578063c45a0155146102b7578063d9253c2d146102de578063e8bd73a5146102f1578063f2fde38b146102fa578063f4734b0c1461030d57600080fd5b80638da5cb5b1461025a578063a42dce801461026b578063a7edd48c1461027e578063ba6275ab14610291578063c415b95c146102a457600080fd5b80636b2ace87116100f45780636b2ace87146101c6578063715018a614610205578063747efea11461020d57806374ceb267146102345780637f8661a11461024757600080fd5b806318fccc76146101315780632e1a7d4d146101575780635066ebdd1461016a5780635ce6c3271461019d5780636939aaf5146101b1575b600080fd5b61014461013f366004612406565b610334565b6040519081526020015b60405180910390f35b6101446101653660046123d4565b610685565b61018d61017836600461220b565b60026020526000908152604090205460ff1681565b604051901515815260200161014e565b60005461018d90600160a01b900460ff1681565b6101c46101bf3660046123d4565b61081f565b005b6101ed7f000000000000000000000000000000000000000000000000000000000000000081565b6040516001600160a01b03909116815260200161014e565b6101c461082b565b6101ed7f000000000000000000000000000000000000000000000000000000000000000081565b6101c4610242366004612226565b610861565b6101446102553660046123d4565b6108ea565b6000546001600160a01b03166101ed565b6101c461027936600461220b565b610a51565b61014461028c366004612406565b610a9d565b6101c461029f366004612432565b610ffa565b6003546101ed906001600160a01b031681565b6101ed7f000000000000000000000000000000000000000000000000000000000000000081565b61018d6102ec36600461225d565b6110e5565b61014460015481565b6101c461030836600461220b565b6111cf565b6101ed7f000000000000000000000000000000000000000000000000000000000000000081565b60008054600160a01b900460ff16156103905760405162461bcd60e51b815260206004820152601960248201527810995b9d1bd09bde0814dd1c985d1959de4e88195e1a5d1959603a1b60448201526064015b60405180910390fd5b336001600160a01b037f000000000000000000000000000000000000000000000000000000000000000016146103d85760405162461bcd60e51b8152600401610387906124d7565b6001600160a01b038216301480156104b35750600154604051634ffe34db60e01b81526001600160a01b037f0000000000000000000000000000000000000000000000000000000000000000811660048301527f00000000000000000000000000000000000000000000000000000000000000001690634ffe34db90602401604080518083038186803b15801561046e57600080fd5b505afa158015610482573d6000803e3d6000fd5b505050506040513d601f19601f820116820180604052508101906104a69190612329565b516001600160801b031611155b80156104bf5750600083115b1561067b5760006104cf846113dc565b6040516370a0823160e01b81523060048201529091506000906001600160a01b037f000000000000000000000000000000000000000000000000000000000000000016906370a082319060240160206040518083038186803b15801561053457600080fd5b505afa158015610548573d6000803e3d6000fd5b505050506040513d601f19601f8201168201806040525081019061056c91906123ed565b9050600082126105d95780156105d0576105d06001600160a01b037f0000000000000000000000000000000000000000000000000000000000000000167f00000000000000000000000000000000000000000000000000000000000000008361165f565b915061067f9050565b80156106735760006105eb82846125ea565b905060008113156106605761064a6001600160a01b037f0000000000000000000000000000000000000000000000000000000000000000167f00000000000000000000000000000000000000000000000000000000000000008361165f565b61065b61065684612721565b61168f565b610669565b6106698261168f565b925061067f915050565b50905061067f565b5060005b92915050565b60008054600160a01b900460ff16156106dc5760405162461bcd60e51b815260206004820152601960248201527810995b9d1bd09bde0814dd1c985d1959de4e88195e1a5d1959603a1b6044820152606401610387565b336001600160a01b037f000000000000000000000000000000000000000000000000000000000000000016146107245760405162461bcd60e51b8152600401610387906124d7565b61072d82611714565b6040516370a0823160e01b81523060048201527f00000000000000000000000000000000000000000000000000000000000000006001600160a01b0316906370a082319060240160206040518083038186803b15801561078c57600080fd5b505afa1580156107a0573d6000803e3d6000fd5b505050506040513d601f19601f820116820180604052508101906107c491906123ed565b905061081a6001600160a01b037f0000000000000000000000000000000000000000000000000000000000000000167f00000000000000000000000000000000000000000000000000000000000000008361165f565b919050565b6108288161168f565b50565b6000546001600160a01b031633146108555760405162461bcd60e51b81526004016103879061250c565b61085f6000611768565b565b6000546001600160a01b0316331461088b5760405162461bcd60e51b81526004016103879061250c565b6001600160a01b038216600081815260026020908152604091829020805460ff191685151590811790915591519182527fb08a78f53a7fe017d5ca8c8fcdbf06ffa2c31f2ab668378a17700d9fc558717e910160405180910390a25050565b6000336001600160a01b037f000000000000000000000000000000000000000000000000000000000000000016146109345760405162461bcd60e51b8152600401610387906124d7565b61093c6117b8565b6040516370a0823160e01b81523060048201526000907f00000000000000000000000000000000000000000000000000000000000000006001600160a01b0316906370a082319060240160206040518083038186803b15801561099e57600080fd5b505afa1580156109b2573d6000803e3d6000fd5b505050506040513d601f19601f820116820180604052508101906109d691906123ed565b90506109e28382612684565b9150610a386001600160a01b037f0000000000000000000000000000000000000000000000000000000000000000167f00000000000000000000000000000000000000000000000000000000000000008361165f565b506000805460ff60a01b1916600160a01b179055919050565b6000546001600160a01b03163314610a7b5760405162461bcd60e51b81526004016103879061250c565b600380546001600160a01b0319166001600160a01b0392909216919091179055565b3360009081526002602052604081205460ff16610acc5760405162461bcd60e51b815260040161038790612541565b7f00000000000000000000000000000000000000000000000000000000000000006001600160a01b0316610b425760405162461bcd60e51b815260206004820152601e60248201527f42656e746f426f782053747261746567793a2063616e6e6f74207377617000006044820152606401610387565b7f00000000000000000000000000000000000000000000000000000000000000006001600160a01b0316826001600160a01b03161415610bc45760405162461bcd60e51b815260206004820152601f60248201527f42656e746f426f782053747261746567793a20696e76616c69642073776170006044820152606401610387565b7f00000000000000000000000000000000000000000000000000000000000000006001600160a01b03161515600081610bfe576002610c01565b60035b60ff1667ffffffffffffffff811115610c1c57610c1c61276a565b604051908082528060200260200182016040528015610c45578160200160208202803683370190505b5090508381600081518110610c5c57610c5c612754565b60200260200101906001600160a01b031690816001600160a01b0316815250508115610cd7577f000000000000000000000000000000000000000000000000000000000000000081600181518110610cb657610cb6612754565b60200260200101906001600160a01b031690816001600160a01b0316815250505b7f00000000000000000000000000000000000000000000000000000000000000008160018351610d0791906126c3565b81518110610d1757610d17612754565b60200260200101906001600160a01b031690816001600160a01b031681525050600081600081518110610d4c57610d4c612754565b60209081029190910101516040516370a0823160e01b81523060048201526001600160a01b03909116906370a082319060240160206040518083038186803b158015610d9757600080fd5b505afa158015610dab573d6000803e3d6000fd5b505050506040513d601f19601f82011682018060405250810190610dcf91906123ed565b90506000610e1f7f000000000000000000000000000000000000000000000000000000000000000083857f0000000000000000000000000000000000000000000000000000000000000000611834565b90508060018251610e3091906126c3565b81518110610e4057610e40612754565b6020026020010151945086851015610ea95760405162461bcd60e51b815260206004820152602660248201527f42656e746f426f782053747261746567793a20696e73756666696369656e74206044820152651bdd5d1c1d5d60d21b6064820152608401610387565b610f7a610f2c7f000000000000000000000000000000000000000000000000000000000000000085600081518110610ee357610ee3612754565b602002602001015186600181518110610efe57610efe612754565b60200260200101517f00000000000000000000000000000000000000000000000000000000000000006119c1565b82600081518110610f3f57610f3f612754565b602002602001015185600081518110610f5a57610f5a612754565b60200260200101516001600160a01b031661165f9092919063ffffffff16565b610f85818430611a7f565b60408051838152602081018790526001600160a01b037f00000000000000000000000000000000000000000000000000000000000000008116929089169133917f3b644720db133e4e05b302a56bdb46867109debe30c44b4f25566b3c41ed627b910160405180910390a45050505092915050565b3360009081526002602052604090205460ff166110295760405162461bcd60e51b815260040161038790612541565b83156110355760018490555b6040516366c6bb0b60e01b81526001600160a01b037f0000000000000000000000000000000000000000000000000000000000000000811660048301528415156024830152604482018490527f000000000000000000000000000000000000000000000000000000000000000016906366c6bb0b90606401600060405180830381600087803b1580156110c757600080fd5b505af11580156110db573d6000803e3d6000fd5b5050505050505050565b600080546001600160a01b031633146111105760405162461bcd60e51b81526004016103879061250c565b600054600160a01b900460ff166111695760405162461bcd60e51b815260206004820152601d60248201527f42656e746f426f782053747261746567793a206e6f74206578697465640000006044820152606401610387565b836001600160a01b0316838360405161118291906124a8565b60006040518083038185875af1925050503d80600081146111bf576040519150601f19603f3d011682016040523d82523d6000602084013e6111c4565b606091505b509095945050505050565b6000546001600160a01b031633146111f95760405162461bcd60e51b81526004016103879061250c565b6001600160a01b03811661125e5760405162461bcd60e51b815260206004820152602660248201527f4f776e61626c653a206e6577206f776e657220697320746865207a65726f206160448201526564647265737360d01b6064820152608401610387565b61082881611768565b8015806112f05750604051636eb1769f60e11b81523060048201526001600160a01b03838116602483015284169063dd62ed3e9060440160206040518083038186803b1580156112b657600080fd5b505afa1580156112ca573d6000803e3d6000fd5b505050506040513d601f19601f820116820180604052508101906112ee91906123ed565b155b61135b5760405162461bcd60e51b815260206004820152603660248201527f5361666545524332303a20617070726f76652066726f6d206e6f6e2d7a65726f60448201527520746f206e6f6e2d7a65726f20616c6c6f77616e636560501b6064820152608401610387565b6040516001600160a01b0383166024820152604481018290526113be90849063095ea7b360e01b906064015b60408051601f198184030181529190526020810180516001600160e01b03166001600160e01b031990931692909217909152611cab565b505050565b60606113d28484600085611d7d565b90505b9392505050565b604051630441a3e760e41b815260186004820152600060248201819052907f00000000000000000000000000000000000000000000000000000000000000006001600160a01b03169063441a3e7090604401600060405180830381600087803b15801561144857600080fd5b505af115801561145c573d6000803e3d6000fd5b50506040516370a0823160e01b81523060048201527f00000000000000000000000000000000000000000000000000000000000000006001600160a01b0316925063a59f3e0c9150736e84a6216ea6dacc71ee8e6b0a5b7322eebc0fdd906370a082319060240160206040518083038186803b1580156114db57600080fd5b505afa1580156114ef573d6000803e3d6000fd5b505050506040513d601f19601f8201168201806040525081019061151391906123ed565b6040518263ffffffff1660e01b815260040161153191815260200190565b600060405180830381600087803b15801561154b57600080fd5b505af115801561155f573d6000803e3d6000fd5b50506040516370a0823160e01b8152306004820152600092507f00000000000000000000000000000000000000000000000000000000000000006001600160a01b031691506370a082319060240160206040518083038186803b1580156115c557600080fd5b505afa1580156115d9573d6000803e3d6000fd5b505050506040513d601f19601f820116820180604052508101906115fd91906123ed565b90506000606461160e600a84612665565b6116189190612643565b600354909150611655906001600160a01b037f0000000000000000000000000000000000000000000000000000000000000000811691168361165f565b5060009392505050565b6040516001600160a01b0383166024820152604481018290526113be90849063a9059cbb60e01b90606401611387565b604051631c57762b60e31b815260186004820152602481018290527f00000000000000000000000000000000000000000000000000000000000000006001600160a01b03169063e2bbb158906044015b600060405180830381600087803b1580156116f957600080fd5b505af115801561170d573d6000803e3d6000fd5b5050505050565b604051630441a3e760e41b815260186004820152602481018290527f00000000000000000000000000000000000000000000000000000000000000006001600160a01b03169063441a3e70906044016116df565b600080546001600160a01b038381166001600160a01b0319831681178455604051919092169283917f8be0079c531659141344cd1fd0a4f28419497f9722a3daafe3b4186f6b6457e09190a35050565b604051632989754760e11b8152601860048201527f00000000000000000000000000000000000000000000000000000000000000006001600160a01b031690635312ea8e90602401600060405180830381600087803b15801561181a57600080fd5b505af115801561182e573d6000803e3d6000fd5b50505050565b60606002835110156118885760405162461bcd60e51b815260206004820152601e60248201527f556e697377617056324c6962726172793a20494e56414c49445f5041544800006044820152606401610387565b825167ffffffffffffffff8111156118a2576118a261276a565b6040519080825280602002602001820160405280156118cb578160200160208202803683370190505b50905083816000815181106118e2576118e2612754565b60200260200101818152505060005b600184516118ff91906126c3565b8110156119b8576000806119538887858151811061191f5761191f612754565b602002602001015188866001611935919061262b565b8151811061194557611945612754565b602002602001015188611ea5565b9150915061197b84848151811061196c5761196c612754565b60200260200101518383611f80565b8461198785600161262b565b8151811061199757611997612754565b602002602001018181525050505080806119b090612706565b9150506118f1565b50949350505050565b60008060006119d08686612095565b6040516bffffffffffffffffffffffff19606084811b8216602084015283901b166034820152919350915087906048016040516020818303038152906040528051906020012085604051602001611a5c939291906001600160f81b0319815260609390931b6bffffffffffffffffffffffff191660018401526015830191909152603582015260550190565b60408051601f198184030181529190528051602090910120979650505050505050565b60005b60018351611a9091906126c3565b81101561182e57600080848381518110611aac57611aac612754565b602002602001015185846001611ac2919061262b565b81518110611ad257611ad2612754565b6020026020010151915091506000816001600160a01b0316836001600160a01b031610611aff5781611b01565b825b9050600087611b1186600161262b565b81518110611b2157611b21612754565b60200260200101519050600080836001600160a01b0316866001600160a01b031614611b4f57826000611b53565b6000835b91509150600060028a51611b6791906126c3565b8810611b735788611bb4565b611bb47f0000000000000000000000000000000000000000000000000000000000000000878c611ba48c600261262b565b81518110610efe57610efe612754565b9050611c027f000000000000000000000000000000000000000000000000000000000000000088887f00000000000000000000000000000000000000000000000000000000000000006119c1565b6001600160a01b031663022c0d9f84848460006040519080825280601f01601f191660200182016040528015611c3f576020820181803683370190505b506040518563ffffffff1660e01b8152600401611c5f9493929190612582565b600060405180830381600087803b158015611c7957600080fd5b505af1158015611c8d573d6000803e3d6000fd5b50505050505050505050508080611ca390612706565b915050611a82565b6000611d00826040518060400160405280602081526020017f5361666545524332303a206c6f772d6c6576656c2063616c6c206661696c6564815250856001600160a01b03166113c39092919063ffffffff16565b8051909150156113be5780806020019051810190611d1e919061230c565b6113be5760405162461bcd60e51b815260206004820152602a60248201527f5361666545524332303a204552433230206f7065726174696f6e20646964206e6044820152691bdd081cdd58d8d9595960b21b6064820152608401610387565b606082471015611dde5760405162461bcd60e51b815260206004820152602660248201527f416464726573733a20696e73756666696369656e742062616c616e636520666f6044820152651c8818d85b1b60d21b6064820152608401610387565b843b611e2c5760405162461bcd60e51b815260206004820152601d60248201527f416464726573733a2063616c6c20746f206e6f6e2d636f6e74726163740000006044820152606401610387565b600080866001600160a01b03168587604051611e4891906124a8565b60006040518083038185875af1925050503d8060008114611e85576040519150601f19603f3d011682016040523d82523d6000602084013e611e8a565b606091505b5091509150611e9a82828661218d565b979650505050505050565b6000806000611eb48686612095565b509050600080611ec6898989896119c1565b6001600160a01b0316630902f1ac6040518163ffffffff1660e01b815260040160606040518083038186803b158015611efe57600080fd5b505afa158015611f12573d6000803e3d6000fd5b505050506040513d601f19601f82011682018060405250810190611f369190612384565b506001600160701b031691506001600160701b03169150826001600160a01b0316886001600160a01b031614611f6d578082611f70565b81815b909a909950975050505050505050565b6000808411611fe55760405162461bcd60e51b815260206004820152602b60248201527f556e697377617056324c6962726172793a20494e53554646494349454e545f4960448201526a1394155517d05353d5539560aa1b6064820152608401610387565b600083118015611ff55750600082115b6120525760405162461bcd60e51b815260206004820152602860248201527f556e697377617056324c6962726172793a20494e53554646494349454e545f4c604482015267495155494449545960c01b6064820152608401610387565b6000612060856103e5612665565b9050600061206e8483612665565b905060008261207f876103e8612665565b612089919061262b565b9050611e9a8183612643565b600080826001600160a01b0316846001600160a01b031614156121085760405162461bcd60e51b815260206004820152602560248201527f556e697377617056324c6962726172793a204944454e544943414c5f41444452604482015264455353455360d81b6064820152608401610387565b826001600160a01b0316846001600160a01b03161061212857828461212b565b83835b90925090506001600160a01b0382166121865760405162461bcd60e51b815260206004820152601e60248201527f556e697377617056324c6962726172793a205a45524f5f4144445245535300006044820152606401610387565b9250929050565b6060831561219c5750816113d5565b8251156121ac5782518084602001fd5b8160405162461bcd60e51b815260040161038791906124c4565b80356001600160a01b038116811461081a57600080fd5b80516001600160701b038116811461081a57600080fd5b80516001600160801b038116811461081a57600080fd5b60006020828403121561221d57600080fd5b6113d5826121c6565b6000806040838503121561223957600080fd5b612242836121c6565b9150602083013561225281612780565b809150509250929050565b60008060006060848603121561227257600080fd5b61227b846121c6565b92506020808501359250604085013567ffffffffffffffff808211156122a057600080fd5b818701915087601f8301126122b457600080fd5b8135818111156122c6576122c661276a565b6122d8601f8201601f191685016125b9565b915080825288848285010111156122ee57600080fd5b80848401858401376000848284010152508093505050509250925092565b60006020828403121561231e57600080fd5b81516113d581612780565b60006040828403121561233b57600080fd5b6040516040810181811067ffffffffffffffff8211171561235e5761235e61276a565b60405261236a836121f4565b8152612378602084016121f4565b60208201529392505050565b60008060006060848603121561239957600080fd5b6123a2846121dd565b92506123b0602085016121dd565b9150604084015163ffffffff811681146123c957600080fd5b809150509250925092565b6000602082840312156123e657600080fd5b5035919050565b6000602082840312156123ff57600080fd5b5051919050565b6000806040838503121561241957600080fd5b82359150612429602084016121c6565b90509250929050565b6000806000806080858703121561244857600080fd5b84359350602085013561245a81612780565b925060408501359150606085013561247181612780565b939692955090935050565b600081518084526124948160208601602086016126da565b601f01601f19169290920160200192915050565b600082516124ba8184602087016126da565b9190910192915050565b6020815260006113d5602083018461247c565b6020808252818101527f42656e746f426f782053747261746567793a206f6e6c792042656e746f426f78604082015260600190565b6020808252818101527f4f776e61626c653a2063616c6c6572206973206e6f7420746865206f776e6572604082015260600190565b60208082526021908201527f42656e746f426f782053747261746567793a206f6e6c79204578656375746f726040820152607360f81b606082015260800190565b84815283602082015260018060a01b03831660408201526080606082015260006125af608083018461247c565b9695505050505050565b604051601f8201601f1916810167ffffffffffffffff811182821017156125e2576125e261276a565b604052919050565b600080821280156001600160ff1b038490038513161561260c5761260c61273e565b600160ff1b83900384128116156126255761262561273e565b50500190565b6000821982111561263e5761263e61273e565b500190565b60008261266057634e487b7160e01b600052601260045260246000fd5b500490565b600081600019048311821515161561267f5761267f61273e565b500290565b60008083128015600160ff1b8501841216156126a2576126a261273e565b6001600160ff1b03840183138116156126bd576126bd61273e565b50500390565b6000828210156126d5576126d561273e565b500390565b60005b838110156126f55781810151838201526020016126dd565b8381111561182e5750506000910152565b600060001982141561271a5761271a61273e565b5060010190565b6000600160ff1b8214156127375761273761273e565b5060000390565b634e487b7160e01b600052601160045260246000fd5b634e487b7160e01b600052603260045260246000fd5b634e487b7160e01b600052604160045260246000fd5b801515811461082857600080fdfea26469706673582212209d4975ce1d556cdfd0088f638badebd06cd59e8d4e563184b04a886785b492d264736f6c63430008070033",
  "devdoc": {
    "kind": "dev",
    "methods": {
      "afterExit(address,uint256,bytes)": {
        "details": "After exited, the owner can perform ANY call. This is to rescue any funds that didn't get released during exit or got earned afterwards due to vesting or airdrops, etc. "
      },
      "constructor": {
        "params": {
          "_bentoBox": "BentoBox address.",
          "_bridgeToken": "An intermediary token for swapping any rewards into it before swapping it to _inputPairToken",
          "_factory": "SushiSwap factory.",
          "_strategyExecutor": "an EOA that will execute the safeHarvest function.",
          "_strategyToken": "Address of the underlying LP token the strategy invests."
        }
      },
      "exit(uint256)": {
        "details": "do not use isActive modifier here; allow bentobox to call strategy.exit() multiple times",
        "params": {
          "balance": "The amount of tokens the caller thinks it has invested."
        },
        "returns": {
          "amountAdded": "The delta (+profit or -loss) that occured in contrast to `balance`."
        }
      },
      "harvest(uint256,address)": {
        "details": "Only BentoBox can call harvest on this strategy.Ensures that (1) the caller was this contract (called through the safeHarvest function) and (2) that we are not being frontrun by a large BentoBox deposit when harvesting profits. ",
        "params": {
          "balance": "The amount of tokens the caller thinks it has invested.",
          "sender": "The address of the initiator of this transaction. Can be used for reimbursements, etc."
        },
        "returns": {
          "_0": "The delta (+profit or -loss) that occured in contrast to `balance`."
        }
      },
      "owner()": {
        "details": "Returns the address of the current owner."
      },
      "renounceOwnership()": {
        "details": "Leaves the contract without owner. It will not be possible to call `onlyOwner` functions anymore. Can only be called by the current owner. NOTE: Renouncing ownership will leave the contract without an owner, thereby removing any functionality that is only available to the owner."
      },
      "safeHarvest(uint256,bool,uint256,bool)": {
        "details": "maxBalance can be set to 0 to keep the previous value.maxChangeAmount can be set to 0 to allow for full rebalancing.",
        "params": {
          "harvestRewards": "If we want to claim any accrued reward tokens",
          "maxBalance": "The maximum balance of the underlying token that is allowed to be in BentoBox.",
          "maxChangeAmount": "When rebalancing - the maximum amount that will be deposited to or withdrawn from a strategy to BentoBox.",
          "rebalance": "Whether BentoBox should rebalance the strategy assets to acheive it's target allocation."
        }
      },
      "skim(uint256)": {
        "params": {
          "amount": "The amount of tokens to invest."
        }
      },
      "transferOwnership(address)": {
        "details": "Transfers ownership of the contract to a new account (`newOwner`). Can only be called by the current owner."
      },
      "withdraw(uint256)": {
        "details": "The `actualAmount` should be very close to the amount. The difference should NOT be used to report a loss. That's what harvest is for.",
        "params": {
          "amount": "The requested amount the caller wants to withdraw."
        },
        "returns": {
          "actualAmount": "The real amount that is withdrawn."
        }
      }
    },
    "version": 1
  },
  "userdoc": {
    "kind": "user",
    "methods": {
      "exit(uint256)": {
        "notice": "Withdraw all assets in the safest way possible. This shouldn't fail."
      },
      "harvest(uint256,address)": {
        "notice": "Harvest any profits made converted to the asset and pass them to the caller."
      },
      "safeHarvest(uint256,bool,uint256,bool)": {
        "notice": "Harvest profits while preventing a sandwich attack exploit."
      },
      "skim(uint256)": {
        "notice": "Send the assets to the Strategy and call skim to invest them."
      },
      "swapExactTokensForUnderlying(uint256,address)": {
        "notice": "Swap some tokens in the contract for the underlying and deposits them to address(this)"
      },
      "withdraw(uint256)": {
        "notice": "Withdraw assets. The returned amount can differ from the requested amount due to rounding."
      }
    },
    "version": 1
  },
  "storageLayout": {
    "storage": [
      {
        "astId": 7,
        "contract": "contracts/strategies/xJOEStrategy.sol:XJOEStrategy",
        "label": "_owner",
        "offset": 0,
        "slot": "0",
        "type": "t_address"
      },
      {
        "astId": 1322,
        "contract": "contracts/strategies/xJOEStrategy.sol:XJOEStrategy",
        "label": "exited",
        "offset": 20,
        "slot": "0",
        "type": "t_bool"
      },
      {
        "astId": 1325,
        "contract": "contracts/strategies/xJOEStrategy.sol:XJOEStrategy",
        "label": "maxBentoBoxBalance",
        "offset": 0,
        "slot": "1",
        "type": "t_uint256"
      },
      {
        "astId": 1330,
        "contract": "contracts/strategies/xJOEStrategy.sol:XJOEStrategy",
        "label": "strategyExecutors",
        "offset": 0,
        "slot": "2",
        "type": "t_mapping(t_address,t_bool)"
      },
      {
        "astId": 5660,
        "contract": "contracts/strategies/xJOEStrategy.sol:XJOEStrategy",
        "label": "feeCollector",
        "offset": 0,
        "slot": "3",
        "type": "t_address"
      }
    ],
    "types": {
      "t_address": {
        "encoding": "inplace",
        "label": "address",
        "numberOfBytes": "20"
      },
      "t_bool": {
        "encoding": "inplace",
        "label": "bool",
        "numberOfBytes": "1"
      },
      "t_mapping(t_address,t_bool)": {
        "encoding": "mapping",
        "key": "t_address",
        "label": "mapping(address => bool)",
        "numberOfBytes": "32",
        "value": "t_bool"
      },
      "t_uint256": {
        "encoding": "inplace",
        "label": "uint256",
        "numberOfBytes": "32"
      }
    }
  }
}