{
  "address": "0xA2fCdA2dD82B7Ab6B0C6CF116b6546E57499FAD9",
  "abi": [
    {
      "inputs": [],
      "name": "StrategyWouldAccountLoss",
      "type": "error"
    },
    {
      "inputs": [],
      "name": "YieldNotHighEnough",
      "type": "error"
    },
    {
      "inputs": [],
      "name": "UST",
      "outputs": [
        {
          "internalType": "contract ERC20",
          "name": "",
          "type": "address"
        }
      ],
      "stateMutability": "view",
      "type": "function"
    },
    {
      "inputs": [],
      "name": "aUST",
      "outputs": [
        {
          "internalType": "contract ERC20",
          "name": "",
          "type": "address"
        }
      ],
      "stateMutability": "view",
      "type": "function"
    },
    {
      "inputs": [],
      "name": "accountEarnings",
      "outputs": [],
      "stateMutability": "nonpayable",
      "type": "function"
    },
    {
      "inputs": [],
      "name": "redeemEarningsImproved",
      "outputs": [],
      "stateMutability": "nonpayable",
      "type": "function"
    },
    {
      "inputs": [
        {
          "internalType": "uint256",
          "name": "amount",
          "type": "uint256"
        },
        {
          "internalType": "uint256",
          "name": "exchangeRate",
          "type": "uint256"
        }
      ],
      "name": "toAUST",
      "outputs": [
        {
          "internalType": "uint256",
          "name": "",
          "type": "uint256"
        }
      ],
      "stateMutability": "pure",
      "type": "function"
    },
    {
      "inputs": [
        {
          "internalType": "uint256",
          "name": "amount",
          "type": "uint256"
        },
        {
          "internalType": "uint256",
          "name": "exchangeRate",
          "type": "uint256"
        }
      ],
      "name": "toUST",
      "outputs": [
        {
          "internalType": "uint256",
          "name": "",
          "type": "uint256"
        }
      ],
      "stateMutability": "pure",
      "type": "function"
    }
  ],
  "transactionHash": "0x2dc6ac636d17befd9db2884cfb7a7a4fe9fe5a087a369e8e871db8573f852fac",
  "args": [],
  "solcInputHash": "586a3d2e065bf4fece79e8c6d81f6897",
  "bytecode": "0x608060405234801561001057600080fd5b50610a43806100206000396000f3fe608060405234801561001057600080fd5b50600436106100625760003560e01c8063066f80cd14610067578063140f165d1461009f57806341e728a0146100c05780634e882492146100ca5780635a2ac62d146100d2578063e7ec9f30146100e5575b600080fd5b61008273a8de3e3c934e2a1bb08b010104ccabbd4d6293ab81565b6040516001600160a01b0390911681526020015b60405180910390f35b6100b26100ad366004610965565b610100565b604051908152602001610096565b6100c8610126565b005b6100c8610508565b6100b26100e0366004610965565b610869565b61008273a47c8bf37f92abed4a126bda807a7b7498661acd81565b60008161011584670de0b6b3a76400006109c1565b61011f919061099f565b9392505050565b60405163df23b45b60e01b815273a47c8bf37f92abed4a126bda807a7b7498661acd600482015260009073d96f48665a1410c0cd669a88898eca36b9fc2cce9063df23b45b9060240160606040518083038186803b15801561018757600080fd5b505afa15801561019b573d6000803e3d6000fd5b505050506040513d601f19601f820116820180604052508101906101bf91906108c4565b604001516001600160801b03169050600073e0c29b1a278d4b5eae5016a7bc9bfee6c663d1466001600160a01b031663a788a7166040518163ffffffff1660e01b815260040160206040518083038186803b15801561021d57600080fd5b505afa158015610231573d6000803e3d6000fd5b505050506040513d601f19601f82011682018060405250810190610255919061089b565b60405163cdd2193960e01b815273a47c8bf37f92abed4a126bda807a7b7498661acd6004820152600160248201526001600160a01b03919091169063cdd219399060440160206040518083038186803b1580156102b157600080fd5b505afa1580156102c5573d6000803e3d6000fd5b505050506040513d601f19601f820116820180604052508101906102e9919061094c565b6040516370a0823160e01b815273e0c29b1a278d4b5eae5016a7bc9bfee6c663d146600482015290915060009073a47c8bf37f92abed4a126bda807a7b7498661acd906370a082319060240160206040518083038186803b15801561034d57600080fd5b505afa158015610361573d6000803e3d6000fd5b505050506040513d601f19601f82011682018060405250810190610385919061094c565b6040516370a0823160e01b815273e0c29b1a278d4b5eae5016a7bc9bfee6c663d1466004820152909150600090829061042e9073a8de3e3c934e2a1bb08b010104ccabbd4d6293ab906370a08231906024015b60206040518083038186803b1580156103f057600080fd5b505afa158015610404573d6000803e3d6000fd5b505050506040513d601f19601f82011682018060405250810190610428919061094c565b85610869565b6104389190610987565b905083811161045a57604051634562846960e11b815260040160405180910390fd5b68056bc75e2d63100000821161048357604051631f77f53360e11b815260040160405180910390fd5b60405163ba6275ab60e01b8152600019600482018190526000602483018190526044830191909152606482015273e0c29b1a278d4b5eae5016a7bc9bfee6c663d1469063ba6275ab906084015b600060405180830381600087803b1580156104ea57600080fd5b505af11580156104fe573d6000803e3d6000fd5b5050505050505050565b60405163df23b45b60e01b815273a47c8bf37f92abed4a126bda807a7b7498661acd600482015260009073d96f48665a1410c0cd669a88898eca36b9fc2cce9063df23b45b9060240160606040518083038186803b15801561056957600080fd5b505afa15801561057d573d6000803e3d6000fd5b505050506040513d601f19601f820116820180604052508101906105a191906108c4565b604001516001600160801b03169050600073e0c29b1a278d4b5eae5016a7bc9bfee6c663d1466001600160a01b031663a788a7166040518163ffffffff1660e01b815260040160206040518083038186803b1580156105ff57600080fd5b505afa158015610613573d6000803e3d6000fd5b505050506040513d601f19601f82011682018060405250810190610637919061089b565b60405163cdd2193960e01b815273a47c8bf37f92abed4a126bda807a7b7498661acd6004820152600160248201526001600160a01b03919091169063cdd219399060440160206040518083038186803b15801561069357600080fd5b505afa1580156106a7573d6000803e3d6000fd5b505050506040513d601f19601f820116820180604052508101906106cb919061094c565b6040516370a0823160e01b815273e0c29b1a278d4b5eae5016a7bc9bfee6c663d146600482015290915060009073a47c8bf37f92abed4a126bda807a7b7498661acd906370a082319060240160206040518083038186803b15801561072f57600080fd5b505afa158015610743573d6000803e3d6000fd5b505050506040513d601f19601f82011682018060405250810190610767919061094c565b6040516370a0823160e01b815273e0c29b1a278d4b5eae5016a7bc9bfee6c663d146600482015290915060009082906107be9073a8de3e3c934e2a1bb08b010104ccabbd4d6293ab906370a08231906024016103d8565b6107c89190610987565b90508381116107ea57604051634562846960e11b815260040160405180910390fd5b68056bc75e2d631000006107fe85836109e0565b1161081c57604051631f77f53360e11b815260040160405180910390fd5b73e0c29b1a278d4b5eae5016a7bc9bfee6c663d14663b0fd035b8361084187856109e0565b61084b91906109e0565b6040518263ffffffff1660e01b81526004016104d091815260200190565b6000670de0b6b3a764000061011583856109c1565b805167ffffffffffffffff8116811461089657600080fd5b919050565b6000602082840312156108ad57600080fd5b81516001600160a01b038116811461011f57600080fd5b6000606082840312156108d657600080fd5b6040516060810181811067ffffffffffffffff8211171561090757634e487b7160e01b600052604160045260246000fd5b6040526109138361087e565b81526109216020840161087e565b602082015260408301516001600160801b038116811461094057600080fd5b60408201529392505050565b60006020828403121561095e57600080fd5b5051919050565b6000806040838503121561097857600080fd5b50508035926020909101359150565b6000821982111561099a5761099a6109f7565b500190565b6000826109bc57634e487b7160e01b600052601260045260246000fd5b500490565b60008160001904831182151516156109db576109db6109f7565b500290565b6000828210156109f2576109f26109f7565b500390565b634e487b7160e01b600052601160045260246000fdfea2646970667358221220764e556e470bcd71b082d33325a4ef0b06147dc87c0664259a66461e69b13e8664736f6c63430008070033",
  "devdoc": {
    "kind": "dev",
    "methods": {},
    "version": 1
  },
  "userdoc": {
    "kind": "user",
    "methods": {},
    "version": 1
  },
  "storageLayout": {
    "storage": [],
    "types": null
  }
}