{
  "address": "0xe6191aa754f9a881e0a73f2028edf324242f39e2",
  "abi": [
    {
      "inputs": [
        {
          "internalType": "address",
          "name": "strategyExecutor",
          "type": "address"
        }
      ],
      "stateMutability": "nonpayable",
      "type": "constructor"
    },
    {
      "anonymous": false,
      "inputs": [
        {
          "indexed": true,
          "internalType": "address",
          "name": "server",
          "type": "address"
        },
        {
          "indexed": true,
          "internalType": "address",
          "name": "token0",
          "type": "address"
        },
        {
          "indexed": true,
          "internalType": "address",
          "name": "token1",
          "type": "address"
        },
        {
          "indexed": false,
          "internalType": "uint256",
          "name": "amount0",
          "type": "uint256"
        },
        {
          "indexed": false,
          "internalType": "uint256",
          "name": "amount1",
          "type": "uint256"
        }
      ],
      "name": "LogConvert",
      "type": "event"
    },
    {
      "anonymous": false,
      "inputs": [
        {
          "indexed": true,
          "internalType": "address",
          "name": "executor",
          "type": "address"
        },
        {
          "indexed": false,
          "internalType": "bool",
          "name": "allowed",
          "type": "bool"
        }
      ],
      "name": "LogSetStrategyExecutor",
      "type": "event"
    },
    {
      "anonymous": false,
      "inputs": [
        {
          "indexed": true,
          "internalType": "address",
          "name": "previousOwner",
          "type": "address"
        },
        {
          "indexed": true,
          "internalType": "address",
          "name": "newOwner",
          "type": "address"
        }
      ],
      "name": "OwnershipTransferred",
      "type": "event"
    },
    {
      "inputs": [],
      "name": "UST",
      "outputs": [
        {
          "internalType": "contract IERC20",
          "name": "",
          "type": "address"
        }
      ],
      "stateMutability": "view",
      "type": "function"
    },
    {
      "inputs": [],
      "name": "aUST",
      "outputs": [
        {
          "internalType": "contract IERC20",
          "name": "",
          "type": "address"
        }
      ],
      "stateMutability": "view",
      "type": "function"
    },
    {
      "inputs": [
        {
          "internalType": "address",
          "name": "to",
          "type": "address"
        },
        {
          "internalType": "uint256",
          "name": "value",
          "type": "uint256"
        },
        {
          "internalType": "bytes",
          "name": "data",
          "type": "bytes"
        }
      ],
      "name": "afterExit",
      "outputs": [
        {
          "internalType": "bool",
          "name": "success",
          "type": "bool"
        }
      ],
      "stateMutability": "nonpayable",
      "type": "function"
    },
    {
      "inputs": [],
      "name": "bentoBox",
      "outputs": [
        {
          "internalType": "address",
          "name": "",
          "type": "address"
        }
      ],
      "stateMutability": "view",
      "type": "function"
    },
    {
      "inputs": [],
      "name": "bridgeToken",
      "outputs": [
        {
          "internalType": "address",
          "name": "",
          "type": "address"
        }
      ],
      "stateMutability": "view",
      "type": "function"
    },
    {
      "inputs": [
        {
          "internalType": "uint256",
          "name": "balance",
          "type": "uint256"
        }
      ],
      "name": "exit",
      "outputs": [
        {
          "internalType": "int256",
          "name": "amountAdded",
          "type": "int256"
        }
      ],
      "stateMutability": "nonpayable",
      "type": "function"
    },
    {
      "inputs": [],
      "name": "exited",
      "outputs": [
        {
          "internalType": "bool",
          "name": "",
          "type": "bool"
        }
      ],
      "stateMutability": "view",
      "type": "function"
    },
    {
      "inputs": [],
      "name": "factory",
      "outputs": [
        {
          "internalType": "address",
          "name": "",
          "type": "address"
        }
      ],
      "stateMutability": "view",
      "type": "function"
    },
    {
      "inputs": [],
      "name": "feeder",
      "outputs": [
        {
          "internalType": "contract IExchangeRateFeeder",
          "name": "",
          "type": "address"
        }
      ],
      "stateMutability": "view",
      "type": "function"
    },
    {
      "inputs": [
        {
          "internalType": "uint256",
          "name": "balance",
          "type": "uint256"
        },
        {
          "internalType": "address",
          "name": "sender",
          "type": "address"
        }
      ],
      "name": "harvest",
      "outputs": [
        {
          "internalType": "int256",
          "name": "",
          "type": "int256"
        }
      ],
      "stateMutability": "nonpayable",
      "type": "function"
    },
    {
      "inputs": [],
      "name": "maxBentoBoxBalance",
      "outputs": [
        {
          "internalType": "uint256",
          "name": "",
          "type": "uint256"
        }
      ],
      "stateMutability": "view",
      "type": "function"
    },
    {
      "inputs": [],
      "name": "owner",
      "outputs": [
        {
          "internalType": "address",
          "name": "",
          "type": "address"
        }
      ],
      "stateMutability": "view",
      "type": "function"
    },
    {
      "inputs": [],
      "name": "redeemEarnings",
      "outputs": [],
      "stateMutability": "nonpayable",
      "type": "function"
    },
    {
      "inputs": [],
      "name": "renounceOwnership",
      "outputs": [],
      "stateMutability": "nonpayable",
      "type": "function"
    },
    {
      "inputs": [],
      "name": "router",
      "outputs": [
        {
          "internalType": "contract IAnchorRouter",
          "name": "",
          "type": "address"
        }
      ],
      "stateMutability": "view",
      "type": "function"
    },
    {
      "inputs": [
        {
          "internalType": "uint256",
          "name": "amount",
          "type": "uint256"
        }
      ],
      "name": "safeDeposit",
      "outputs": [],
      "stateMutability": "nonpayable",
      "type": "function"
    },
    {
      "inputs": [
        {
          "internalType": "uint256",
          "name": "maxBalance",
          "type": "uint256"
        },
        {
          "internalType": "bool",
          "name": "rebalance",
          "type": "bool"
        },
        {
          "internalType": "uint256",
          "name": "maxChangeAmount",
          "type": "uint256"
        },
        {
          "internalType": "bool",
          "name": "harvestRewards",
          "type": "bool"
        }
      ],
      "name": "safeHarvest",
      "outputs": [],
      "stateMutability": "nonpayable",
      "type": "function"
    },
    {
      "inputs": [
        {
          "internalType": "uint256",
          "name": "amount",
          "type": "uint256"
        }
      ],
      "name": "safeWithdraw",
      "outputs": [],
      "stateMutability": "nonpayable",
      "type": "function"
    },
    {
      "inputs": [
        {
          "internalType": "address",
          "name": "executor",
          "type": "address"
        },
        {
          "internalType": "bool",
          "name": "value",
          "type": "bool"
        }
      ],
      "name": "setStrategyExecutor",
      "outputs": [],
      "stateMutability": "nonpayable",
      "type": "function"
    },
    {
      "inputs": [
        {
          "internalType": "uint256",
          "name": "amount",
          "type": "uint256"
        }
      ],
      "name": "skim",
      "outputs": [],
      "stateMutability": "nonpayable",
      "type": "function"
    },
    {
      "inputs": [
        {
          "internalType": "address",
          "name": "",
          "type": "address"
        }
      ],
      "name": "strategyExecutors",
      "outputs": [
        {
          "internalType": "bool",
          "name": "",
          "type": "bool"
        }
      ],
      "stateMutability": "view",
      "type": "function"
    },
    {
      "inputs": [],
      "name": "strategyToken",
      "outputs": [
        {
          "internalType": "address",
          "name": "",
          "type": "address"
        }
      ],
      "stateMutability": "view",
      "type": "function"
    },
    {
      "inputs": [
        {
          "internalType": "uint256",
          "name": "amount",
          "type": "uint256"
        },
        {
          "internalType": "uint256",
          "name": "exchangeRate",
          "type": "uint256"
        }
      ],
      "name": "toAUST",
      "outputs": [
        {
          "internalType": "uint256",
          "name": "",
          "type": "uint256"
        }
      ],
      "stateMutability": "pure",
      "type": "function"
    },
    {
      "inputs": [
        {
          "internalType": "uint256",
          "name": "amount",
          "type": "uint256"
        },
        {
          "internalType": "uint256",
          "name": "exchangeRate",
          "type": "uint256"
        }
      ],
      "name": "toUST",
      "outputs": [
        {
          "internalType": "uint256",
          "name": "",
          "type": "uint256"
        }
      ],
      "stateMutability": "pure",
      "type": "function"
    },
    {
      "inputs": [
        {
          "internalType": "address",
          "name": "newOwner",
          "type": "address"
        }
      ],
      "name": "transferOwnership",
      "outputs": [],
      "stateMutability": "nonpayable",
      "type": "function"
    },
    {
      "inputs": [
        {
          "internalType": "contract IExchangeRateFeeder",
          "name": "feeder_",
          "type": "address"
        }
      ],
      "name": "updateExchangeRateFeeder",
      "outputs": [],
      "stateMutability": "nonpayable",
      "type": "function"
    },
    {
      "inputs": [
        {
          "internalType": "uint256",
          "name": "amount",
          "type": "uint256"
        }
      ],
      "name": "withdraw",
      "outputs": [
        {
          "internalType": "uint256",
          "name": "actualAmount",
          "type": "uint256"
        }
      ],
      "stateMutability": "nonpayable",
      "type": "function"
    }
  ],
  "transactionHash": "0x3600220cc8daeb45b499724a77460b475d69010a6373a8c05df4c7d2a25d1d69",
  "args": [
    "0xb4EfdA6DAf5ef75D08869A0f9C0213278fb43b6C"
  ],
  "solcInputHash": "a10afe62a81072d7d95061f0ca40e07d",
  "bytecode": "0x610100604052600380546001600160a01b03191673b12b8247bd1749cc271c55bb93f6bd2b485c94a71790553480156200003857600080fd5b5060405162002b9338038062002b938339810160408190526200005b91620002d0565b73a47c8bf37f92abed4a126bda807a7b7498661acd73d96f48665a1410c0cd669a88898eca36b9fc2cce60008084620000943362000280565b6001600160601b0319606086811b821660805285811b821660a05284811b821660c05283901b1660e0526001600160a01b0381161562000129576001600160a01b038116600081815260026020908152604091829020805460ff1916600190811790915591519182527fb08a78f53a7fe017d5ca8c8fcdbf06ffa2c31f2ab668378a17700d9fc558717e910160405180910390a25b505060405163095ea7b360e01b815273cef9e167d3f8806771e9bac1d4a0d568c39a93886004820152600019602482015273a47c8bf37f92abed4a126bda807a7b7498661acd935063095ea7b392506044019050602060405180830381600087803b1580156200019857600080fd5b505af1158015620001ad573d6000803e3d6000fd5b505050506040513d601f19601f82011682018060405250810190620001d3919062000302565b5060405163095ea7b360e01b815273cef9e167d3f8806771e9bac1d4a0d568c39a93886004820152600019602482015273a8de3e3c934e2a1bb08b010104ccabbd4d6293ab9063095ea7b390604401602060405180830381600087803b1580156200023d57600080fd5b505af115801562000252573d6000803e3d6000fd5b505050506040513d601f19601f8201168201806040525081019062000278919062000302565b505062000326565b600080546001600160a01b038381166001600160a01b0319831681178455604051919092169283917f8be0079c531659141344cd1fd0a4f28419497f9722a3daafe3b4186f6b6457e09190a35050565b600060208284031215620002e357600080fd5b81516001600160a01b0381168114620002fb57600080fd5b9392505050565b6000602082840312156200031557600080fd5b81518015158114620002fb57600080fd5b60805160601c60a05160601c60c05160601c60e05160601c6127a2620003f1600039600061044e015260006103dd0152600081816102fd015281816105560152818161066501528181610820015281816108890152818161095e01528181610ae001528181610bee015281816112730152818161140c015261178501526000818161032c0152818161063d01528181610759015281816107fe0152818161086701528181610a1301528181610abe01528181611333015281816113ea015261174e01526127a26000f3fe608060405234801561001057600080fd5b50600436106101b95760003560e01c8063747efea1116100f9578063c45a015511610097578063e8bd73a511610071578063e8bd73a51461042d578063f2fde38b14610436578063f4734b0c14610449578063f887ea401461047057600080fd5b8063c45a0155146103d8578063d9253c2d146103ff578063e7ec9f301461041257600080fd5b80638da5cb5b116100d35780638da5cb5b14610374578063a788a71614610392578063b0fd035b146103b2578063ba6275ab146103c557600080fd5b8063747efea11461032757806374ceb2671461034e5780637f8661a11461036157600080fd5b806354ab593211610166578063647fc56c11610140578063647fc56c146102d25780636939aaf5146102e55780636b2ace87146102f8578063715018a61461031f57600080fd5b806354ab5932146102875780635a2ac62d1461029a5780635ce6c327146102ad57600080fd5b80632e1a7d4d116101975780632e1a7d4d146102375780634ff5401a1461024a5780635066ebdd1461025457600080fd5b8063066f80cd146101be578063140f165d1461020357806318fccc7614610224575b600080fd5b6101d973a8de3e3c934e2a1bb08b010104ccabbd4d6293ab81565b60405173ffffffffffffffffffffffffffffffffffffffff90911681526020015b60405180910390f35b6102166102113660046124b9565b61048b565b6040519081526020016101fa565b61021661023236600461244a565b6104b3565b610216610245366004612418565b6108c0565b610252610b0a565b005b61027761026236600461220f565b60026020526000908152604090205460ff1681565b60405190151581526020016101fa565b61025261029536600461220f565b610f39565b6102166102a83660046124b9565b611001565b6000546102779074010000000000000000000000000000000000000000900460ff1681565b6102526102e0366004612418565b611016565b6102526102f3366004612418565b6110b5565b6101d97f000000000000000000000000000000000000000000000000000000000000000081565b6102526110c1565b6101d97f000000000000000000000000000000000000000000000000000000000000000081565b61025261035c36600461222c565b61114e565b61021661036f366004612418565b611259565b60005473ffffffffffffffffffffffffffffffffffffffff166101d9565b6003546101d99073ffffffffffffffffffffffffffffffffffffffff1681565b6102526103c0366004612418565b611476565b6102526103d336600461246f565b611666565b6101d97f000000000000000000000000000000000000000000000000000000000000000081565b61027761040d366004612265565b6117b4565b6101d973a47c8bf37f92abed4a126bda807a7b7498661acd81565b61021660015481565b61025261044436600461220f565b61192d565b6101d97f000000000000000000000000000000000000000000000000000000000000000081565b6101d973cef9e167d3f8806771e9bac1d4a0d568c39a938881565b6000816104a084670de0b6b3a76400006125ea565b6104aa91906125af565b90505b92915050565b6000805474010000000000000000000000000000000000000000900460ff161561053e576040517f08c379a000000000000000000000000000000000000000000000000000000000815260206004820152601960248201527f42656e746f426f782053747261746567793a206578697465640000000000000060448201526064015b60405180910390fd5b3373ffffffffffffffffffffffffffffffffffffffff7f000000000000000000000000000000000000000000000000000000000000000016146105dd576040517f08c379a000000000000000000000000000000000000000000000000000000000815260206004820181905260248201527f42656e746f426f782053747261746567793a206f6e6c792042656e746f426f786044820152606401610535565b73ffffffffffffffffffffffffffffffffffffffff8216301480156106f457506001546040517f4ffe34db00000000000000000000000000000000000000000000000000000000815273ffffffffffffffffffffffffffffffffffffffff7f0000000000000000000000000000000000000000000000000000000000000000811660048301527f00000000000000000000000000000000000000000000000000000000000000001690634ffe34db90602401604080518083038186803b1580156106a657600080fd5b505afa1580156106ba573d6000803e3d6000fd5b505050506040513d601f19601f820116820180604052508101906106de9190612351565b516fffffffffffffffffffffffffffffffff1611155b80156107005750600083115b156108b757600061071084611a5a565b6040517f70a0823100000000000000000000000000000000000000000000000000000000815230600482015290915060009073ffffffffffffffffffffffffffffffffffffffff7f000000000000000000000000000000000000000000000000000000000000000016906370a082319060240160206040518083038186803b15801561079b57600080fd5b505afa1580156107af573d6000803e3d6000fd5b505050506040513d601f19601f820116820180604052508101906107d39190612431565b9050600082126108455781811061084d5761084573ffffffffffffffffffffffffffffffffffffffff7f0000000000000000000000000000000000000000000000000000000000000000167f000000000000000000000000000000000000000000000000000000000000000084611c51565b5090506104ad565b6108ae73ffffffffffffffffffffffffffffffffffffffff7f0000000000000000000000000000000000000000000000000000000000000000167f000000000000000000000000000000000000000000000000000000000000000083611c51565b91506104ad9050565b50600092915050565b6000805474010000000000000000000000000000000000000000900460ff1615610946576040517f08c379a000000000000000000000000000000000000000000000000000000000815260206004820152601960248201527f42656e746f426f782053747261746567793a20657869746564000000000000006044820152606401610535565b3373ffffffffffffffffffffffffffffffffffffffff7f000000000000000000000000000000000000000000000000000000000000000016146109e5576040517f08c379a000000000000000000000000000000000000000000000000000000000815260206004820181905260248201527f42656e746f426f782053747261746567793a206f6e6c792042656e746f426f786044820152606401610535565b6040517f70a082310000000000000000000000000000000000000000000000000000000081523060048201527f000000000000000000000000000000000000000000000000000000000000000073ffffffffffffffffffffffffffffffffffffffff16906370a082319060240160206040518083038186803b158015610a6a57600080fd5b505afa158015610a7e573d6000803e3d6000fd5b505050506040513d601f19601f82011682018060405250810190610aa29190612431565b9050610b0573ffffffffffffffffffffffffffffffffffffffff7f0000000000000000000000000000000000000000000000000000000000000000167f000000000000000000000000000000000000000000000000000000000000000083611c51565b919050565b3360009081526002602052604090205460ff16610ba9576040517f08c379a000000000000000000000000000000000000000000000000000000000815260206004820152602160248201527f42656e746f426f782053747261746567793a206f6e6c79204578656375746f7260448201527f73000000000000000000000000000000000000000000000000000000000000006064820152608401610535565b6040517fdf23b45b00000000000000000000000000000000000000000000000000000000815273a47c8bf37f92abed4a126bda807a7b7498661acd60048201526000907f000000000000000000000000000000000000000000000000000000000000000073ffffffffffffffffffffffffffffffffffffffff169063df23b45b9060240160606040518083038186803b158015610c4557600080fd5b505afa158015610c59573d6000803e3d6000fd5b505050506040513d601f19601f82011682018060405250810190610c7d91906123ac565b60409081015160035491517fcdd2193900000000000000000000000000000000000000000000000000000000815273a47c8bf37f92abed4a126bda807a7b7498661acd6004820152600160248201526fffffffffffffffffffffffffffffffff909116925060009173ffffffffffffffffffffffffffffffffffffffff169063cdd219399060440160206040518083038186803b158015610d1d57600080fd5b505afa158015610d31573d6000803e3d6000fd5b505050506040513d601f19601f82011682018060405250810190610d559190612431565b90506000610d63838361048b565b6040517f70a08231000000000000000000000000000000000000000000000000000000008152306004820152909150600090610e0f9073a47c8bf37f92abed4a126bda807a7b7498661acd906370a08231906024015b60206040518083038186803b158015610dd157600080fd5b505afa158015610de5573d6000803e3d6000fd5b505050506040513d601f19601f82011682018060405250810190610e099190612431565b8461048b565b6040517f70a0823100000000000000000000000000000000000000000000000000000000815230600482015273a8de3e3c934e2a1bb08b010104ccabbd4d6293ab906370a082319060240160206040518083038186803b158015610e7257600080fd5b505afa158015610e86573d6000803e3d6000fd5b505050506040513d601f19601f82011682018060405250810190610eaa9190612431565b610eb49190612597565b905081811115610f335773cef9e167d3f8806771e9bac1d4a0d568c39a938863d5571f02610ee2848461269b565b6040518263ffffffff1660e01b8152600401610f0091815260200190565b600060405180830381600087803b158015610f1a57600080fd5b505af1158015610f2e573d6000803e3d6000fd5b505050505b50505050565b60005473ffffffffffffffffffffffffffffffffffffffff163314610fba576040517f08c379a000000000000000000000000000000000000000000000000000000000815260206004820181905260248201527f4f776e61626c653a2063616c6c6572206973206e6f7420746865206f776e65726044820152606401610535565b600380547fffffffffffffffffffffffff00000000000000000000000000000000000000001673ffffffffffffffffffffffffffffffffffffffff92909216919091179055565b6000670de0b6b3a76400006104a083856125ea565b3360009081526002602052604090205460ff166110b5576040517f08c379a000000000000000000000000000000000000000000000000000000000815260206004820152602160248201527f42656e746f426f782053747261746567793a206f6e6c79204578656375746f7260448201527f73000000000000000000000000000000000000000000000000000000000000006064820152608401610535565b6110be81611ce3565b50565b60005473ffffffffffffffffffffffffffffffffffffffff163314611142576040517f08c379a000000000000000000000000000000000000000000000000000000000815260206004820181905260248201527f4f776e61626c653a2063616c6c6572206973206e6f7420746865206f776e65726044820152606401610535565b61114c6000611d64565b565b60005473ffffffffffffffffffffffffffffffffffffffff1633146111cf576040517f08c379a000000000000000000000000000000000000000000000000000000000815260206004820181905260248201527f4f776e61626c653a2063616c6c6572206973206e6f7420746865206f776e65726044820152606401610535565b73ffffffffffffffffffffffffffffffffffffffff821660008181526002602090815260409182902080547fffffffffffffffffffffffffffffffffffffffffffffffffffffffffffffff001685151590811790915591519182527fb08a78f53a7fe017d5ca8c8fcdbf06ffa2c31f2ab668378a17700d9fc558717e910160405180910390a25050565b60003373ffffffffffffffffffffffffffffffffffffffff7f000000000000000000000000000000000000000000000000000000000000000016146112fa576040517f08c379a000000000000000000000000000000000000000000000000000000000815260206004820181905260248201527f42656e746f426f782053747261746567793a206f6e6c792042656e746f426f786044820152606401610535565b611302611dd9565b6040517f70a082310000000000000000000000000000000000000000000000000000000081523060048201526000907f000000000000000000000000000000000000000000000000000000000000000073ffffffffffffffffffffffffffffffffffffffff16906370a082319060240160206040518083038186803b15801561138a57600080fd5b505afa15801561139e573d6000803e3d6000fd5b505050506040513d601f19601f820116820180604052508101906113c29190612431565b90506113ce8382612627565b915061143173ffffffffffffffffffffffffffffffffffffffff7f0000000000000000000000000000000000000000000000000000000000000000167f000000000000000000000000000000000000000000000000000000000000000083611c51565b50600080547fffffffffffffffffffffff00ffffffffffffffffffffffffffffffffffffffff1674010000000000000000000000000000000000000000179055919050565b3360009081526002602052604090205460ff16611515576040517f08c379a000000000000000000000000000000000000000000000000000000000815260206004820152602160248201527f42656e746f426f782053747261746567793a206f6e6c79204578656375746f7260448201527f73000000000000000000000000000000000000000000000000000000000000006064820152608401610535565b6003546040517fcdd2193900000000000000000000000000000000000000000000000000000000815273a47c8bf37f92abed4a126bda807a7b7498661acd60048201526001602482015260009173ffffffffffffffffffffffffffffffffffffffff169063cdd219399060440160206040518083038186803b15801561159a57600080fd5b505afa1580156115ae573d6000803e3d6000fd5b505050506040513d601f19601f820116820180604052508101906115d29190612431565b905060006115e0838361048b565b6040517fd5571f020000000000000000000000000000000000000000000000000000000081526004810182905290915073cef9e167d3f8806771e9bac1d4a0d568c39a93889063d5571f0290602401600060405180830381600087803b15801561164957600080fd5b505af115801561165d573d6000803e3d6000fd5b50505050505050565b3360009081526002602052604090205460ff16611705576040517f08c379a000000000000000000000000000000000000000000000000000000000815260206004820152602160248201527f42656e746f426f782053747261746567793a206f6e6c79204578656375746f7260448201527f73000000000000000000000000000000000000000000000000000000000000006064820152608401610535565b83156117115760018490555b6040517f66c6bb0b00000000000000000000000000000000000000000000000000000000815273ffffffffffffffffffffffffffffffffffffffff7f0000000000000000000000000000000000000000000000000000000000000000811660048301528415156024830152604482018490527f000000000000000000000000000000000000000000000000000000000000000016906366c6bb0b90606401610f00565b6000805473ffffffffffffffffffffffffffffffffffffffff163314611836576040517f08c379a000000000000000000000000000000000000000000000000000000000815260206004820181905260248201527f4f776e61626c653a2063616c6c6572206973206e6f7420746865206f776e65726044820152606401610535565b60005474010000000000000000000000000000000000000000900460ff166118ba576040517f08c379a000000000000000000000000000000000000000000000000000000000815260206004820152601d60248201527f42656e746f426f782053747261746567793a206e6f74206578697465640000006044820152606401610535565b8373ffffffffffffffffffffffffffffffffffffffff1683836040516118e091906124db565b60006040518083038185875af1925050503d806000811461191d576040519150601f19603f3d011682016040523d82523d6000602084013e611922565b606091505b509095945050505050565b60005473ffffffffffffffffffffffffffffffffffffffff1633146119ae576040517f08c379a000000000000000000000000000000000000000000000000000000000815260206004820181905260248201527f4f776e61626c653a2063616c6c6572206973206e6f7420746865206f776e65726044820152606401610535565b73ffffffffffffffffffffffffffffffffffffffff8116611a51576040517f08c379a000000000000000000000000000000000000000000000000000000000815260206004820152602660248201527f4f776e61626c653a206e6577206f776e657220697320746865207a65726f206160448201527f64647265737300000000000000000000000000000000000000000000000000006064820152608401610535565b6110be81611d64565b6003546040517fcdd2193900000000000000000000000000000000000000000000000000000000815273a47c8bf37f92abed4a126bda807a7b7498661acd600482015260016024820152600091829173ffffffffffffffffffffffffffffffffffffffff9091169063cdd219399060440160206040518083038186803b158015611ae357600080fd5b505afa158015611af7573d6000803e3d6000fd5b505050506040513d601f19601f82011682018060405250810190611b1b9190612431565b90506000611b29848361048b565b6040517f70a08231000000000000000000000000000000000000000000000000000000008152306004820152909150600090611b839073a47c8bf37f92abed4a126bda807a7b7498661acd906370a0823190602401610db9565b6040517f70a0823100000000000000000000000000000000000000000000000000000000815230600482015273a8de3e3c934e2a1bb08b010104ccabbd4d6293ab906370a082319060240160206040518083038186803b158015611be657600080fd5b505afa158015611bfa573d6000803e3d6000fd5b505050506040513d601f19601f82011682018060405250810190611c1e9190612431565b611c289190612597565b9050611c348284611001565b611c3e8285611001565b611c489190612627565b95945050505050565b6040805173ffffffffffffffffffffffffffffffffffffffff8416602482015260448082018490528251808303909101815260649091019091526020810180517bffffffffffffffffffffffffffffffffffffffffffffffffffffffff167fa9059cbb00000000000000000000000000000000000000000000000000000000179052611cde908490611edf565b505050565b6040517f0fcfb0590000000000000000000000000000000000000000000000000000000081526004810182905273cef9e167d3f8806771e9bac1d4a0d568c39a938890630fcfb05990602401600060405180830381600087803b158015611d4957600080fd5b505af1158015611d5d573d6000803e3d6000fd5b5050505050565b6000805473ffffffffffffffffffffffffffffffffffffffff8381167fffffffffffffffffffffffff0000000000000000000000000000000000000000831681178455604051919092169283917f8be0079c531659141344cd1fd0a4f28419497f9722a3daafe3b4186f6b6457e09190a35050565b6040517f70a0823100000000000000000000000000000000000000000000000000000000815230600482015273cef9e167d3f8806771e9bac1d4a0d568c39a93889063d5571f029073a8de3e3c934e2a1bb08b010104ccabbd4d6293ab906370a082319060240160206040518083038186803b158015611e5857600080fd5b505afa158015611e6c573d6000803e3d6000fd5b505050506040513d601f19601f82011682018060405250810190611e909190612431565b6040518263ffffffff1660e01b8152600401611eae91815260200190565b600060405180830381600087803b158015611ec857600080fd5b505af1925050508015611ed9575060015b61114c57565b6000611f41826040518060400160405280602081526020017f5361666545524332303a206c6f772d6c6576656c2063616c6c206661696c65648152508573ffffffffffffffffffffffffffffffffffffffff16611feb9092919063ffffffff16565b805190915015611cde5780806020019051810190611f5f9190612334565b611cde576040517f08c379a000000000000000000000000000000000000000000000000000000000815260206004820152602a60248201527f5361666545524332303a204552433230206f7065726174696f6e20646964206e60448201527f6f742073756363656564000000000000000000000000000000000000000000006064820152608401610535565b6060611ffa8484600085612004565b90505b9392505050565b606082471015612096576040517f08c379a000000000000000000000000000000000000000000000000000000000815260206004820152602660248201527f416464726573733a20696e73756666696369656e742062616c616e636520666f60448201527f722063616c6c00000000000000000000000000000000000000000000000000006064820152608401610535565b843b6120fe576040517f08c379a000000000000000000000000000000000000000000000000000000000815260206004820152601d60248201527f416464726573733a2063616c6c20746f206e6f6e2d636f6e74726163740000006044820152606401610535565b6000808673ffffffffffffffffffffffffffffffffffffffff16858760405161212791906124db565b60006040518083038185875af1925050503d8060008114612164576040519150601f19603f3d011682016040523d82523d6000602084013e612169565b606091505b5091509150612179828286612184565b979650505050505050565b60608315612193575081611ffd565b8251156121a35782518084602001fd5b816040517f08c379a000000000000000000000000000000000000000000000000000000000815260040161053591906124f7565b80516fffffffffffffffffffffffffffffffff81168114610b0557600080fd5b805167ffffffffffffffff81168114610b0557600080fd5b60006020828403121561222157600080fd5b8135611ffd8161273c565b6000806040838503121561223f57600080fd5b823561224a8161273c565b9150602083013561225a8161275e565b809150509250929050565b60008060006060848603121561227a57600080fd5b83356122858161273c565b92506020848101359250604085013567ffffffffffffffff808211156122aa57600080fd5b818701915087601f8301126122be57600080fd5b8135818111156122d0576122d061270d565b612300847fffffffffffffffffffffffffffffffffffffffffffffffffffffffffffffffe0601f84011601612548565b9150808252888482850101111561231657600080fd5b80848401858401376000848284010152508093505050509250925092565b60006020828403121561234657600080fd5b8151611ffd8161275e565b60006040828403121561236357600080fd5b6040516040810181811067ffffffffffffffff821117156123865761238661270d565b604052612392836121d7565b81526123a0602084016121d7565b60208201529392505050565b6000606082840312156123be57600080fd5b6040516060810181811067ffffffffffffffff821117156123e1576123e161270d565b6040526123ed836121f7565b81526123fb602084016121f7565b602082015261240c604084016121d7565b60408201529392505050565b60006020828403121561242a57600080fd5b5035919050565b60006020828403121561244357600080fd5b5051919050565b6000806040838503121561245d57600080fd5b82359150602083013561225a8161273c565b6000806000806080858703121561248557600080fd5b8435935060208501356124978161275e565b92506040850135915060608501356124ae8161275e565b939692955090935050565b600080604083850312156124cc57600080fd5b50508035926020909101359150565b600082516124ed8184602087016126b2565b9190910192915050565b60208152600082518060208401526125168160408501602087016126b2565b601f017fffffffffffffffffffffffffffffffffffffffffffffffffffffffffffffffe0169190910160400192915050565b604051601f82017fffffffffffffffffffffffffffffffffffffffffffffffffffffffffffffffe016810167ffffffffffffffff8111828210171561258f5761258f61270d565b604052919050565b600082198211156125aa576125aa6126de565b500190565b6000826125e5577f4e487b7100000000000000000000000000000000000000000000000000000000600052601260045260246000fd5b500490565b6000817fffffffffffffffffffffffffffffffffffffffffffffffffffffffffffffffff0483118215151615612622576126226126de565b500290565b6000808312837f800000000000000000000000000000000000000000000000000000000000000001831281151615612661576126616126de565b837f7fffffffffffffffffffffffffffffffffffffffffffffffffffffffffffffff018313811615612695576126956126de565b50500390565b6000828210156126ad576126ad6126de565b500390565b60005b838110156126cd5781810151838201526020016126b5565b83811115610f335750506000910152565b7f4e487b7100000000000000000000000000000000000000000000000000000000600052601160045260246000fd5b7f4e487b7100000000000000000000000000000000000000000000000000000000600052604160045260246000fd5b73ffffffffffffffffffffffffffffffffffffffff811681146110be57600080fd5b80151581146110be57600080fdfea2646970667358221220868f141eab8e9e8dec8d1b5f70143cda1f57474299d8f51fbacdb83fc1ade5d264736f6c63430008070033",
  "devdoc": {
    "kind": "dev",
    "methods": {
      "afterExit(address,uint256,bytes)": {
        "details": "After exited, the owner can perform ANY call. This is to rescue any funds that didn't get released during exit or got earned afterwards due to vesting or airdrops, etc. "
      },
      "exit(uint256)": {
        "details": "do not use isActive modifier here; allow bentobox to call strategy.exit() multiple times",
        "params": {
          "balance": "The amount of tokens the caller thinks it has invested."
        },
        "returns": {
          "amountAdded": "The delta (+profit or -loss) that occured in contrast to `balance`."
        }
      },
      "harvest(uint256,address)": {
        "details": "Only BentoBox can call harvest on this strategy.Ensures that (1) the caller was this contract (called through the safeHarvest function) and (2) that we are not being frontrun by a large BentoBox deposit when harvesting profits. ",
        "params": {
          "balance": "The amount of tokens the caller thinks it has invested.",
          "sender": "The address of the initiator of this transaction. Can be used for reimbursements, etc."
        },
        "returns": {
          "_0": "The delta (+profit or -loss) that occured in contrast to `balance`."
        }
      },
      "owner()": {
        "details": "Returns the address of the current owner."
      },
      "renounceOwnership()": {
        "details": "Leaves the contract without owner. It will not be possible to call `onlyOwner` functions anymore. Can only be called by the current owner. NOTE: Renouncing ownership will leave the contract without an owner, thereby removing any functionality that is only available to the owner."
      },
      "safeHarvest(uint256,bool,uint256,bool)": {
        "details": "maxBalance can be set to 0 to keep the previous value.maxChangeAmount can be set to 0 to allow for full rebalancing.",
        "params": {
          "harvestRewards": "If we want to claim any accrued reward tokens",
          "maxBalance": "The maximum balance of the underlying token that is allowed to be in BentoBox.",
          "maxChangeAmount": "When rebalancing - the maximum amount that will be deposited to or withdrawn from a strategy to BentoBox.",
          "rebalance": "Whether BentoBox should rebalance the strategy assets to acheive it's target allocation."
        }
      },
      "skim(uint256)": {
        "params": {
          "amount": "The amount of tokens to invest."
        }
      },
      "transferOwnership(address)": {
        "details": "Transfers ownership of the contract to a new account (`newOwner`). Can only be called by the current owner."
      },
      "withdraw(uint256)": {
        "details": "The `actualAmount` should be very close to the amount. The difference should NOT be used to report a loss. That's what harvest is for.",
        "params": {
          "amount": "The requested amount the caller wants to withdraw."
        },
        "returns": {
          "actualAmount": "The real amount that is withdrawn."
        }
      }
    },
    "version": 1
  },
  "userdoc": {
    "kind": "user",
    "methods": {
      "exit(uint256)": {
        "notice": "Withdraw all assets in the safest way possible. This shouldn't fail."
      },
      "harvest(uint256,address)": {
        "notice": "Harvest any profits made converted to the asset and pass them to the caller."
      },
      "safeHarvest(uint256,bool,uint256,bool)": {
        "notice": "Harvest profits while preventing a sandwich attack exploit."
      },
      "skim(uint256)": {
        "notice": "Send the assets to the Strategy and call skim to invest them."
      },
      "withdraw(uint256)": {
        "notice": "Withdraw assets. The returned amount can differ from the requested amount due to rounding."
      }
    },
    "version": 1
  },
  "storageLayout": {
    "storage": [
      {
        "astId": 7,
        "contract": "contracts/strategies/USTStrategy.sol:USTStrategy",
        "label": "_owner",
        "offset": 0,
        "slot": "0",
        "type": "t_address"
      },
      {
        "astId": 3895,
        "contract": "contracts/strategies/USTStrategy.sol:USTStrategy",
        "label": "exited",
        "offset": 20,
        "slot": "0",
        "type": "t_bool"
      },
      {
        "astId": 3898,
        "contract": "contracts/strategies/USTStrategy.sol:USTStrategy",
        "label": "maxBentoBoxBalance",
        "offset": 0,
        "slot": "1",
        "type": "t_uint256"
      },
      {
        "astId": 3903,
        "contract": "contracts/strategies/USTStrategy.sol:USTStrategy",
        "label": "strategyExecutors",
        "offset": 0,
        "slot": "2",
        "type": "t_mapping(t_address,t_bool)"
      },
      {
        "astId": 4246,
        "contract": "contracts/strategies/USTStrategy.sol:USTStrategy",
        "label": "feeder",
        "offset": 0,
        "slot": "3",
        "type": "t_contract(IExchangeRateFeeder)3877"
      }
    ],
    "types": {
      "t_address": {
        "encoding": "inplace",
        "label": "address",
        "numberOfBytes": "20"
      },
      "t_bool": {
        "encoding": "inplace",
        "label": "bool",
        "numberOfBytes": "1"
      },
      "t_contract(IExchangeRateFeeder)3877": {
        "encoding": "inplace",
        "label": "contract IExchangeRateFeeder",
        "numberOfBytes": "20"
      },
      "t_mapping(t_address,t_bool)": {
        "encoding": "mapping",
        "key": "t_address",
        "label": "mapping(address => bool)",
        "numberOfBytes": "32",
        "value": "t_bool"
      },
      "t_uint256": {
        "encoding": "inplace",
        "label": "uint256",
        "numberOfBytes": "32"
      }
    }
  }
}