{
  "address": "0xE0C29b1A278D4B5EAE5016A7bC9bfee6c663D146",
  "abi": [
    {
      "inputs": [
        {
          "internalType": "address",
          "name": "strategyExecutor",
          "type": "address"
        },
        {
          "internalType": "address",
          "name": "_feeCollector",
          "type": "address"
        }
      ],
      "stateMutability": "nonpayable",
      "type": "constructor"
    },
    {
      "anonymous": false,
      "inputs": [
        {
          "indexed": true,
          "internalType": "address",
          "name": "server",
          "type": "address"
        },
        {
          "indexed": true,
          "internalType": "address",
          "name": "token0",
          "type": "address"
        },
        {
          "indexed": true,
          "internalType": "address",
          "name": "token1",
          "type": "address"
        },
        {
          "indexed": false,
          "internalType": "uint256",
          "name": "amount0",
          "type": "uint256"
        },
        {
          "indexed": false,
          "internalType": "uint256",
          "name": "amount1",
          "type": "uint256"
        }
      ],
      "name": "LogConvert",
      "type": "event"
    },
    {
      "anonymous": false,
      "inputs": [
        {
          "indexed": true,
          "internalType": "address",
          "name": "executor",
          "type": "address"
        },
        {
          "indexed": false,
          "internalType": "bool",
          "name": "allowed",
          "type": "bool"
        }
      ],
      "name": "LogSetStrategyExecutor",
      "type": "event"
    },
    {
      "anonymous": false,
      "inputs": [
        {
          "indexed": true,
          "internalType": "address",
          "name": "previousOwner",
          "type": "address"
        },
        {
          "indexed": true,
          "internalType": "address",
          "name": "newOwner",
          "type": "address"
        }
      ],
      "name": "OwnershipTransferred",
      "type": "event"
    },
    {
      "inputs": [],
      "name": "UST",
      "outputs": [
        {
          "internalType": "contract IERC20",
          "name": "",
          "type": "address"
        }
      ],
      "stateMutability": "view",
      "type": "function"
    },
    {
      "inputs": [],
      "name": "aUST",
      "outputs": [
        {
          "internalType": "contract IERC20",
          "name": "",
          "type": "address"
        }
      ],
      "stateMutability": "view",
      "type": "function"
    },
    {
      "inputs": [
        {
          "internalType": "address",
          "name": "to",
          "type": "address"
        },
        {
          "internalType": "uint256",
          "name": "value",
          "type": "uint256"
        },
        {
          "internalType": "bytes",
          "name": "data",
          "type": "bytes"
        }
      ],
      "name": "afterExit",
      "outputs": [
        {
          "internalType": "bool",
          "name": "success",
          "type": "bool"
        }
      ],
      "stateMutability": "nonpayable",
      "type": "function"
    },
    {
      "inputs": [],
      "name": "bentoBox",
      "outputs": [
        {
          "internalType": "address",
          "name": "",
          "type": "address"
        }
      ],
      "stateMutability": "view",
      "type": "function"
    },
    {
      "inputs": [],
      "name": "bridgeToken",
      "outputs": [
        {
          "internalType": "address",
          "name": "",
          "type": "address"
        }
      ],
      "stateMutability": "view",
      "type": "function"
    },
    {
      "inputs": [
        {
          "internalType": "uint256",
          "name": "balance",
          "type": "uint256"
        }
      ],
      "name": "exit",
      "outputs": [
        {
          "internalType": "int256",
          "name": "amountAdded",
          "type": "int256"
        }
      ],
      "stateMutability": "nonpayable",
      "type": "function"
    },
    {
      "inputs": [],
      "name": "exited",
      "outputs": [
        {
          "internalType": "bool",
          "name": "",
          "type": "bool"
        }
      ],
      "stateMutability": "view",
      "type": "function"
    },
    {
      "inputs": [],
      "name": "factory",
      "outputs": [
        {
          "internalType": "address",
          "name": "",
          "type": "address"
        }
      ],
      "stateMutability": "view",
      "type": "function"
    },
    {
      "inputs": [],
      "name": "fee",
      "outputs": [
        {
          "internalType": "uint256",
          "name": "",
          "type": "uint256"
        }
      ],
      "stateMutability": "view",
      "type": "function"
    },
    {
      "inputs": [],
      "name": "feeCollector",
      "outputs": [
        {
          "internalType": "address",
          "name": "",
          "type": "address"
        }
      ],
      "stateMutability": "view",
      "type": "function"
    },
    {
      "inputs": [],
      "name": "feeder",
      "outputs": [
        {
          "internalType": "contract IExchangeRateFeeder",
          "name": "",
          "type": "address"
        }
      ],
      "stateMutability": "view",
      "type": "function"
    },
    {
      "inputs": [
        {
          "internalType": "uint256",
          "name": "balance",
          "type": "uint256"
        },
        {
          "internalType": "address",
          "name": "sender",
          "type": "address"
        }
      ],
      "name": "harvest",
      "outputs": [
        {
          "internalType": "int256",
          "name": "",
          "type": "int256"
        }
      ],
      "stateMutability": "nonpayable",
      "type": "function"
    },
    {
      "inputs": [],
      "name": "maxBentoBoxBalance",
      "outputs": [
        {
          "internalType": "uint256",
          "name": "",
          "type": "uint256"
        }
      ],
      "stateMutability": "view",
      "type": "function"
    },
    {
      "inputs": [],
      "name": "owner",
      "outputs": [
        {
          "internalType": "address",
          "name": "",
          "type": "address"
        }
      ],
      "stateMutability": "view",
      "type": "function"
    },
    {
      "inputs": [],
      "name": "redeemEarnings",
      "outputs": [],
      "stateMutability": "nonpayable",
      "type": "function"
    },
    {
      "inputs": [],
      "name": "renounceOwnership",
      "outputs": [],
      "stateMutability": "nonpayable",
      "type": "function"
    },
    {
      "inputs": [],
      "name": "router",
      "outputs": [
        {
          "internalType": "contract IAnchorRouter",
          "name": "",
          "type": "address"
        }
      ],
      "stateMutability": "view",
      "type": "function"
    },
    {
      "inputs": [
        {
          "internalType": "uint256",
          "name": "amount",
          "type": "uint256"
        }
      ],
      "name": "safeDeposit",
      "outputs": [],
      "stateMutability": "nonpayable",
      "type": "function"
    },
    {
      "inputs": [
        {
          "internalType": "uint256",
          "name": "maxBalance",
          "type": "uint256"
        },
        {
          "internalType": "bool",
          "name": "rebalance",
          "type": "bool"
        },
        {
          "internalType": "uint256",
          "name": "maxChangeAmount",
          "type": "uint256"
        },
        {
          "internalType": "bool",
          "name": "harvestRewards",
          "type": "bool"
        }
      ],
      "name": "safeHarvest",
      "outputs": [],
      "stateMutability": "nonpayable",
      "type": "function"
    },
    {
      "inputs": [
        {
          "internalType": "uint256",
          "name": "amount",
          "type": "uint256"
        }
      ],
      "name": "safeWithdraw",
      "outputs": [],
      "stateMutability": "nonpayable",
      "type": "function"
    },
    {
      "inputs": [
        {
          "internalType": "uint256",
          "name": "amount",
          "type": "uint256"
        }
      ],
      "name": "safeWithdrawFromAUST",
      "outputs": [],
      "stateMutability": "nonpayable",
      "type": "function"
    },
    {
      "inputs": [
        {
          "internalType": "address",
          "name": "_feeCollector",
          "type": "address"
        },
        {
          "internalType": "uint256",
          "name": "_fee",
          "type": "uint256"
        }
      ],
      "name": "setFeeCollector",
      "outputs": [],
      "stateMutability": "nonpayable",
      "type": "function"
    },
    {
      "inputs": [
        {
          "internalType": "address",
          "name": "executor",
          "type": "address"
        },
        {
          "internalType": "bool",
          "name": "value",
          "type": "bool"
        }
      ],
      "name": "setStrategyExecutor",
      "outputs": [],
      "stateMutability": "nonpayable",
      "type": "function"
    },
    {
      "inputs": [
        {
          "internalType": "uint256",
          "name": "amount",
          "type": "uint256"
        }
      ],
      "name": "skim",
      "outputs": [],
      "stateMutability": "nonpayable",
      "type": "function"
    },
    {
      "inputs": [
        {
          "internalType": "address",
          "name": "",
          "type": "address"
        }
      ],
      "name": "strategyExecutors",
      "outputs": [
        {
          "internalType": "bool",
          "name": "",
          "type": "bool"
        }
      ],
      "stateMutability": "view",
      "type": "function"
    },
    {
      "inputs": [],
      "name": "strategyToken",
      "outputs": [
        {
          "internalType": "address",
          "name": "",
          "type": "address"
        }
      ],
      "stateMutability": "view",
      "type": "function"
    },
    {
      "inputs": [
        {
          "internalType": "uint256",
          "name": "amount",
          "type": "uint256"
        },
        {
          "internalType": "uint256",
          "name": "exchangeRate",
          "type": "uint256"
        }
      ],
      "name": "toAUST",
      "outputs": [
        {
          "internalType": "uint256",
          "name": "",
          "type": "uint256"
        }
      ],
      "stateMutability": "pure",
      "type": "function"
    },
    {
      "inputs": [
        {
          "internalType": "uint256",
          "name": "amount",
          "type": "uint256"
        },
        {
          "internalType": "uint256",
          "name": "exchangeRate",
          "type": "uint256"
        }
      ],
      "name": "toUST",
      "outputs": [
        {
          "internalType": "uint256",
          "name": "",
          "type": "uint256"
        }
      ],
      "stateMutability": "pure",
      "type": "function"
    },
    {
      "inputs": [
        {
          "internalType": "address",
          "name": "newOwner",
          "type": "address"
        }
      ],
      "name": "transferOwnership",
      "outputs": [],
      "stateMutability": "nonpayable",
      "type": "function"
    },
    {
      "inputs": [
        {
          "internalType": "contract IExchangeRateFeeder",
          "name": "feeder_",
          "type": "address"
        }
      ],
      "name": "updateExchangeRateFeeder",
      "outputs": [],
      "stateMutability": "nonpayable",
      "type": "function"
    },
    {
      "inputs": [
        {
          "internalType": "uint256",
          "name": "amount",
          "type": "uint256"
        }
      ],
      "name": "withdraw",
      "outputs": [
        {
          "internalType": "uint256",
          "name": "actualAmount",
          "type": "uint256"
        }
      ],
      "stateMutability": "nonpayable",
      "type": "function"
    }
  ],
  "transactionHash": "0x127e2889974087a05688f453073708cf966ab33876e3a9c06475102df19365a1",
  "args": [
    "0xfddfE525054efaAD204600d00CA86ADb1Cc2ea8a",
    "0xfddfE525054efaAD204600d00CA86ADb1Cc2ea8a"
  ],
  "solcInputHash": "025e3b3dd963e5d2e9780210ef67b537",
  "bytecode": "0x610100604052600380546001600160a01b0319167324a76073ab9131b25693f3b75dd1ce996fd3116c1790553480156200003857600080fd5b50604051620024f6380380620024f68339810160408190526200005b9162000312565b73a47c8bf37f92abed4a126bda807a7b7498661acd73d96f48665a1410c0cd669a88898eca36b9fc2cce600080856200009433620002a5565b6001600160601b0319606086811b821660805285811b821660a05284811b821660c05283901b1660e0526001600160a01b0381161562000129576001600160a01b038116600081815260026020908152604091829020805460ff1916600190811790915591519182527fb08a78f53a7fe017d5ca8c8fcdbf06ffa2c31f2ab668378a17700d9fc558717e910160405180910390a25b505060405163095ea7b360e01b815273cef9e167d3f8806771e9bac1d4a0d568c39a93886004820152600019602482015273a47c8bf37f92abed4a126bda807a7b7498661acd935063095ea7b392506044019050602060405180830381600087803b1580156200019857600080fd5b505af1158015620001ad573d6000803e3d6000fd5b505050506040513d601f19601f82011682018060405250810190620001d391906200034a565b5060405163095ea7b360e01b815273cef9e167d3f8806771e9bac1d4a0d568c39a93886004820152600019602482015273a8de3e3c934e2a1bb08b010104ccabbd4d6293ab9063095ea7b390604401602060405180830381600087803b1580156200023d57600080fd5b505af115801562000252573d6000803e3d6000fd5b505050506040513d601f19601f820116820180604052508101906200027891906200034a565b50600580546001600160a01b0319166001600160a01b039290921691909117905550600a60045562000375565b600080546001600160a01b038381166001600160a01b0319831681178455604051919092169283917f8be0079c531659141344cd1fd0a4f28419497f9722a3daafe3b4186f6b6457e09190a35050565b80516001600160a01b03811681146200030d57600080fd5b919050565b600080604083850312156200032657600080fd5b6200033183620002f5565b91506200034160208401620002f5565b90509250929050565b6000602082840312156200035d57600080fd5b815180151581146200036e57600080fd5b9392505050565b60805160601c60a05160601c60c05160601c60e05160601c6120a86200044e6000396000610471015260006103e401526000818161030b01528181610550015281816105e20152818161078d015281816108530152818161093101528181610a3601528181610abb01528181610f0d01528181611029015261123101526000818161033a015281816105ba015281816106a70152818161076b015281816107c301528181610831015281816108890152818161098301528181610a1401528181610f6a0152818161100701526111fa01526120a86000f3fe608060405234801561001057600080fd5b50600436106101e55760003560e01c80637f8661a11161010f578063d9253c2d116100a2578063f2fde38b11610071578063f2fde38b14610459578063f4734b0c1461046c578063f887ea4014610493578063fac3f550146104ae57600080fd5b8063d9253c2d14610419578063ddca3f431461042c578063e7ec9f3014610435578063e8bd73a51461045057600080fd5b8063ba6275ab116100de578063ba6275ab146103b9578063c415b95c146103cc578063c45a0155146103df578063cd6c5e1b1461040657600080fd5b80637f8661a11461036f5780638da5cb5b14610382578063a788a71614610393578063b0fd035b146103a657600080fd5b80635a2ac62d116101875780636b2ace87116101565780636b2ace8714610306578063715018a61461032d578063747efea11461033557806374ceb2671461035c57600080fd5b80635a2ac62d146102b95780635ce6c327146102cc578063647fc56c146102e05780636939aaf5146102f357600080fd5b80632e1a7d4d116101c35780632e1a7d4d146102565780634ff5401a146102695780635066ebdd1461027357806354ab5932146102a657600080fd5b8063066f80cd146101ea578063140f165d1461022257806318fccc7614610243575b600080fd5b61020573a8de3e3c934e2a1bb08b010104ccabbd4d6293ab81565b6040516001600160a01b0390911681526020015b60405180910390f35b610235610230366004611dfb565b6104c1565b604051908152602001610219565b610235610251366004611d8c565b6104e9565b610235610264366004611d5a565b6108cf565b610271610a60565b005b610296610281366004611b43565b60026020526000908152604090205460ff1681565b6040519015158152602001610219565b6102716102b4366004611b43565b610da5565b6102356102c7366004611dfb565b610df1565b60005461029690600160a01b900460ff1681565b6102716102ee366004611d5a565b610e06565b610271610301366004611d5a565b610e35565b6102057f000000000000000000000000000000000000000000000000000000000000000081565b610271610e41565b6102057f000000000000000000000000000000000000000000000000000000000000000081565b61027161036a366004611b60565b610e77565b61023561037d366004611d5a565b610f00565b6000546001600160a01b0316610205565b600354610205906001600160a01b031681565b6102716103b4366004611d5a565b611067565b6102716103c7366004611db1565b6111a8565b600554610205906001600160a01b031681565b6102057f000000000000000000000000000000000000000000000000000000000000000081565b610271610414366004611d5a565b611260565b610296610427366004611bc5565b6112f8565b61023560045481565b61020573a47c8bf37f92abed4a126bda807a7b7498661acd81565b61023560015481565b610271610467366004611b43565b6113e2565b6102057f000000000000000000000000000000000000000000000000000000000000000081565b61020573cef9e167d3f8806771e9bac1d4a0d568c39a938881565b6102716104bc366004611b99565b61147a565b6000816104d684670de0b6b3a7640000611f82565b6104e09190611f60565b90505b92915050565b60008054600160a01b900460ff16156105455760405162461bcd60e51b815260206004820152601960248201527810995b9d1bd09bde0814dd1c985d1959de4e88195e1a5d1959603a1b60448201526064015b60405180910390fd5b336001600160a01b037f0000000000000000000000000000000000000000000000000000000000000000161461058d5760405162461bcd60e51b815260040161053c90611e6c565b6001600160a01b038216301480156106685750600154604051634ffe34db60e01b81526001600160a01b037f0000000000000000000000000000000000000000000000000000000000000000811660048301527f00000000000000000000000000000000000000000000000000000000000000001690634ffe34db90602401604080518083038186803b15801561062357600080fd5b505afa158015610637573d6000803e3d6000fd5b505050506040513d601f19601f8201168201806040525081019061065b9190611c93565b516001600160801b031611155b80156106745750600083115b156108c65760006106848461150c565b6040516370a0823160e01b81523060048201529091506000906001600160a01b037f000000000000000000000000000000000000000000000000000000000000000016906370a082319060240160206040518083038186803b1580156106e957600080fd5b505afa1580156106fd573d6000803e3d6000fd5b505050506040513d601f19601f820116820180604052508101906107219190611d73565b9050600082126108be578181106107f85760006064600454846107449190611f82565b61074e9190611f60565b9050600061075c8285611fe0565b90506107b26001600160a01b037f0000000000000000000000000000000000000000000000000000000000000000167f0000000000000000000000000000000000000000000000000000000000000000836116fc565b6005546107ec906001600160a01b037f000000000000000000000000000000000000000000000000000000000000000081169116846116fc565b839450505050506104e3565b600060646004548361080a9190611f82565b6108149190611f60565b905060006108228284611fe0565b90506108786001600160a01b037f0000000000000000000000000000000000000000000000000000000000000000167f0000000000000000000000000000000000000000000000000000000000000000836116fc565b6005546108b2906001600160a01b037f000000000000000000000000000000000000000000000000000000000000000081169116846116fc565b829450505050506104e3565b5090506104e3565b50600092915050565b60008054600160a01b900460ff16156109265760405162461bcd60e51b815260206004820152601960248201527810995b9d1bd09bde0814dd1c985d1959de4e88195e1a5d1959603a1b604482015260640161053c565b336001600160a01b037f0000000000000000000000000000000000000000000000000000000000000000161461096e5760405162461bcd60e51b815260040161053c90611e6c565b6040516370a0823160e01b81523060048201527f00000000000000000000000000000000000000000000000000000000000000006001600160a01b0316906370a082319060240160206040518083038186803b1580156109cd57600080fd5b505afa1580156109e1573d6000803e3d6000fd5b505050506040513d601f19601f82011682018060405250810190610a059190611d73565b9050610a5b6001600160a01b037f0000000000000000000000000000000000000000000000000000000000000000167f0000000000000000000000000000000000000000000000000000000000000000836116fc565b919050565b3360009081526002602052604090205460ff16610a8f5760405162461bcd60e51b815260040161053c90611ed6565b60405163df23b45b60e01b815273a47c8bf37f92abed4a126bda807a7b7498661acd60048201526000907f00000000000000000000000000000000000000000000000000000000000000006001600160a01b03169063df23b45b9060240160606040518083038186803b158015610b0557600080fd5b505afa158015610b19573d6000803e3d6000fd5b505050506040513d601f19601f82011682018060405250810190610b3d9190611cee565b604090810151600354915163cdd2193960e01b815273a47c8bf37f92abed4a126bda807a7b7498661acd6004820152600160248201526001600160801b0390911692506000916001600160a01b03169063cdd219399060440160206040518083038186803b158015610bae57600080fd5b505afa158015610bc2573d6000803e3d6000fd5b505050506040513d601f19601f82011682018060405250810190610be69190611d73565b6040516370a0823160e01b815230600482015290915060009073a47c8bf37f92abed4a126bda807a7b7498661acd906370a082319060240160206040518083038186803b158015610c3657600080fd5b505afa158015610c4a573d6000803e3d6000fd5b505050506040513d601f19601f82011682018060405250810190610c6e9190611d73565b6040516370a0823160e01b81523060048201529091506000908290610d029073a8de3e3c934e2a1bb08b010104ccabbd4d6293ab906370a082319060240160206040518083038186803b158015610cc457600080fd5b505afa158015610cd8573d6000803e3d6000fd5b505050506040513d601f19601f82011682018060405250810190610cfc9190611d73565b85610df1565b610d0c9190611f48565b905083811115610d9f5773cef9e167d3f8806771e9bac1d4a0d568c39a938863d5571f02610d4e84610d3e8886611fe0565b610d489190611fe0565b866104c1565b6040518263ffffffff1660e01b8152600401610d6c91815260200190565b600060405180830381600087803b158015610d8657600080fd5b505af1158015610d9a573d6000803e3d6000fd5b505050505b50505050565b6000546001600160a01b03163314610dcf5760405162461bcd60e51b815260040161053c90611ea1565b600380546001600160a01b0319166001600160a01b0392909216919091179055565b6000670de0b6b3a76400006104d68385611f82565b3360009081526002602052604090205460ff16610e355760405162461bcd60e51b815260040161053c90611ed6565b610e3e81611753565b50565b6000546001600160a01b03163314610e6b5760405162461bcd60e51b815260040161053c90611ea1565b610e75600061178b565b565b6000546001600160a01b03163314610ea15760405162461bcd60e51b815260040161053c90611ea1565b6001600160a01b038216600081815260026020908152604091829020805460ff191685151590811790915591519182527fb08a78f53a7fe017d5ca8c8fcdbf06ffa2c31f2ab668378a17700d9fc558717e910160405180910390a25050565b6000336001600160a01b037f00000000000000000000000000000000000000000000000000000000000000001614610f4a5760405162461bcd60e51b815260040161053c90611e6c565b610f526117db565b6040516370a0823160e01b81523060048201526000907f00000000000000000000000000000000000000000000000000000000000000006001600160a01b0316906370a082319060240160206040518083038186803b158015610fb457600080fd5b505afa158015610fc8573d6000803e3d6000fd5b505050506040513d601f19601f82011682018060405250810190610fec9190611d73565b9050610ff88382611fa1565b915061104e6001600160a01b037f0000000000000000000000000000000000000000000000000000000000000000167f0000000000000000000000000000000000000000000000000000000000000000836116fc565b506000805460ff60a01b1916600160a01b179055919050565b3360009081526002602052604090205460ff166110965760405162461bcd60e51b815260040161053c90611ed6565b60035460405163cdd2193960e01b815273a47c8bf37f92abed4a126bda807a7b7498661acd6004820152600160248201526000916001600160a01b03169063cdd219399060440160206040518083038186803b1580156110f557600080fd5b505afa158015611109573d6000803e3d6000fd5b505050506040513d601f19601f8201168201806040525081019061112d9190611d73565b9050600061113b83836104c1565b604051636aab8f8160e11b81526004810182905290915073cef9e167d3f8806771e9bac1d4a0d568c39a93889063d5571f0290602401600060405180830381600087803b15801561118b57600080fd5b505af115801561119f573d6000803e3d6000fd5b50505050505050565b3360009081526002602052604090205460ff166111d75760405162461bcd60e51b815260040161053c90611ed6565b83156111e35760018490555b6040516366c6bb0b60e01b81526001600160a01b037f0000000000000000000000000000000000000000000000000000000000000000811660048301528415156024830152604482018490527f000000000000000000000000000000000000000000000000000000000000000016906366c6bb0b90606401610d6c565b3360009081526002602052604090205460ff1661128f5760405162461bcd60e51b815260040161053c90611ed6565b604051636aab8f8160e11b81526004810182905273cef9e167d3f8806771e9bac1d4a0d568c39a93889063d5571f02906024015b600060405180830381600087803b1580156112dd57600080fd5b505af11580156112f1573d6000803e3d6000fd5b5050505050565b600080546001600160a01b031633146113235760405162461bcd60e51b815260040161053c90611ea1565b600054600160a01b900460ff1661137c5760405162461bcd60e51b815260206004820152601d60248201527f42656e746f426f782053747261746567793a206e6f7420657869746564000000604482015260640161053c565b836001600160a01b031683836040516113959190611e1d565b60006040518083038185875af1925050503d80600081146113d2576040519150601f19603f3d011682016040523d82523d6000602084013e6113d7565b606091505b509095945050505050565b6000546001600160a01b0316331461140c5760405162461bcd60e51b815260040161053c90611ea1565b6001600160a01b0381166114715760405162461bcd60e51b815260206004820152602660248201527f4f776e61626c653a206e6577206f776e657220697320746865207a65726f206160448201526564647265737360d01b606482015260840161053c565b610e3e8161178b565b6000546001600160a01b031633146114a45760405162461bcd60e51b815260040161053c90611ea1565b60648111156114e65760405162461bcd60e51b815260206004820152600e60248201526d06d617820666565206973203130360941b604482015260640161053c565b600580546001600160a01b0319166001600160a01b039390931692909217909155600455565b60035460405163cdd2193960e01b815273a47c8bf37f92abed4a126bda807a7b7498661acd60048201526001602482015260009182916001600160a01b039091169063cdd219399060440160206040518083038186803b15801561156f57600080fd5b505afa158015611583573d6000803e3d6000fd5b505050506040513d601f19601f820116820180604052508101906115a79190611d73565b905060006115b584836104c1565b6040516370a0823160e01b81523060048201529091506000906116479073a47c8bf37f92abed4a126bda807a7b7498661acd906370a082319060240160206040518083038186803b15801561160957600080fd5b505afa15801561161d573d6000803e3d6000fd5b505050506040513d601f19601f820116820180604052508101906116419190611d73565b846104c1565b6040516370a0823160e01b815230600482015273a8de3e3c934e2a1bb08b010104ccabbd4d6293ab906370a082319060240160206040518083038186803b15801561169157600080fd5b505afa1580156116a5573d6000803e3d6000fd5b505050506040513d601f19601f820116820180604052508101906116c99190611d73565b6116d39190611f48565b90506116df8284610df1565b6116e98285610df1565b6116f39190611fa1565b95945050505050565b604080516001600160a01b038416602482015260448082018490528251808303909101815260649091019091526020810180516001600160e01b031663a9059cbb60e01b17905261174e9084906118c8565b505050565b604051630fcfb05960e01b81526004810182905273cef9e167d3f8806771e9bac1d4a0d568c39a938890630fcfb059906024016112c3565b600080546001600160a01b038381166001600160a01b0319831681178455604051919092169283917f8be0079c531659141344cd1fd0a4f28419497f9722a3daafe3b4186f6b6457e09190a35050565b6040516370a0823160e01b815230600482015273cef9e167d3f8806771e9bac1d4a0d568c39a93889063d5571f029073a8de3e3c934e2a1bb08b010104ccabbd4d6293ab906370a082319060240160206040518083038186803b15801561184157600080fd5b505afa158015611855573d6000803e3d6000fd5b505050506040513d601f19601f820116820180604052508101906118799190611d73565b6040518263ffffffff1660e01b815260040161189791815260200190565b600060405180830381600087803b1580156118b157600080fd5b505af19250505080156118c2575060015b610e7557565b600061191d826040518060400160405280602081526020017f5361666545524332303a206c6f772d6c6576656c2063616c6c206661696c6564815250856001600160a01b031661199a9092919063ffffffff16565b80519091501561174e578080602001905181019061193b9190611c76565b61174e5760405162461bcd60e51b815260206004820152602a60248201527f5361666545524332303a204552433230206f7065726174696f6e20646964206e6044820152691bdd081cdd58d8d9595960b21b606482015260840161053c565b60606119a984846000856119b3565b90505b9392505050565b606082471015611a145760405162461bcd60e51b815260206004820152602660248201527f416464726573733a20696e73756666696369656e742062616c616e636520666f6044820152651c8818d85b1b60d21b606482015260840161053c565b843b611a625760405162461bcd60e51b815260206004820152601d60248201527f416464726573733a2063616c6c20746f206e6f6e2d636f6e7472616374000000604482015260640161053c565b600080866001600160a01b03168587604051611a7e9190611e1d565b60006040518083038185875af1925050503d8060008114611abb576040519150601f19603f3d011682016040523d82523d6000602084013e611ac0565b606091505b5091509150611ad0828286611adb565b979650505050505050565b60608315611aea5750816119ac565b825115611afa5782518084602001fd5b8160405162461bcd60e51b815260040161053c9190611e39565b80516001600160801b0381168114610a5b57600080fd5b805167ffffffffffffffff81168114610a5b57600080fd5b600060208284031215611b5557600080fd5b81356119ac8161204f565b60008060408385031215611b7357600080fd5b8235611b7e8161204f565b91506020830135611b8e81612064565b809150509250929050565b60008060408385031215611bac57600080fd5b8235611bb78161204f565b946020939093013593505050565b600080600060608486031215611bda57600080fd5b8335611be58161204f565b92506020848101359250604085013567ffffffffffffffff80821115611c0a57600080fd5b818701915087601f830112611c1e57600080fd5b813581811115611c3057611c30612039565b611c42601f8201601f19168501611f17565b91508082528884828501011115611c5857600080fd5b80848401858401376000848284010152508093505050509250925092565b600060208284031215611c8857600080fd5b81516119ac81612064565b600060408284031215611ca557600080fd5b6040516040810181811067ffffffffffffffff82111715611cc857611cc8612039565b604052611cd483611b14565b8152611ce260208401611b14565b60208201529392505050565b600060608284031215611d0057600080fd5b6040516060810181811067ffffffffffffffff82111715611d2357611d23612039565b604052611d2f83611b2b565b8152611d3d60208401611b2b565b6020820152611d4e60408401611b14565b60408201529392505050565b600060208284031215611d6c57600080fd5b5035919050565b600060208284031215611d8557600080fd5b5051919050565b60008060408385031215611d9f57600080fd5b823591506020830135611b8e8161204f565b60008060008060808587031215611dc757600080fd5b843593506020850135611dd981612064565b9250604085013591506060850135611df081612064565b939692955090935050565b60008060408385031215611e0e57600080fd5b50508035926020909101359150565b60008251611e2f818460208701611ff7565b9190910192915050565b6020815260008251806020840152611e58816040850160208701611ff7565b601f01601f19169190910160400192915050565b6020808252818101527f42656e746f426f782053747261746567793a206f6e6c792042656e746f426f78604082015260600190565b6020808252818101527f4f776e61626c653a2063616c6c6572206973206e6f7420746865206f776e6572604082015260600190565b60208082526021908201527f42656e746f426f782053747261746567793a206f6e6c79204578656375746f726040820152607360f81b606082015260800190565b604051601f8201601f1916810167ffffffffffffffff81118282101715611f4057611f40612039565b604052919050565b60008219821115611f5b57611f5b612023565b500190565b600082611f7d57634e487b7160e01b600052601260045260246000fd5b500490565b6000816000190483118215151615611f9c57611f9c612023565b500290565b60008083128015600160ff1b850184121615611fbf57611fbf612023565b6001600160ff1b0384018313811615611fda57611fda612023565b50500390565b600082821015611ff257611ff2612023565b500390565b60005b83811015612012578181015183820152602001611ffa565b83811115610d9f5750506000910152565b634e487b7160e01b600052601160045260246000fd5b634e487b7160e01b600052604160045260246000fd5b6001600160a01b0381168114610e3e57600080fd5b8015158114610e3e57600080fdfea2646970667358221220638e5a954a9711264d61db3dc07b0a724570c1c98219b0aedc18e66565ec884e64736f6c63430008070033",
  "devdoc": {
    "kind": "dev",
    "methods": {
      "afterExit(address,uint256,bytes)": {
        "details": "After exited, the owner can perform ANY call. This is to rescue any funds that didn't get released during exit or got earned afterwards due to vesting or airdrops, etc. "
      },
      "exit(uint256)": {
        "details": "do not use isActive modifier here; allow bentobox to call strategy.exit() multiple times",
        "params": {
          "balance": "The amount of tokens the caller thinks it has invested."
        },
        "returns": {
          "amountAdded": "The delta (+profit or -loss) that occured in contrast to `balance`."
        }
      },
      "harvest(uint256,address)": {
        "details": "Only BentoBox can call harvest on this strategy.Ensures that (1) the caller was this contract (called through the safeHarvest function) and (2) that we are not being frontrun by a large BentoBox deposit when harvesting profits. ",
        "params": {
          "balance": "The amount of tokens the caller thinks it has invested.",
          "sender": "The address of the initiator of this transaction. Can be used for reimbursements, etc."
        },
        "returns": {
          "_0": "The delta (+profit or -loss) that occured in contrast to `balance`."
        }
      },
      "owner()": {
        "details": "Returns the address of the current owner."
      },
      "renounceOwnership()": {
        "details": "Leaves the contract without owner. It will not be possible to call `onlyOwner` functions anymore. Can only be called by the current owner. NOTE: Renouncing ownership will leave the contract without an owner, thereby removing any functionality that is only available to the owner."
      },
      "safeHarvest(uint256,bool,uint256,bool)": {
        "details": "maxBalance can be set to 0 to keep the previous value.maxChangeAmount can be set to 0 to allow for full rebalancing.",
        "params": {
          "harvestRewards": "If we want to claim any accrued reward tokens",
          "maxBalance": "The maximum balance of the underlying token that is allowed to be in BentoBox.",
          "maxChangeAmount": "When rebalancing - the maximum amount that will be deposited to or withdrawn from a strategy to BentoBox.",
          "rebalance": "Whether BentoBox should rebalance the strategy assets to acheive it's target allocation."
        }
      },
      "skim(uint256)": {
        "params": {
          "amount": "The amount of tokens to invest."
        }
      },
      "transferOwnership(address)": {
        "details": "Transfers ownership of the contract to a new account (`newOwner`). Can only be called by the current owner."
      },
      "withdraw(uint256)": {
        "details": "The `actualAmount` should be very close to the amount. The difference should NOT be used to report a loss. That's what harvest is for.",
        "params": {
          "amount": "The requested amount the caller wants to withdraw."
        },
        "returns": {
          "actualAmount": "The real amount that is withdrawn."
        }
      }
    },
    "version": 1
  },
  "userdoc": {
    "kind": "user",
    "methods": {
      "exit(uint256)": {
        "notice": "Withdraw all assets in the safest way possible. This shouldn't fail."
      },
      "harvest(uint256,address)": {
        "notice": "Harvest any profits made converted to the asset and pass them to the caller."
      },
      "safeHarvest(uint256,bool,uint256,bool)": {
        "notice": "Harvest profits while preventing a sandwich attack exploit."
      },
      "skim(uint256)": {
        "notice": "Send the assets to the Strategy and call skim to invest them."
      },
      "withdraw(uint256)": {
        "notice": "Withdraw assets. The returned amount can differ from the requested amount due to rounding."
      }
    },
    "version": 1
  },
  "storageLayout": {
    "storage": [
      {
        "astId": 7,
        "contract": "contracts/strategies/USTStrategyV2.sol:USTStrategyV2",
        "label": "_owner",
        "offset": 0,
        "slot": "0",
        "type": "t_address"
      },
      {
        "astId": 5996,
        "contract": "contracts/strategies/USTStrategyV2.sol:USTStrategyV2",
        "label": "exited",
        "offset": 20,
        "slot": "0",
        "type": "t_bool"
      },
      {
        "astId": 5999,
        "contract": "contracts/strategies/USTStrategyV2.sol:USTStrategyV2",
        "label": "maxBentoBoxBalance",
        "offset": 0,
        "slot": "1",
        "type": "t_uint256"
      },
      {
        "astId": 6004,
        "contract": "contracts/strategies/USTStrategyV2.sol:USTStrategyV2",
        "label": "strategyExecutors",
        "offset": 0,
        "slot": "2",
        "type": "t_mapping(t_address,t_bool)"
      },
      {
        "astId": 6347,
        "contract": "contracts/strategies/USTStrategyV2.sol:USTStrategyV2",
        "label": "feeder",
        "offset": 0,
        "slot": "3",
        "type": "t_contract(IExchangeRateFeeder)5978"
      },
      {
        "astId": 6364,
        "contract": "contracts/strategies/USTStrategyV2.sol:USTStrategyV2",
        "label": "fee",
        "offset": 0,
        "slot": "4",
        "type": "t_uint256"
      },
      {
        "astId": 6366,
        "contract": "contracts/strategies/USTStrategyV2.sol:USTStrategyV2",
        "label": "feeCollector",
        "offset": 0,
        "slot": "5",
        "type": "t_address"
      }
    ],
    "types": {
      "t_address": {
        "encoding": "inplace",
        "label": "address",
        "numberOfBytes": "20"
      },
      "t_bool": {
        "encoding": "inplace",
        "label": "bool",
        "numberOfBytes": "1"
      },
      "t_contract(IExchangeRateFeeder)5978": {
        "encoding": "inplace",
        "label": "contract IExchangeRateFeeder",
        "numberOfBytes": "20"
      },
      "t_mapping(t_address,t_bool)": {
        "encoding": "mapping",
        "key": "t_address",
        "label": "mapping(address => bool)",
        "numberOfBytes": "32",
        "value": "t_bool"
      },
      "t_uint256": {
        "encoding": "inplace",
        "label": "uint256",
        "numberOfBytes": "32"
      }
    }
  }
}